{
  "_format": "hh-sol-artifact-1",
  "contractName": "MemeForge",
  "sourceName": "contracts/MemeForge.sol",
  "abi": [
    {
      "inputs": [],
      "stateMutability": "nonpayable",
      "type": "constructor"
    },
    {
      "inputs": [],
      "name": "ECDSAInvalidSignature",
      "type": "error"
    },
    {
      "inputs": [
        {
          "internalType": "uint256",
          "name": "length",
          "type": "uint256"
        }
      ],
      "name": "ECDSAInvalidSignatureLength",
      "type": "error"
    },
    {
      "inputs": [
        {
          "internalType": "bytes32",
          "name": "s",
          "type": "bytes32"
        }
      ],
      "name": "ECDSAInvalidSignatureS",
      "type": "error"
    },
    {
      "inputs": [
        {
          "internalType": "uint256",
          "name": "numerator",
          "type": "uint256"
        },
        {
          "internalType": "uint256",
          "name": "denominator",
          "type": "uint256"
        }
      ],
      "name": "ERC2981InvalidDefaultRoyalty",
      "type": "error"
    },
    {
      "inputs": [
        {
          "internalType": "address",
          "name": "receiver",
          "type": "address"
        }
      ],
      "name": "ERC2981InvalidDefaultRoyaltyReceiver",
      "type": "error"
    },
    {
      "inputs": [
        {
          "internalType": "uint256",
          "name": "tokenId",
          "type": "uint256"
        },
        {
          "internalType": "uint256",
          "name": "numerator",
          "type": "uint256"
        },
        {
          "internalType": "uint256",
          "name": "denominator",
          "type": "uint256"
        }
      ],
      "name": "ERC2981InvalidTokenRoyalty",
      "type": "error"
    },
    {
      "inputs": [
        {
          "internalType": "uint256",
          "name": "tokenId",
          "type": "uint256"
        },
        {
          "internalType": "address",
          "name": "receiver",
          "type": "address"
        }
      ],
      "name": "ERC2981InvalidTokenRoyaltyReceiver",
      "type": "error"
    },
    {
      "inputs": [
        {
          "internalType": "address",
          "name": "sender",
          "type": "address"
        },
        {
          "internalType": "uint256",
          "name": "tokenId",
          "type": "uint256"
        },
        {
          "internalType": "address",
          "name": "owner",
          "type": "address"
        }
      ],
      "name": "ERC721IncorrectOwner",
      "type": "error"
    },
    {
      "inputs": [
        {
          "internalType": "address",
          "name": "operator",
          "type": "address"
        },
        {
          "internalType": "uint256",
          "name": "tokenId",
          "type": "uint256"
        }
      ],
      "name": "ERC721InsufficientApproval",
      "type": "error"
    },
    {
      "inputs": [
        {
          "internalType": "address",
          "name": "approver",
          "type": "address"
        }
      ],
      "name": "ERC721InvalidApprover",
      "type": "error"
    },
    {
      "inputs": [
        {
          "internalType": "address",
          "name": "operator",
          "type": "address"
        }
      ],
      "name": "ERC721InvalidOperator",
      "type": "error"
    },
    {
      "inputs": [
        {
          "internalType": "address",
          "name": "owner",
          "type": "address"
        }
      ],
      "name": "ERC721InvalidOwner",
      "type": "error"
    },
    {
      "inputs": [
        {
          "internalType": "address",
          "name": "receiver",
          "type": "address"
        }
      ],
      "name": "ERC721InvalidReceiver",
      "type": "error"
    },
    {
      "inputs": [
        {
          "internalType": "address",
          "name": "sender",
          "type": "address"
        }
      ],
      "name": "ERC721InvalidSender",
      "type": "error"
    },
    {
      "inputs": [
        {
          "internalType": "uint256",
          "name": "tokenId",
          "type": "uint256"
        }
      ],
      "name": "ERC721NonexistentToken",
      "type": "error"
    },
    {
      "inputs": [
        {
          "internalType": "address",
          "name": "owner",
          "type": "address"
        }
      ],
      "name": "OwnableInvalidOwner",
      "type": "error"
    },
    {
      "inputs": [
        {
          "internalType": "address",
          "name": "account",
          "type": "address"
        }
      ],
      "name": "OwnableUnauthorizedAccount",
      "type": "error"
    },
    {
      "inputs": [],
      "name": "ReentrancyGuardReentrantCall",
      "type": "error"
    },
    {
      "anonymous": false,
      "inputs": [
        {
          "indexed": true,
          "internalType": "address",
          "name": "owner",
          "type": "address"
        },
        {
          "indexed": true,
          "internalType": "address",
          "name": "approved",
          "type": "address"
        },
        {
          "indexed": true,
          "internalType": "uint256",
          "name": "tokenId",
          "type": "uint256"
        }
      ],
      "name": "Approval",
      "type": "event"
    },
    {
      "anonymous": false,
      "inputs": [
        {
          "indexed": true,
          "internalType": "address",
          "name": "owner",
          "type": "address"
        },
        {
          "indexed": true,
          "internalType": "address",
          "name": "operator",
          "type": "address"
        },
        {
          "indexed": false,
          "internalType": "bool",
          "name": "approved",
          "type": "bool"
        }
      ],
      "name": "ApprovalForAll",
      "type": "event"
    },
    {
      "anonymous": false,
      "inputs": [
        {
          "indexed": false,
          "internalType": "uint256",
          "name": "_fromTokenId",
          "type": "uint256"
        },
        {
          "indexed": false,
          "internalType": "uint256",
          "name": "_toTokenId",
          "type": "uint256"
        }
      ],
      "name": "BatchMetadataUpdate",
      "type": "event"
    },
    {
      "anonymous": false,
      "inputs": [
        {
          "indexed": true,
          "internalType": "uint256",
          "name": "tokenId",
          "type": "uint256"
        },
        {
          "indexed": false,
          "internalType": "address",
          "name": "creator",
          "type": "address"
        }
      ],
      "name": "MemeCreated",
      "type": "event"
    },
    {
      "anonymous": false,
      "inputs": [
        {
          "indexed": true,
          "internalType": "uint256",
          "name": "tokenId",
          "type": "uint256"
        },
        {
          "indexed": false,
          "internalType": "address",
          "name": "liker",
          "type": "address"
        }
      ],
      "name": "MemeLiked",
      "type": "event"
    },
    {
      "anonymous": false,
      "inputs": [
        {
          "indexed": true,
          "internalType": "uint256",
          "name": "originalTokenId",
          "type": "uint256"
        },
        {
          "indexed": true,
          "internalType": "uint256",
          "name": "newTokenId",
          "type": "uint256"
        },
        {
          "indexed": false,
          "internalType": "address",
          "name": "remixer",
          "type": "address"
        },
        {
          "indexed": false,
          "internalType": "string",
          "name": "uri",
          "type": "string"
        }
      ],
      "name": "MemeRemixed",
      "type": "event"
    },
    {
      "anonymous": false,
      "inputs": [
        {
          "indexed": true,
          "internalType": "uint256",
          "name": "tokenId",
          "type": "uint256"
        },
        {
          "indexed": false,
          "internalType": "address",
          "name": "voter",
          "type": "address"
        }
      ],
      "name": "MemeVoted",
      "type": "event"
    },
    {
      "anonymous": false,
      "inputs": [
        {
          "indexed": false,
          "internalType": "uint256",
          "name": "_tokenId",
          "type": "uint256"
        }
      ],
      "name": "MetadataUpdate",
      "type": "event"
    },
    {
      "anonymous": false,
      "inputs": [
        {
          "indexed": true,
          "internalType": "address",
          "name": "previousOwner",
          "type": "address"
        },
        {
          "indexed": true,
          "internalType": "address",
          "name": "newOwner",
          "type": "address"
        }
      ],
      "name": "OwnershipTransferred",
      "type": "event"
    },
    {
      "anonymous": false,
      "inputs": [
        {
          "indexed": true,
          "internalType": "address",
          "name": "from",
          "type": "address"
        },
        {
          "indexed": true,
          "internalType": "address",
          "name": "to",
          "type": "address"
        },
        {
          "indexed": true,
          "internalType": "uint256",
          "name": "tokenId",
          "type": "uint256"
        }
      ],
      "name": "Transfer",
      "type": "event"
    },
    {
      "inputs": [],
      "name": "REMIX_ROYALTY_PERCENTAGE",
      "outputs": [
        {
          "internalType": "uint96",
          "name": "",
          "type": "uint96"
        }
      ],
      "stateMutability": "view",
      "type": "function"
    },
    {
      "inputs": [
        {
          "internalType": "address",
          "name": "to",
          "type": "address"
        },
        {
          "internalType": "uint256",
          "name": "tokenId",
          "type": "uint256"
        }
      ],
      "name": "approve",
      "outputs": [],
      "stateMutability": "nonpayable",
      "type": "function"
    },
    {
      "inputs": [
        {
          "internalType": "address",
          "name": "owner",
          "type": "address"
        }
      ],
      "name": "balanceOf",
      "outputs": [
        {
          "internalType": "uint256",
          "name": "",
          "type": "uint256"
        }
      ],
      "stateMutability": "view",
      "type": "function"
    },
    {
      "inputs": [
        {
          "internalType": "uint256",
          "name": "tokenId",
          "type": "uint256"
        }
      ],
      "name": "calculateTrendingScore",
      "outputs": [
        {
          "internalType": "uint256",
          "name": "",
          "type": "uint256"
        }
      ],
      "stateMutability": "view",
      "type": "function"
    },
    {
      "inputs": [
        {
          "internalType": "string",
          "name": "uri",
          "type": "string"
        }
      ],
      "name": "createMeme",
      "outputs": [
        {
          "internalType": "uint256",
          "name": "",
          "type": "uint256"
        }
      ],
      "stateMutability": "nonpayable",
      "type": "function"
    },
    {
      "inputs": [
        {
          "internalType": "uint256",
          "name": "originalTokenId",
          "type": "uint256"
        },
        {
          "internalType": "string",
          "name": "metadataURI",
          "type": "string"
        },
        {
          "internalType": "bytes",
          "name": "signature",
          "type": "bytes"
        }
      ],
      "name": "createSponsoredRemix",
      "outputs": [],
      "stateMutability": "nonpayable",
      "type": "function"
    },
    {
      "inputs": [
        {
          "internalType": "uint256",
          "name": "tokenId",
          "type": "uint256"
        }
      ],
      "name": "enableRemixSponsorship",
      "outputs": [],
      "stateMutability": "nonpayable",
      "type": "function"
    },
    {
      "inputs": [
        {
          "internalType": "uint256",
          "name": "tokenId",
          "type": "uint256"
        }
      ],
      "name": "getApproved",
      "outputs": [
        {
          "internalType": "address",
          "name": "",
          "type": "address"
        }
      ],
      "stateMutability": "view",
      "type": "function"
    },
    {
      "inputs": [
        {
          "internalType": "uint256",
          "name": "tokenId",
          "type": "uint256"
        }
      ],
      "name": "getMemeData",
      "outputs": [
        {
          "components": [
            {
              "internalType": "string",
              "name": "uri",
              "type": "string"
            },
            {
              "internalType": "address",
              "name": "creator",
              "type": "address"
            },
            {
              "internalType": "uint256",
              "name": "likes",
              "type": "uint256"
            },
            {
              "internalType": "uint256",
              "name": "remixes",
              "type": "uint256"
            },
            {
              "internalType": "uint256",
              "name": "votes",
              "type": "uint256"
            },
            {
              "internalType": "bool",
              "name": "isRemix",
              "type": "bool"
            },
            {
              "internalType": "uint256",
              "name": "originalMemeId",
              "type": "uint256"
            },
            {
              "internalType": "uint256",
              "name": "timestamp",
              "type": "uint256"
            }
          ],
          "internalType": "struct MemeForge.MemeData",
          "name": "",
          "type": "tuple"
        }
      ],
      "stateMutability": "view",
      "type": "function"
    },
    {
      "inputs": [],
      "name": "getNextTokenId",
      "outputs": [
        {
          "internalType": "uint256",
          "name": "",
          "type": "uint256"
        }
      ],
      "stateMutability": "view",
      "type": "function"
    },
    {
      "inputs": [
        {
          "internalType": "uint256",
          "name": "limit",
          "type": "uint256"
        }
      ],
      "name": "getTrendingMemes",
      "outputs": [
        {
          "internalType": "uint256[]",
          "name": "",
          "type": "uint256[]"
        }
      ],
      "stateMutability": "view",
      "type": "function"
    },
    {
      "inputs": [
        {
          "internalType": "address",
          "name": "",
          "type": "address"
        },
        {
          "internalType": "uint256",
          "name": "",
          "type": "uint256"
        }
      ],
      "name": "hasLiked",
      "outputs": [
        {
          "internalType": "bool",
          "name": "",
          "type": "bool"
        }
      ],
      "stateMutability": "view",
      "type": "function"
    },
    {
      "inputs": [
        {
          "internalType": "address",
          "name": "",
          "type": "address"
        },
        {
          "internalType": "uint256",
          "name": "",
          "type": "uint256"
        }
      ],
      "name": "hasVoted",
      "outputs": [
        {
          "internalType": "bool",
          "name": "",
          "type": "bool"
        }
      ],
      "stateMutability": "view",
      "type": "function"
    },
    {
      "inputs": [
        {
          "internalType": "address",
          "name": "owner",
          "type": "address"
        },
        {
          "internalType": "address",
          "name": "operator",
          "type": "address"
        }
      ],
      "name": "isApprovedForAll",
      "outputs": [
        {
          "internalType": "bool",
          "name": "",
          "type": "bool"
        }
      ],
      "stateMutability": "view",
      "type": "function"
    },
    {
      "inputs": [
        {
          "internalType": "uint256",
          "name": "tokenId",
          "type": "uint256"
        }
      ],
      "name": "likeMeme",
      "outputs": [],
      "stateMutability": "nonpayable",
      "type": "function"
    },
    {
      "inputs": [
        {
          "internalType": "uint256",
          "name": "",
          "type": "uint256"
        }
      ],
      "name": "memes",
      "outputs": [
        {
          "internalType": "string",
          "name": "uri",
          "type": "string"
        },
        {
          "internalType": "address",
          "name": "creator",
          "type": "address"
        },
        {
          "internalType": "uint256",
          "name": "likes",
          "type": "uint256"
        },
        {
          "internalType": "uint256",
          "name": "remixes",
          "type": "uint256"
        },
        {
          "internalType": "uint256",
          "name": "votes",
          "type": "uint256"
        },
        {
          "internalType": "bool",
          "name": "isRemix",
          "type": "bool"
        },
        {
          "internalType": "uint256",
          "name": "originalMemeId",
          "type": "uint256"
        },
        {
          "internalType": "uint256",
          "name": "timestamp",
          "type": "uint256"
        }
      ],
      "stateMutability": "view",
      "type": "function"
    },
    {
      "inputs": [],
      "name": "name",
      "outputs": [
        {
          "internalType": "string",
          "name": "",
          "type": "string"
        }
      ],
      "stateMutability": "view",
      "type": "function"
    },
    {
      "inputs": [
        {
          "internalType": "uint256",
          "name": "",
          "type": "uint256"
        }
      ],
      "name": "originalCreators",
      "outputs": [
        {
          "internalType": "address",
          "name": "",
          "type": "address"
        }
      ],
      "stateMutability": "view",
      "type": "function"
    },
    {
      "inputs": [],
      "name": "owner",
      "outputs": [
        {
          "internalType": "address",
          "name": "",
          "type": "address"
        }
      ],
      "stateMutability": "view",
      "type": "function"
    },
    {
      "inputs": [
        {
          "internalType": "uint256",
          "name": "tokenId",
          "type": "uint256"
        }
      ],
      "name": "ownerOf",
      "outputs": [
        {
          "internalType": "address",
          "name": "",
          "type": "address"
        }
      ],
      "stateMutability": "view",
      "type": "function"
    },
    {
      "inputs": [
        {
          "internalType": "uint256",
          "name": "originalTokenId",
          "type": "uint256"
        },
        {
          "internalType": "string",
          "name": "newTokenURI",
          "type": "string"
        }
      ],
      "name": "remixMeme",
      "outputs": [
        {
          "internalType": "uint256",
          "name": "",
          "type": "uint256"
        }
      ],
      "stateMutability": "nonpayable",
      "type": "function"
    },
    {
      "inputs": [],
      "name": "renounceOwnership",
      "outputs": [],
      "stateMutability": "nonpayable",
      "type": "function"
    },
    {
      "inputs": [
        {
          "internalType": "uint256",
          "name": "",
          "type": "uint256"
        }
      ],
      "name": "royalties",
      "outputs": [
        {
          "internalType": "uint256",
          "name": "",
          "type": "uint256"
        }
      ],
      "stateMutability": "view",
      "type": "function"
    },
    {
      "inputs": [
        {
          "internalType": "uint256",
          "name": "tokenId",
          "type": "uint256"
        },
        {
          "internalType": "uint256",
          "name": "salePrice",
          "type": "uint256"
        }
      ],
      "name": "royaltyInfo",
      "outputs": [
        {
          "internalType": "address",
          "name": "receiver",
          "type": "address"
        },
        {
          "internalType": "uint256",
          "name": "royaltyAmount",
          "type": "uint256"
        }
      ],
      "stateMutability": "view",
      "type": "function"
    },
    {
      "inputs": [
        {
          "internalType": "address",
          "name": "from",
          "type": "address"
        },
        {
          "internalType": "address",
          "name": "to",
          "type": "address"
        },
        {
          "internalType": "uint256",
          "name": "tokenId",
          "type": "uint256"
        }
      ],
      "name": "safeTransferFrom",
      "outputs": [],
      "stateMutability": "nonpayable",
      "type": "function"
    },
    {
      "inputs": [
        {
          "internalType": "address",
          "name": "from",
          "type": "address"
        },
        {
          "internalType": "address",
          "name": "to",
          "type": "address"
        },
        {
          "internalType": "uint256",
          "name": "tokenId",
          "type": "uint256"
        },
        {
          "internalType": "bytes",
          "name": "data",
          "type": "bytes"
        }
      ],
      "name": "safeTransferFrom",
      "outputs": [],
      "stateMutability": "nonpayable",
      "type": "function"
    },
    {
      "inputs": [
        {
          "internalType": "address",
          "name": "operator",
          "type": "address"
        },
        {
          "internalType": "bool",
          "name": "approved",
          "type": "bool"
        }
      ],
      "name": "setApprovalForAll",
      "outputs": [],
      "stateMutability": "nonpayable",
      "type": "function"
    },
    {
      "inputs": [
        {
          "internalType": "uint256",
          "name": "",
          "type": "uint256"
        }
      ],
      "name": "sponsoredMemes",
      "outputs": [
        {
          "internalType": "bool",
          "name": "",
          "type": "bool"
        }
      ],
      "stateMutability": "view",
      "type": "function"
    },
    {
      "inputs": [
        {
          "internalType": "bytes4",
          "name": "interfaceId",
          "type": "bytes4"
        }
      ],
      "name": "supportsInterface",
      "outputs": [
        {
          "internalType": "bool",
          "name": "",
          "type": "bool"
        }
      ],
      "stateMutability": "view",
      "type": "function"
    },
    {
      "inputs": [],
      "name": "symbol",
      "outputs": [
        {
          "internalType": "string",
          "name": "",
          "type": "string"
        }
      ],
      "stateMutability": "view",
      "type": "function"
    },
    {
      "inputs": [
        {
          "internalType": "uint256",
          "name": "tokenId",
          "type": "uint256"
        }
      ],
      "name": "tokenURI",
      "outputs": [
        {
          "internalType": "string",
          "name": "",
          "type": "string"
        }
      ],
      "stateMutability": "view",
      "type": "function"
    },
    {
      "inputs": [
        {
          "internalType": "address",
          "name": "from",
          "type": "address"
        },
        {
          "internalType": "address",
          "name": "to",
          "type": "address"
        },
        {
          "internalType": "uint256",
          "name": "tokenId",
          "type": "uint256"
        }
      ],
      "name": "transferFrom",
      "outputs": [],
      "stateMutability": "nonpayable",
      "type": "function"
    },
    {
      "inputs": [
        {
          "internalType": "address",
          "name": "newOwner",
          "type": "address"
        }
      ],
      "name": "transferOwnership",
      "outputs": [],
      "stateMutability": "nonpayable",
      "type": "function"
    },
    {
      "inputs": [
        {
          "internalType": "uint256",
          "name": "tokenId",
          "type": "uint256"
        }
      ],
      "name": "voteMeme",
      "outputs": [],
      "stateMutability": "nonpayable",
      "type": "function"
    }
  ],
  "bytecode": "0x60806040523480156200001157600080fd5b50336040518060400160405280600981526020017f4d656d65466f72676500000000000000000000000000000000000000000000008152506040518060400160405280600481526020017f4d454d450000000000000000000000000000000000000000000000000000000081525081600090816200009091906200047a565b508060019081620000a291906200047a565b505050600073ffffffffffffffffffffffffffffffffffffffff168173ffffffffffffffffffffffffffffffffffffffff16036200011a5760006040517f1e4fbdf7000000000000000000000000000000000000000000000000000000008152600401620001119190620005a6565b60405180910390fd5b6200012b816200013a60201b60201c565b506001600a81905550620005c3565b6000600960009054906101000a900473ffffffffffffffffffffffffffffffffffffffff16905081600960006101000a81548173ffffffffffffffffffffffffffffffffffffffff021916908373ffffffffffffffffffffffffffffffffffffffff1602179055508173ffffffffffffffffffffffffffffffffffffffff168173ffffffffffffffffffffffffffffffffffffffff167f8be0079c531659141344cd1fd0a4f28419497f9722a3daafe3b4186f6b6457e060405160405180910390a35050565b600081519050919050565b7f4e487b7100000000000000000000000000000000000000000000000000000000600052604160045260246000fd5b7f4e487b7100000000000000000000000000000000000000000000000000000000600052602260045260246000fd5b600060028204905060018216806200028257607f821691505b6020821081036200029857620002976200023a565b5b50919050565b60008190508160005260206000209050919050565b60006020601f8301049050919050565b600082821b905092915050565b600060088302620003027fffffffffffffffffffffffffffffffffffffffffffffffffffffffffffffffff82620002c3565b6200030e8683620002c3565b95508019841693508086168417925050509392505050565b6000819050919050565b6000819050919050565b60006200035b620003556200034f8462000326565b62000330565b62000326565b9050919050565b6000819050919050565b62000377836200033a565b6200038f620003868262000362565b848454620002d0565b825550505050565b600090565b620003a662000397565b620003b38184846200036c565b505050565b5b81811015620003db57620003cf6000826200039c565b600181019050620003b9565b5050565b601f8211156200042a57620003f4816200029e565b620003ff84620002b3565b810160208510156200040f578190505b620004276200041e85620002b3565b830182620003b8565b50505b505050565b600082821c905092915050565b60006200044f600019846008026200042f565b1980831691505092915050565b60006200046a83836200043c565b9150826002028217905092915050565b620004858262000200565b67ffffffffffffffff811115620004a157620004a06200020b565b5b620004ad825462000269565b620004ba828285620003df565b600060209050601f831160018114620004f25760008415620004dd578287015190505b620004e985826200045c565b86555062000559565b601f19841662000502866200029e565b60005b828110156200052c5784890151825560018201915060208501945060208101905062000505565b868310156200054c578489015162000548601f8916826200043c565b8355505b6001600288020188555050505b505050505050565b600073ffffffffffffffffffffffffffffffffffffffff82169050919050565b60006200058e8262000561565b9050919050565b620005a08162000581565b82525050565b6000602082019050620005bd600083018462000595565b92915050565b614e5c80620005d36000396000f3fe608060405234801561001057600080fd5b50600436106102065760003560e01c8063715018a61161011a578063b88d4fde116100ad578063d973b7021161007c578063d973b70214610663578063e7fb60261461067f578063e985e9c5146106af578063f2fde38b146106df578063f912774c146106fb57610206565b8063b88d4fde146105dd578063c87b56dd146105f9578063caa0f92a14610629578063d3f57f151461064757610206565b80638da5cb5b116100e95780638da5cb5b1461056957806395d89b41146105875780639c55a70f146105a5578063a22cb465146105c157610206565b8063715018a6146104e35780637f77f574146104ed578063867d60731461051d5780638b3059301461053957610206565b80632a55205a1161019d578063425458251161016c578063425458251461040757806342842e0e146104375780634c6668a3146104535780636352211e1461048357806370a08231146104b357610206565b80632a55205a1461033f5780632a7ca11f14610370578063388f6064146103a057806339974e04146103d757610206565b80630cf8e514116101d95780630cf8e514146102a55780630d856d58146102d557806310cf740a1461030557806323b872dd1461032357610206565b806301ffc9a71461020b57806306fdde031461023b578063081812fc14610259578063095ea7b314610289575b600080fd5b61022560048036038101906102209190613782565b61072b565b60405161023291906137ca565b60405180910390f35b61024361073d565b6040516102509190613875565b60405180910390f35b610273600480360381019061026e91906138cd565b6107cf565b604051610280919061393b565b60405180910390f35b6102a3600480360381019061029e9190613982565b6107eb565b005b6102bf60048036038101906102ba9190613af7565b610801565b6040516102cc9190613b4f565b60405180910390f35b6102ef60048036038101906102ea91906138cd565b6109f2565b6040516102fc91906137ca565b60405180910390f35b61030d610a12565b60405161031a9190613b91565b60405180910390f35b61033d60048036038101906103389190613bac565b610a18565b005b61035960048036038101906103549190613bff565b610b1a565b604051610367929190613c3f565b60405180910390f35b61038a600480360381019061038591906138cd565b610ba9565b6040516103979190613d8f565b60405180910390f35b6103ba60048036038101906103b591906138cd565b610d83565b6040516103ce989796959493929190613db1565b60405180910390f35b6103f160048036038101906103ec9190613e36565b610e80565b6040516103fe9190613b4f565b60405180910390f35b610421600480360381019061041c9190613982565b6110c4565b60405161042e91906137ca565b60405180910390f35b610451600480360381019061044c9190613bac565b6110f3565b005b61046d60048036038101906104689190613982565b611113565b60405161047a91906137ca565b60405180910390f35b61049d600480360381019061049891906138cd565b611142565b6040516104aa919061393b565b60405180910390f35b6104cd60048036038101906104c89190613e92565b611154565b6040516104da9190613b4f565b60405180910390f35b6104eb61120e565b005b610507600480360381019061050291906138cd565b611222565b6040516105149190613b4f565b60405180910390f35b610537600480360381019061053291906138cd565b61123a565b005b610553600480360381019061054e91906138cd565b61147a565b604051610560919061393b565b60405180910390f35b6105716114ad565b60405161057e919061393b565b60405180910390f35b61058f6114d7565b60405161059c9190613875565b60405180910390f35b6105bf60048036038101906105ba91906138cd565b611569565b005b6105db60048036038101906105d69190613eeb565b61175e565b005b6105f760048036038101906105f29190613fcc565b611774565b005b610613600480360381019061060e91906138cd565b611799565b6040516106209190613875565b60405180910390f35b6106316117ab565b60405161063e9190613b4f565b60405180910390f35b610661600480360381019061065c91906138cd565b6117b5565b005b61067d600480360381019061067891906140af565b61185a565b005b610699600480360381019061069491906138cd565b6119c4565b6040516106a69190613b4f565b60405180910390f35b6106c960048036038101906106c4919061413f565b611bd2565b6040516106d691906137ca565b60405180910390f35b6106f960048036038101906106f49190613e92565b611c66565b005b610715600480360381019061071091906138cd565b611cec565b604051610722919061422e565b60405180910390f35b600061073682612032565b9050919050565b60606000805461074c9061427f565b80601f01602080910402602001604051908101604052809291908181526020018280546107789061427f565b80156107c55780601f1061079a576101008083540402835291602001916107c5565b820191906000526020600020905b8154815290600101906020018083116107a857829003601f168201915b5050505050905090565b60006107da826120ac565b506107e482612134565b9050919050565b6107fd82826107f8612171565b612179565b5050565b600061080b61218b565b6000825111801561081f5750610200825111155b61085e576040517f08c379a0000000000000000000000000000000000000000000000000000000008152600401610855906142fc565b60405180910390fd5b6000600b60008154809291906108739061434b565b9190505590506040518061010001604052808481526020013373ffffffffffffffffffffffffffffffffffffffff16815260200160008152602001600081526020016000815260200160001515815260200160008152602001428152506011600083815260200190815260200160002060008201518160000190816108f8919061453f565b5060208201518160010160006101000a81548173ffffffffffffffffffffffffffffffffffffffff021916908373ffffffffffffffffffffffffffffffffffffffff16021790555060408201518160020155606082015181600301556080820151816004015560a08201518160050160006101000a81548160ff02191690831515021790555060c0820151816006015560e0820151816007015590505061099f33826121d1565b6109a981846122ca565b807f4d41e2dbc81b04ba842c0120c41b265fe5d53ab5f162050fd97168c6c9d7e8f1336040516109d9919061393b565b60405180910390a2809150506109ed612326565b919050565b60106020528060005260406000206000915054906101000a900460ff1681565b6103e881565b600073ffffffffffffffffffffffffffffffffffffffff168273ffffffffffffffffffffffffffffffffffffffff1603610a8a5760006040517f64a0ae92000000000000000000000000000000000000000000000000000000008152600401610a81919061393b565b60405180910390fd5b6000610a9e8383610a99612171565b612330565b90508373ffffffffffffffffffffffffffffffffffffffff168173ffffffffffffffffffffffffffffffffffffffff1614610b14578382826040517f64283d7b000000000000000000000000000000000000000000000000000000008152600401610b0b93929190614611565b60405180910390fd5b50505050565b600080600073ffffffffffffffffffffffffffffffffffffffff16610b3e85611142565b73ffffffffffffffffffffffffffffffffffffffff1603610b94576040517f08c379a0000000000000000000000000000000000000000000000000000000008152600401610b8b90614694565b60405180910390fd5b610b9e848461254a565b915091509250929050565b610bb16136b9565b600073ffffffffffffffffffffffffffffffffffffffff16610bd283611142565b73ffffffffffffffffffffffffffffffffffffffff1603610c28576040517f08c379a0000000000000000000000000000000000000000000000000000000008152600401610c1f90614700565b60405180910390fd5b6011600083815260200190815260200160002060405180610100016040529081600082018054610c579061427f565b80601f0160208091040260200160405190810160405280929190818152602001828054610c839061427f565b8015610cd05780601f10610ca557610100808354040283529160200191610cd0565b820191906000526020600020905b815481529060010190602001808311610cb357829003601f168201915b505050505081526020016001820160009054906101000a900473ffffffffffffffffffffffffffffffffffffffff1673ffffffffffffffffffffffffffffffffffffffff1673ffffffffffffffffffffffffffffffffffffffff1681526020016002820154815260200160038201548152602001600482015481526020016005820160009054906101000a900460ff16151515158152602001600682015481526020016007820154815250509050919050565b6011602052806000526040600020600091509050806000018054610da69061427f565b80601f0160208091040260200160405190810160405280929190818152602001828054610dd29061427f565b8015610e1f5780601f10610df457610100808354040283529160200191610e1f565b820191906000526020600020905b815481529060010190602001808311610e0257829003601f168201915b5050505050908060010160009054906101000a900473ffffffffffffffffffffffffffffffffffffffff16908060020154908060030154908060040154908060050160009054906101000a900460ff16908060060154908060070154905088565b6000610e8a61218b565b600073ffffffffffffffffffffffffffffffffffffffff16610eab84611142565b73ffffffffffffffffffffffffffffffffffffffff1603610f01576040517f08c379a0000000000000000000000000000000000000000000000000000000008152600401610ef89061476c565b60405180910390fd5b6000600b6000815480929190610f169061434b565b9190505590506040518061010001604052808481526020013373ffffffffffffffffffffffffffffffffffffffff16815260200160008152602001600081526020016000815260200160011515815260200185815260200142815250601160008381526020019081526020016000206000820151816000019081610f9a919061453f565b5060208201518160010160006101000a81548173ffffffffffffffffffffffffffffffffffffffff021916908373ffffffffffffffffffffffffffffffffffffffff16021790555060408201518160020155606082015181600301556080820151816004015560a08201518160050160006101000a81548160ff02191690831515021790555060c0820151816006015560e0820151816007015590505060116000858152602001908152602001600020600301600081548092919061105e9061434b565b919050555061106d33826121d1565b61107781846122ca565b80847fbbb81ca785f2342ff0a5067b373a75b63ecfca3457baeffc28cfddfa901bea8933866040516110aa92919061478c565b60405180910390a3809150506110be612326565b92915050565b600f6020528160005260406000206020528060005260406000206000915091509054906101000a900460ff1681565b61110e83838360405180602001604052806000815250611774565b505050565b600e6020528160005260406000206020528060005260406000206000915091509054906101000a900460ff1681565b600061114d826120ac565b9050919050565b60008073ffffffffffffffffffffffffffffffffffffffff168273ffffffffffffffffffffffffffffffffffffffff16036111c75760006040517f89c62b640000000000000000000000000000000000000000000000000000000081526004016111be919061393b565b60405180910390fd5b600360008373ffffffffffffffffffffffffffffffffffffffff1673ffffffffffffffffffffffffffffffffffffffff168152602001908152602001600020549050919050565b61121661267a565b6112206000612701565b565b600d6020528060005260406000206000915090505481565b61124261218b565b600073ffffffffffffffffffffffffffffffffffffffff1661126382611142565b73ffffffffffffffffffffffffffffffffffffffff16036112b9576040517f08c379a00000000000000000000000000000000000000000000000000000000081526004016112b090614700565b60405180910390fd5b60006112c433611154565b11611304576040517f08c379a00000000000000000000000000000000000000000000000000000000081526004016112fb90614808565b60405180910390fd5b600f60003373ffffffffffffffffffffffffffffffffffffffff1673ffffffffffffffffffffffffffffffffffffffff168152602001908152602001600020600082815260200190815260200160002060009054906101000a900460ff16156113a2576040517f08c379a000000000000000000000000000000000000000000000000000000000815260040161139990614874565b60405180910390fd5b6001600f60003373ffffffffffffffffffffffffffffffffffffffff1673ffffffffffffffffffffffffffffffffffffffff168152602001908152602001600020600083815260200190815260200160002060006101000a81548160ff0219169083151502179055506011600082815260200190815260200160002060040160008154809291906114329061434b565b9190505550807fb04229b085477d32a307704ee25d5fa10f1459f7b7250e99dafb0ee533dd223c33604051611467919061393b565b60405180910390a2611477612326565b50565b600c6020528060005260406000206000915054906101000a900473ffffffffffffffffffffffffffffffffffffffff1681565b6000600960009054906101000a900473ffffffffffffffffffffffffffffffffffffffff16905090565b6060600180546114e69061427f565b80601f01602080910402602001604051908101604052809291908181526020018280546115129061427f565b801561155f5780601f106115345761010080835404028352916020019161155f565b820191906000526020600020905b81548152906001019060200180831161154257829003601f168201915b5050505050905090565b61157161218b565b600073ffffffffffffffffffffffffffffffffffffffff1661159282611142565b73ffffffffffffffffffffffffffffffffffffffff16036115e8576040517f08c379a00000000000000000000000000000000000000000000000000000000081526004016115df90614700565b60405180910390fd5b600e60003373ffffffffffffffffffffffffffffffffffffffff1673ffffffffffffffffffffffffffffffffffffffff168152602001908152602001600020600082815260200190815260200160002060009054906101000a900460ff1615611686576040517f08c379a000000000000000000000000000000000000000000000000000000000815260040161167d906148e0565b60405180910390fd5b6001600e60003373ffffffffffffffffffffffffffffffffffffffff1673ffffffffffffffffffffffffffffffffffffffff168152602001908152602001600020600083815260200190815260200160002060006101000a81548160ff0219169083151502179055506011600082815260200190815260200160002060020160008154809291906117169061434b565b9190505550807ff8b927cfb2e75ff098dbf5a74342eb61f3048e1361979d572d4387e58579d4113360405161174b919061393b565b60405180910390a261175b612326565b50565b611770611769612171565b83836127c7565b5050565b61177f848484610a18565b61179361178a612171565b85858585612936565b50505050565b60606117a482612ae7565b9050919050565b6000600b54905090565b3373ffffffffffffffffffffffffffffffffffffffff166117d582611142565b73ffffffffffffffffffffffffffffffffffffffff161461182b576040517f08c379a00000000000000000000000000000000000000000000000000000000081526004016118229061494c565b60405180910390fd5b60016010600083815260200190815260200160002060006101000a81548160ff02191690831515021790555050565b6010600085815260200190815260200160002060009054906101000a900460ff166118ba576040517f08c379a00000000000000000000000000000000000000000000000000000000081526004016118b1906149b8565b60405180910390fd5b60008484336040516020016118d193929190614a7d565b60405160208183030381529060405280519060200120905060006119398285858080601f016020809104026020016040519081016040528093929190818152602001838380828437600081840152601f19601f82011690508083019250505050505050612bfa565b90508073ffffffffffffffffffffffffffffffffffffffff1661195b87611142565b73ffffffffffffffffffffffffffffffffffffffff16146119b1576040517f08c379a00000000000000000000000000000000000000000000000000000000081526004016119a890614b02565b60405180910390fd5b6119bb8686610e80565b50505050505050565b60008060116000848152602001908152602001600020604051806101000160405290816000820180546119f69061427f565b80601f0160208091040260200160405190810160405280929190818152602001828054611a229061427f565b8015611a6f5780601f10611a4457610100808354040283529160200191611a6f565b820191906000526020600020905b815481529060010190602001808311611a5257829003601f168201915b505050505081526020016001820160009054906101000a900473ffffffffffffffffffffffffffffffffffffffff1673ffffffffffffffffffffffffffffffffffffffff1673ffffffffffffffffffffffffffffffffffffffff1681526020016002820154815260200160038201548152602001600482015481526020016005820160009054906101000a900460ff161515151581526020016006820154815260200160078201548152505090506000816080015182606001516003611b359190614b22565b83604001516002611b469190614b22565b611b509190614b64565b611b5a9190614b64565b905060008260e0015142611b6e9190614b98565b90506000620151808210611ba75762093a808210611b9f5762278d008210611b97576019611b9a565b60325b611ba2565b604b5b611baa565b60645b60ff16905060648184611bbd9190614b22565b611bc79190614bfb565b945050505050919050565b6000600560008473ffffffffffffffffffffffffffffffffffffffff1673ffffffffffffffffffffffffffffffffffffffff16815260200190815260200160002060008373ffffffffffffffffffffffffffffffffffffffff1673ffffffffffffffffffffffffffffffffffffffff16815260200190815260200160002060009054906101000a900460ff16905092915050565b611c6e61267a565b600073ffffffffffffffffffffffffffffffffffffffff168173ffffffffffffffffffffffffffffffffffffffff1603611ce05760006040517f1e4fbdf7000000000000000000000000000000000000000000000000000000008152600401611cd7919061393b565b60405180910390fd5b611ce981612701565b50565b60606000600b54905080831115611d01578092505b60008167ffffffffffffffff811115611d1d57611d1c6139cc565b5b604051908082528060200260200182016040528015611d4b5781602001602082028036833780820191505090505b50905060008267ffffffffffffffff811115611d6a57611d696139cc565b5b604051908082528060200260200182016040528015611d985781602001602082028036833780820191505090505b50905060005b83811015611e015780838281518110611dba57611db9614c2c565b5b602002602001018181525050611dcf816119c4565b828281518110611de257611de1614c2c565b5b6020026020010181815250508080611df99061434b565b915050611d9e565b5060005b85811015611f7f576000600182611e1c9190614b64565b90505b84811015611f6b57828281518110611e3a57611e39614c2c565b5b6020026020010151838281518110611e5557611e54614c2c565b5b60200260200101511115611f58576000838381518110611e7857611e77614c2c565b5b60200260200101519050838281518110611e9557611e94614c2c565b5b6020026020010151848481518110611eb057611eaf614c2c565b5b60200260200101818152505080848381518110611ed057611ecf614c2c565b5b6020026020010181815250506000858481518110611ef157611ef0614c2c565b5b60200260200101519050858381518110611f0e57611f0d614c2c565b5b6020026020010151868581518110611f2957611f28614c2c565b5b60200260200101818152505080868481518110611f4957611f48614c2c565b5b60200260200101818152505050505b8080611f639061434b565b915050611e1f565b508080611f779061434b565b915050611e05565b5060008567ffffffffffffffff811115611f9c57611f9b6139cc565b5b604051908082528060200260200182016040528015611fca5781602001602082028036833780820191505090505b50905060005b8681101561202557838181518110611feb57611fea614c2c565b5b602002602001015182828151811061200657612005614c2c565b5b602002602001018181525050808061201d9061434b565b915050611fd0565b5080945050505050919050565b60007f2a55205a000000000000000000000000000000000000000000000000000000007bffffffffffffffffffffffffffffffffffffffffffffffffffffffff1916827bffffffffffffffffffffffffffffffffffffffffffffffffffffffff191614806120a557506120a482612c26565b5b9050919050565b6000806120b883612c87565b9050600073ffffffffffffffffffffffffffffffffffffffff168173ffffffffffffffffffffffffffffffffffffffff160361212b57826040517f7e2732890000000000000000000000000000000000000000000000000000000081526004016121229190613b4f565b60405180910390fd5b80915050919050565b60006004600083815260200190815260200160002060009054906101000a900473ffffffffffffffffffffffffffffffffffffffff169050919050565b600033905090565b6121868383836001612cc4565b505050565b6002600a54036121c7576040517f3ee5aeb500000000000000000000000000000000000000000000000000000000815260040160405180910390fd5b6002600a81905550565b600073ffffffffffffffffffffffffffffffffffffffff168273ffffffffffffffffffffffffffffffffffffffff16036122435760006040517f64a0ae9200000000000000000000000000000000000000000000000000000000815260040161223a919061393b565b60405180910390fd5b600061225183836000612330565b9050600073ffffffffffffffffffffffffffffffffffffffff168173ffffffffffffffffffffffffffffffffffffffff16146122c55760006040517f73c6ac6e0000000000000000000000000000000000000000000000000000000081526004016122bc919061393b565b60405180910390fd5b505050565b806006600084815260200190815260200160002090816122ea919061453f565b507ff8e1a15aba9398e019f0b49df1a4fde98ee17ae345cb5f6b5e2c27f5033e8ce78260405161231a9190613b4f565b60405180910390a15050565b6001600a81905550565b60008061233c84612c87565b9050600073ffffffffffffffffffffffffffffffffffffffff168373ffffffffffffffffffffffffffffffffffffffff161461237e5761237d818486612e89565b5b600073ffffffffffffffffffffffffffffffffffffffff168173ffffffffffffffffffffffffffffffffffffffff161461240f576123c0600085600080612cc4565b6001600360008373ffffffffffffffffffffffffffffffffffffffff1673ffffffffffffffffffffffffffffffffffffffff168152602001908152602001600020600082825403925050819055505b600073ffffffffffffffffffffffffffffffffffffffff168573ffffffffffffffffffffffffffffffffffffffff1614612492576001600360008773ffffffffffffffffffffffffffffffffffffffff1673ffffffffffffffffffffffffffffffffffffffff168152602001908152602001600020600082825401925050819055505b846002600086815260200190815260200160002060006101000a81548173ffffffffffffffffffffffffffffffffffffffff021916908373ffffffffffffffffffffffffffffffffffffffff160217905550838573ffffffffffffffffffffffffffffffffffffffff168273ffffffffffffffffffffffffffffffffffffffff167fddf252ad1be2c89b69c2b068fc378daa952ba7f163c4a11628f55a4df523b3ef60405160405180910390a4809150509392505050565b600080600060086000868152602001908152602001600020905060008160000160009054906101000a900473ffffffffffffffffffffffffffffffffffffffff16905060008260000160149054906101000a90046bffffffffffffffffffffffff169050600073ffffffffffffffffffffffffffffffffffffffff168273ffffffffffffffffffffffffffffffffffffffff160361262b57600760000160009054906101000a900473ffffffffffffffffffffffffffffffffffffffff169150600760000160149054906101000a90046bffffffffffffffffffffffff1690505b6000612635612f4d565b6bffffffffffffffffffffffff16826bffffffffffffffffffffffff168861265d9190614b22565b6126679190614bfb565b9050828195509550505050509250929050565b612682612171565b73ffffffffffffffffffffffffffffffffffffffff166126a06114ad565b73ffffffffffffffffffffffffffffffffffffffff16146126ff576126c3612171565b6040517f118cdaa70000000000000000000000000000000000000000000000000000000081526004016126f6919061393b565b60405180910390fd5b565b6000600960009054906101000a900473ffffffffffffffffffffffffffffffffffffffff16905081600960006101000a81548173ffffffffffffffffffffffffffffffffffffffff021916908373ffffffffffffffffffffffffffffffffffffffff1602179055508173ffffffffffffffffffffffffffffffffffffffff168173ffffffffffffffffffffffffffffffffffffffff167f8be0079c531659141344cd1fd0a4f28419497f9722a3daafe3b4186f6b6457e060405160405180910390a35050565b600073ffffffffffffffffffffffffffffffffffffffff168273ffffffffffffffffffffffffffffffffffffffff160361283857816040517f5b08ba1800000000000000000000000000000000000000000000000000000000815260040161282f919061393b565b60405180910390fd5b80600560008573ffffffffffffffffffffffffffffffffffffffff1673ffffffffffffffffffffffffffffffffffffffff16815260200190815260200160002060008473ffffffffffffffffffffffffffffffffffffffff1673ffffffffffffffffffffffffffffffffffffffff16815260200190815260200160002060006101000a81548160ff0219169083151502179055508173ffffffffffffffffffffffffffffffffffffffff168373ffffffffffffffffffffffffffffffffffffffff167f17307eab39ab6107e8899845ad3d59bd9653f200f220920489ca2b5937696c318360405161292991906137ca565b60405180910390a3505050565b60008373ffffffffffffffffffffffffffffffffffffffff163b1115612ae0578273ffffffffffffffffffffffffffffffffffffffff1663150b7a02868685856040518563ffffffff1660e01b81526004016129959493929190614cb0565b6020604051808303816000875af19250505080156129d157506040513d601f19601f820116820180604052508101906129ce9190614d11565b60015b612a55573d8060008114612a01576040519150601f19603f3d011682016040523d82523d6000602084013e612a06565b606091505b506000815103612a4d57836040517f64a0ae92000000000000000000000000000000000000000000000000000000008152600401612a44919061393b565b60405180910390fd5b805181602001fd5b63150b7a0260e01b7bffffffffffffffffffffffffffffffffffffffffffffffffffffffff1916817bffffffffffffffffffffffffffffffffffffffffffffffffffffffff191614612ade57836040517f64a0ae92000000000000000000000000000000000000000000000000000000008152600401612ad5919061393b565b60405180910390fd5b505b5050505050565b6060612af2826120ac565b506000600660008481526020019081526020016000208054612b139061427f565b80601f0160208091040260200160405190810160405280929190818152602001828054612b3f9061427f565b8015612b8c5780601f10612b6157610100808354040283529160200191612b8c565b820191906000526020600020905b815481529060010190602001808311612b6f57829003601f168201915b505050505090506000612b9d612f57565b90506000815103612bb2578192505050612bf5565b600082511115612be7578082604051602001612bcf929190614d3e565b60405160208183030381529060405292505050612bf5565b612bf084612f6e565b925050505b919050565b600080600080612c0a8686612fd7565b925092509250612c1a8282613033565b82935050505092915050565b6000634906490660e01b7bffffffffffffffffffffffffffffffffffffffffffffffffffffffff1916827bffffffffffffffffffffffffffffffffffffffffffffffffffffffff19161480612c805750612c7f82613197565b5b9050919050565b60006002600083815260200190815260200160002060009054906101000a900473ffffffffffffffffffffffffffffffffffffffff169050919050565b8080612cfd5750600073ffffffffffffffffffffffffffffffffffffffff168273ffffffffffffffffffffffffffffffffffffffff1614155b15612e31576000612d0d846120ac565b9050600073ffffffffffffffffffffffffffffffffffffffff168373ffffffffffffffffffffffffffffffffffffffff1614158015612d7857508273ffffffffffffffffffffffffffffffffffffffff168173ffffffffffffffffffffffffffffffffffffffff1614155b8015612d8b5750612d898184611bd2565b155b15612dcd57826040517fa9fbf51f000000000000000000000000000000000000000000000000000000008152600401612dc4919061393b565b60405180910390fd5b8115612e2f57838573ffffffffffffffffffffffffffffffffffffffff168273ffffffffffffffffffffffffffffffffffffffff167f8c5be1e5ebec7d5bd14f71427d1e84f3dd0314c0f7b2291e5b200ac8c7c3b92560405160405180910390a45b505b836004600085815260200190815260200160002060006101000a81548173ffffffffffffffffffffffffffffffffffffffff021916908373ffffffffffffffffffffffffffffffffffffffff16021790555050505050565b612e94838383613279565b612f4857600073ffffffffffffffffffffffffffffffffffffffff168373ffffffffffffffffffffffffffffffffffffffff1603612f0957806040517f7e273289000000000000000000000000000000000000000000000000000000008152600401612f009190613b4f565b60405180910390fd5b81816040517f177e802f000000000000000000000000000000000000000000000000000000008152600401612f3f929190613c3f565b60405180910390fd5b505050565b6000612710905090565b606060405180602001604052806000815250905090565b6060612f79826120ac565b506000612f84612f57565b90506000815111612fa45760405180602001604052806000815250612fcf565b80612fae8461333a565b604051602001612fbf929190614d3e565b6040516020818303038152906040525b915050919050565b6000806000604184510361301c5760008060006020870151925060408701519150606087015160001a905061300e88828585613408565b95509550955050505061302c565b60006002855160001b9250925092505b9250925092565b6000600381111561304757613046614d62565b5b82600381111561305a57613059614d62565b5b0315613193576001600381111561307457613073614d62565b5b82600381111561308757613086614d62565b5b036130be576040517ff645eedf00000000000000000000000000000000000000000000000000000000815260040160405180910390fd5b600260038111156130d2576130d1614d62565b5b8260038111156130e5576130e4614d62565b5b0361312a578060001c6040517ffce698f70000000000000000000000000000000000000000000000000000000081526004016131219190613b4f565b60405180910390fd5b60038081111561313d5761313c614d62565b5b8260038111156131505761314f614d62565b5b0361319257806040517fd78bce0c0000000000000000000000000000000000000000000000000000000081526004016131899190614daa565b60405180910390fd5b5b5050565b60007f80ac58cd000000000000000000000000000000000000000000000000000000007bffffffffffffffffffffffffffffffffffffffffffffffffffffffff1916827bffffffffffffffffffffffffffffffffffffffffffffffffffffffff1916148061326257507f5b5e139f000000000000000000000000000000000000000000000000000000007bffffffffffffffffffffffffffffffffffffffffffffffffffffffff1916827bffffffffffffffffffffffffffffffffffffffffffffffffffffffff1916145b806132725750613271826134fc565b5b9050919050565b60008073ffffffffffffffffffffffffffffffffffffffff168373ffffffffffffffffffffffffffffffffffffffff161415801561333157508273ffffffffffffffffffffffffffffffffffffffff168473ffffffffffffffffffffffffffffffffffffffff1614806132f257506132f18484611bd2565b5b8061333057508273ffffffffffffffffffffffffffffffffffffffff1661331883612134565b73ffffffffffffffffffffffffffffffffffffffff16145b5b90509392505050565b60606000600161334984613566565b01905060008167ffffffffffffffff811115613368576133676139cc565b5b6040519080825280601f01601f19166020018201604052801561339a5781602001600182028036833780820191505090505b509050600082602001820190505b6001156133fd578080600190039150507f3031323334353637383961626364656600000000000000000000000000000000600a86061a8153600a85816133f1576133f0614bcc565b5b049450600085036133a8575b819350505050919050565b60008060007f7fffffffffffffffffffffffffffffff5d576e7357a4501ddfe92f46681b20a08460001c11156134485760006003859250925092506134f2565b60006001888888886040516000815260200160405260405161346d9493929190614de1565b6020604051602081039080840390855afa15801561348f573d6000803e3d6000fd5b505050602060405103519050600073ffffffffffffffffffffffffffffffffffffffff168173ffffffffffffffffffffffffffffffffffffffff16036134e357600060016000801b935093509350506134f2565b8060008060001b935093509350505b9450945094915050565b60007f01ffc9a7000000000000000000000000000000000000000000000000000000007bffffffffffffffffffffffffffffffffffffffffffffffffffffffff1916827bffffffffffffffffffffffffffffffffffffffffffffffffffffffff1916149050919050565b600080600090507a184f03e93ff9f4daa797ed6e38ed64bf6a1f01000000000000000083106135c4577a184f03e93ff9f4daa797ed6e38ed64bf6a1f01000000000000000083816135ba576135b9614bcc565b5b0492506040810190505b6d04ee2d6d415b85acef81000000008310613601576d04ee2d6d415b85acef810000000083816135f7576135f6614bcc565b5b0492506020810190505b662386f26fc10000831061363057662386f26fc10000838161362657613625614bcc565b5b0492506010810190505b6305f5e1008310613659576305f5e100838161364f5761364e614bcc565b5b0492506008810190505b612710831061367e57612710838161367457613673614bcc565b5b0492506004810190505b606483106136a1576064838161369757613696614bcc565b5b0492506002810190505b600a83106136b0576001810190505b80915050919050565b60405180610100016040528060608152602001600073ffffffffffffffffffffffffffffffffffffffff16815260200160008152602001600081526020016000815260200160001515815260200160008152602001600081525090565b6000604051905090565b600080fd5b600080fd5b60007fffffffff0000000000000000000000000000000000000000000000000000000082169050919050565b61375f8161372a565b811461376a57600080fd5b50565b60008135905061377c81613756565b92915050565b60006020828403121561379857613797613720565b5b60006137a68482850161376d565b91505092915050565b60008115159050919050565b6137c4816137af565b82525050565b60006020820190506137df60008301846137bb565b92915050565b600081519050919050565b600082825260208201905092915050565b60005b8381101561381f578082015181840152602081019050613804565b60008484015250505050565b6000601f19601f8301169050919050565b6000613847826137e5565b61385181856137f0565b9350613861818560208601613801565b61386a8161382b565b840191505092915050565b6000602082019050818103600083015261388f818461383c565b905092915050565b6000819050919050565b6138aa81613897565b81146138b557600080fd5b50565b6000813590506138c7816138a1565b92915050565b6000602082840312156138e3576138e2613720565b5b60006138f1848285016138b8565b91505092915050565b600073ffffffffffffffffffffffffffffffffffffffff82169050919050565b6000613925826138fa565b9050919050565b6139358161391a565b82525050565b6000602082019050613950600083018461392c565b92915050565b61395f8161391a565b811461396a57600080fd5b50565b60008135905061397c81613956565b92915050565b6000806040838503121561399957613998613720565b5b60006139a78582860161396d565b92505060206139b8858286016138b8565b9150509250929050565b600080fd5b600080fd5b7f4e487b7100000000000000000000000000000000000000000000000000000000600052604160045260246000fd5b613a048261382b565b810181811067ffffffffffffffff82111715613a2357613a226139cc565b5b80604052505050565b6000613a36613716565b9050613a4282826139fb565b919050565b600067ffffffffffffffff821115613a6257613a616139cc565b5b613a6b8261382b565b9050602081019050919050565b82818337600083830152505050565b6000613a9a613a9584613a47565b613a2c565b905082815260208101848484011115613ab657613ab56139c7565b5b613ac1848285613a78565b509392505050565b600082601f830112613ade57613add6139c2565b5b8135613aee848260208601613a87565b91505092915050565b600060208284031215613b0d57613b0c613720565b5b600082013567ffffffffffffffff811115613b2b57613b2a613725565b5b613b3784828501613ac9565b91505092915050565b613b4981613897565b82525050565b6000602082019050613b646000830184613b40565b92915050565b60006bffffffffffffffffffffffff82169050919050565b613b8b81613b6a565b82525050565b6000602082019050613ba66000830184613b82565b92915050565b600080600060608486031215613bc557613bc4613720565b5b6000613bd38682870161396d565b9350506020613be48682870161396d565b9250506040613bf5868287016138b8565b9150509250925092565b60008060408385031215613c1657613c15613720565b5b6000613c24858286016138b8565b9250506020613c35858286016138b8565b9150509250929050565b6000604082019050613c54600083018561392c565b613c616020830184613b40565b9392505050565b600082825260208201905092915050565b6000613c84826137e5565b613c8e8185613c68565b9350613c9e818560208601613801565b613ca78161382b565b840191505092915050565b613cbb8161391a565b82525050565b613cca81613897565b82525050565b613cd9816137af565b82525050565b6000610100830160008301518482036000860152613cfd8282613c79565b9150506020830151613d126020860182613cb2565b506040830151613d256040860182613cc1565b506060830151613d386060860182613cc1565b506080830151613d4b6080860182613cc1565b5060a0830151613d5e60a0860182613cd0565b5060c0830151613d7160c0860182613cc1565b5060e0830151613d8460e0860182613cc1565b508091505092915050565b60006020820190508181036000830152613da98184613cdf565b905092915050565b6000610100820190508181036000830152613dcc818b61383c565b9050613ddb602083018a61392c565b613de86040830189613b40565b613df56060830188613b40565b613e026080830187613b40565b613e0f60a08301866137bb565b613e1c60c0830185613b40565b613e2960e0830184613b40565b9998505050505050505050565b60008060408385031215613e4d57613e4c613720565b5b6000613e5b858286016138b8565b925050602083013567ffffffffffffffff811115613e7c57613e7b613725565b5b613e8885828601613ac9565b9150509250929050565b600060208284031215613ea857613ea7613720565b5b6000613eb68482850161396d565b91505092915050565b613ec8816137af565b8114613ed357600080fd5b50565b600081359050613ee581613ebf565b92915050565b60008060408385031215613f0257613f01613720565b5b6000613f108582860161396d565b9250506020613f2185828601613ed6565b9150509250929050565b600067ffffffffffffffff821115613f4657613f456139cc565b5b613f4f8261382b565b9050602081019050919050565b6000613f6f613f6a84613f2b565b613a2c565b905082815260208101848484011115613f8b57613f8a6139c7565b5b613f96848285613a78565b509392505050565b600082601f830112613fb357613fb26139c2565b5b8135613fc3848260208601613f5c565b91505092915050565b60008060008060808587031215613fe657613fe5613720565b5b6000613ff48782880161396d565b94505060206140058782880161396d565b9350506040614016878288016138b8565b925050606085013567ffffffffffffffff81111561403757614036613725565b5b61404387828801613f9e565b91505092959194509250565b600080fd5b600080fd5b60008083601f84011261406f5761406e6139c2565b5b8235905067ffffffffffffffff81111561408c5761408b61404f565b5b6020830191508360018202830111156140a8576140a7614054565b5b9250929050565b600080600080606085870312156140c9576140c8613720565b5b60006140d7878288016138b8565b945050602085013567ffffffffffffffff8111156140f8576140f7613725565b5b61410487828801613ac9565b935050604085013567ffffffffffffffff81111561412557614124613725565b5b61413187828801614059565b925092505092959194509250565b6000806040838503121561415657614155613720565b5b60006141648582860161396d565b92505060206141758582860161396d565b9150509250929050565b600081519050919050565b600082825260208201905092915050565b6000819050602082019050919050565b60006141b78383613cc1565b60208301905092915050565b6000602082019050919050565b60006141db8261417f565b6141e5818561418a565b93506141f08361419b565b8060005b8381101561422157815161420888826141ab565b9750614213836141c3565b9250506001810190506141f4565b5085935050505092915050565b6000602082019050818103600083015261424881846141d0565b905092915050565b7f4e487b7100000000000000000000000000000000000000000000000000000000600052602260045260246000fd5b6000600282049050600182168061429757607f821691505b6020821081036142aa576142a9614250565b5b50919050565b7f496e76616c696420555249206c656e6774680000000000000000000000000000600082015250565b60006142e66012836137f0565b91506142f1826142b0565b602082019050919050565b60006020820190508181036000830152614315816142d9565b9050919050565b7f4e487b7100000000000000000000000000000000000000000000000000000000600052601160045260246000fd5b600061435682613897565b91507fffffffffffffffffffffffffffffffffffffffffffffffffffffffffffffffff82036143885761438761431c565b5b600182019050919050565b60008190508160005260206000209050919050565b60006020601f8301049050919050565b600082821b905092915050565b6000600883026143f57fffffffffffffffffffffffffffffffffffffffffffffffffffffffffffffffff826143b8565b6143ff86836143b8565b95508019841693508086168417925050509392505050565b6000819050919050565b600061443c61443761443284613897565b614417565b613897565b9050919050565b6000819050919050565b61445683614421565b61446a61446282614443565b8484546143c5565b825550505050565b600090565b61447f614472565b61448a81848461444d565b505050565b5b818110156144ae576144a3600082614477565b600181019050614490565b5050565b601f8211156144f3576144c481614393565b6144cd846143a8565b810160208510156144dc578190505b6144f06144e8856143a8565b83018261448f565b50505b505050565b600082821c905092915050565b6000614516600019846008026144f8565b1980831691505092915050565b600061452f8383614505565b9150826002028217905092915050565b614548826137e5565b67ffffffffffffffff811115614561576145606139cc565b5b61456b825461427f565b6145768282856144b2565b600060209050601f8311600181146145a95760008415614597578287015190505b6145a18582614523565b865550614609565b601f1984166145b786614393565b60005b828110156145df578489015182556001820191506020850194506020810190506145ba565b868310156145fc57848901516145f8601f891682614505565b8355505b6001600288020188555050505b505050505050565b6000606082019050614626600083018661392c565b6146336020830185613b40565b614640604083018461392c565b949350505050565b7f546f6b656e20646f6573206e6f74206578697374000000000000000000000000600082015250565b600061467e6014836137f0565b915061468982614648565b602082019050919050565b600060208201905081810360008301526146ad81614671565b9050919050565b7f4d656d6520646f6573206e6f7420657869737400000000000000000000000000600082015250565b60006146ea6013836137f0565b91506146f5826146b4565b602082019050919050565b60006020820190508181036000830152614719816146dd565b9050919050565b7f4f726967696e616c206d656d6520646f6573206e6f7420657869737400000000600082015250565b6000614756601c836137f0565b915061476182614720565b602082019050919050565b6000602082019050818103600083015261478581614749565b9050919050565b60006040820190506147a1600083018561392c565b81810360208301526147b3818461383c565b90509392505050565b7f4d75737420686f6c642061204d656d65204e465420746f20766f746500000000600082015250565b60006147f2601c836137f0565b91506147fd826147bc565b602082019050919050565b60006020820190508181036000830152614821816147e5565b9050919050565b7f416c726561647920766f746564206f6e2074686973206d656d65000000000000600082015250565b600061485e601a836137f0565b915061486982614828565b602082019050919050565b6000602082019050818103600083015261488d81614851565b9050919050565b7f416c7265616479206c696b65642074686973206d656d65000000000000000000600082015250565b60006148ca6017836137f0565b91506148d582614894565b602082019050919050565b600060208201905081810360008301526148f9816148bd565b9050919050565b7f4e6f74206d656d65206f776e6572000000000000000000000000000000000000600082015250565b6000614936600e836137f0565b915061494182614900565b602082019050919050565b6000602082019050818103600083015261496581614929565b9050919050565b7f52656d6978206e6f742073706f6e736f72656400000000000000000000000000600082015250565b60006149a26013836137f0565b91506149ad8261496c565b602082019050919050565b600060208201905081810360008301526149d181614995565b9050919050565b6000819050919050565b6149f36149ee82613897565b6149d8565b82525050565b600081905092915050565b6000614a0f826137e5565b614a1981856149f9565b9350614a29818560208601613801565b80840191505092915050565b60008160601b9050919050565b6000614a4d82614a35565b9050919050565b6000614a5f82614a42565b9050919050565b614a77614a728261391a565b614a54565b82525050565b6000614a8982866149e2565b602082019150614a998285614a04565b9150614aa58284614a66565b601482019150819050949350505050565b7f496e76616c6964207369676e6174757265000000000000000000000000000000600082015250565b6000614aec6011836137f0565b9150614af782614ab6565b602082019050919050565b60006020820190508181036000830152614b1b81614adf565b9050919050565b6000614b2d82613897565b9150614b3883613897565b9250828202614b4681613897565b91508282048414831517614b5d57614b5c61431c565b5b5092915050565b6000614b6f82613897565b9150614b7a83613897565b9250828201905080821115614b9257614b9161431c565b5b92915050565b6000614ba382613897565b9150614bae83613897565b9250828203905081811115614bc657614bc561431c565b5b92915050565b7f4e487b7100000000000000000000000000000000000000000000000000000000600052601260045260246000fd5b6000614c0682613897565b9150614c1183613897565b925082614c2157614c20614bcc565b5b828204905092915050565b7f4e487b7100000000000000000000000000000000000000000000000000000000600052603260045260246000fd5b600081519050919050565b600082825260208201905092915050565b6000614c8282614c5b565b614c8c8185614c66565b9350614c9c818560208601613801565b614ca58161382b565b840191505092915050565b6000608082019050614cc5600083018761392c565b614cd2602083018661392c565b614cdf6040830185613b40565b8181036060830152614cf18184614c77565b905095945050505050565b600081519050614d0b81613756565b92915050565b600060208284031215614d2757614d26613720565b5b6000614d3584828501614cfc565b91505092915050565b6000614d4a8285614a04565b9150614d568284614a04565b91508190509392505050565b7f4e487b7100000000000000000000000000000000000000000000000000000000600052602160045260246000fd5b6000819050919050565b614da481614d91565b82525050565b6000602082019050614dbf6000830184614d9b565b92915050565b600060ff82169050919050565b614ddb81614dc5565b82525050565b6000608082019050614df66000830187614d9b565b614e036020830186614dd2565b614e106040830185614d9b565b614e1d6060830184614d9b565b9594505050505056fea2646970667358221220972a27a6baa1454dbe1c258ef86bd28451e55cff83374f5dbb84ee6490c0e0c564736f6c63430008140033",
  "linkReferences": {},
  "deployedLinkReferences": {}
}