{
  "_format": "hh-sol-artifact-1",
  "contractName": "MemeForge",
  "sourceName": "contracts/MemeForge.sol",
  "abi": [
    {
      "inputs": [],
      "stateMutability": "nonpayable",
      "type": "constructor"
    },
    {
      "inputs": [
        {
          "internalType": "uint256",
          "name": "numerator",
          "type": "uint256"
        },
        {
          "internalType": "uint256",
          "name": "denominator",
          "type": "uint256"
        }
      ],
      "name": "ERC2981InvalidDefaultRoyalty",
      "type": "error"
    },
    {
      "inputs": [
        {
          "internalType": "address",
          "name": "receiver",
          "type": "address"
        }
      ],
      "name": "ERC2981InvalidDefaultRoyaltyReceiver",
      "type": "error"
    },
    {
      "inputs": [
        {
          "internalType": "uint256",
          "name": "tokenId",
          "type": "uint256"
        },
        {
          "internalType": "uint256",
          "name": "numerator",
          "type": "uint256"
        },
        {
          "internalType": "uint256",
          "name": "denominator",
          "type": "uint256"
        }
      ],
      "name": "ERC2981InvalidTokenRoyalty",
      "type": "error"
    },
    {
      "inputs": [
        {
          "internalType": "uint256",
          "name": "tokenId",
          "type": "uint256"
        },
        {
          "internalType": "address",
          "name": "receiver",
          "type": "address"
        }
      ],
      "name": "ERC2981InvalidTokenRoyaltyReceiver",
      "type": "error"
    },
    {
      "inputs": [
        {
          "internalType": "address",
          "name": "sender",
          "type": "address"
        },
        {
          "internalType": "uint256",
          "name": "tokenId",
          "type": "uint256"
        },
        {
          "internalType": "address",
          "name": "owner",
          "type": "address"
        }
      ],
      "name": "ERC721IncorrectOwner",
      "type": "error"
    },
    {
      "inputs": [
        {
          "internalType": "address",
          "name": "operator",
          "type": "address"
        },
        {
          "internalType": "uint256",
          "name": "tokenId",
          "type": "uint256"
        }
      ],
      "name": "ERC721InsufficientApproval",
      "type": "error"
    },
    {
      "inputs": [
        {
          "internalType": "address",
          "name": "approver",
          "type": "address"
        }
      ],
      "name": "ERC721InvalidApprover",
      "type": "error"
    },
    {
      "inputs": [
        {
          "internalType": "address",
          "name": "operator",
          "type": "address"
        }
      ],
      "name": "ERC721InvalidOperator",
      "type": "error"
    },
    {
      "inputs": [
        {
          "internalType": "address",
          "name": "owner",
          "type": "address"
        }
      ],
      "name": "ERC721InvalidOwner",
      "type": "error"
    },
    {
      "inputs": [
        {
          "internalType": "address",
          "name": "receiver",
          "type": "address"
        }
      ],
      "name": "ERC721InvalidReceiver",
      "type": "error"
    },
    {
      "inputs": [
        {
          "internalType": "address",
          "name": "sender",
          "type": "address"
        }
      ],
      "name": "ERC721InvalidSender",
      "type": "error"
    },
    {
      "inputs": [
        {
          "internalType": "uint256",
          "name": "tokenId",
          "type": "uint256"
        }
      ],
      "name": "ERC721NonexistentToken",
      "type": "error"
    },
    {
      "inputs": [
        {
          "internalType": "address",
          "name": "owner",
          "type": "address"
        }
      ],
      "name": "OwnableInvalidOwner",
      "type": "error"
    },
    {
      "inputs": [
        {
          "internalType": "address",
          "name": "account",
          "type": "address"
        }
      ],
      "name": "OwnableUnauthorizedAccount",
      "type": "error"
    },
    {
      "inputs": [],
      "name": "ReentrancyGuardReentrantCall",
      "type": "error"
    },
    {
      "anonymous": false,
      "inputs": [
        {
          "indexed": true,
          "internalType": "address",
          "name": "owner",
          "type": "address"
        },
        {
          "indexed": true,
          "internalType": "address",
          "name": "approved",
          "type": "address"
        },
        {
          "indexed": true,
          "internalType": "uint256",
          "name": "tokenId",
          "type": "uint256"
        }
      ],
      "name": "Approval",
      "type": "event"
    },
    {
      "anonymous": false,
      "inputs": [
        {
          "indexed": true,
          "internalType": "address",
          "name": "owner",
          "type": "address"
        },
        {
          "indexed": true,
          "internalType": "address",
          "name": "operator",
          "type": "address"
        },
        {
          "indexed": false,
          "internalType": "bool",
          "name": "approved",
          "type": "bool"
        }
      ],
      "name": "ApprovalForAll",
      "type": "event"
    },
    {
      "anonymous": false,
      "inputs": [
        {
          "indexed": false,
          "internalType": "uint256",
          "name": "_fromTokenId",
          "type": "uint256"
        },
        {
          "indexed": false,
          "internalType": "uint256",
          "name": "_toTokenId",
          "type": "uint256"
        }
      ],
      "name": "BatchMetadataUpdate",
      "type": "event"
    },
    {
      "anonymous": false,
      "inputs": [
        {
          "indexed": true,
          "internalType": "uint256",
          "name": "tokenId",
          "type": "uint256"
        },
        {
          "indexed": false,
          "internalType": "address",
          "name": "creator",
          "type": "address"
        }
      ],
      "name": "MemeCreated",
      "type": "event"
    },
    {
      "anonymous": false,
      "inputs": [
        {
          "indexed": true,
          "internalType": "uint256",
          "name": "tokenId",
          "type": "uint256"
        },
        {
          "indexed": false,
          "internalType": "address",
          "name": "liker",
          "type": "address"
        }
      ],
      "name": "MemeLiked",
      "type": "event"
    },
    {
      "anonymous": false,
      "inputs": [
        {
          "indexed": true,
          "internalType": "uint256",
          "name": "originalTokenId",
          "type": "uint256"
        },
        {
          "indexed": true,
          "internalType": "uint256",
          "name": "newTokenId",
          "type": "uint256"
        },
        {
          "indexed": false,
          "internalType": "address",
          "name": "remixer",
          "type": "address"
        },
        {
          "indexed": false,
          "internalType": "string",
          "name": "uri",
          "type": "string"
        }
      ],
      "name": "MemeRemixed",
      "type": "event"
    },
    {
      "anonymous": false,
      "inputs": [
        {
          "indexed": true,
          "internalType": "uint256",
          "name": "tokenId",
          "type": "uint256"
        },
        {
          "indexed": false,
          "internalType": "address",
          "name": "voter",
          "type": "address"
        }
      ],
      "name": "MemeVoted",
      "type": "event"
    },
    {
      "anonymous": false,
      "inputs": [
        {
          "indexed": false,
          "internalType": "uint256",
          "name": "_tokenId",
          "type": "uint256"
        }
      ],
      "name": "MetadataUpdate",
      "type": "event"
    },
    {
      "anonymous": false,
      "inputs": [
        {
          "indexed": true,
          "internalType": "address",
          "name": "previousOwner",
          "type": "address"
        },
        {
          "indexed": true,
          "internalType": "address",
          "name": "newOwner",
          "type": "address"
        }
      ],
      "name": "OwnershipTransferred",
      "type": "event"
    },
    {
      "anonymous": false,
      "inputs": [
        {
          "indexed": true,
          "internalType": "address",
          "name": "from",
          "type": "address"
        },
        {
          "indexed": true,
          "internalType": "address",
          "name": "to",
          "type": "address"
        },
        {
          "indexed": true,
          "internalType": "uint256",
          "name": "tokenId",
          "type": "uint256"
        }
      ],
      "name": "Transfer",
      "type": "event"
    },
    {
      "inputs": [],
      "name": "REMIX_ROYALTY_PERCENTAGE",
      "outputs": [
        {
          "internalType": "uint96",
          "name": "",
          "type": "uint96"
        }
      ],
      "stateMutability": "view",
      "type": "function"
    },
    {
      "inputs": [
        {
          "internalType": "address",
          "name": "to",
          "type": "address"
        },
        {
          "internalType": "uint256",
          "name": "tokenId",
          "type": "uint256"
        }
      ],
      "name": "approve",
      "outputs": [],
      "stateMutability": "nonpayable",
      "type": "function"
    },
    {
      "inputs": [
        {
          "internalType": "address",
          "name": "owner",
          "type": "address"
        }
      ],
      "name": "balanceOf",
      "outputs": [
        {
          "internalType": "uint256",
          "name": "",
          "type": "uint256"
        }
      ],
      "stateMutability": "view",
      "type": "function"
    },
    {
      "inputs": [
        {
          "internalType": "uint256",
          "name": "tokenId",
          "type": "uint256"
        }
      ],
      "name": "calculateTrendingScore",
      "outputs": [
        {
          "internalType": "uint256",
          "name": "",
          "type": "uint256"
        }
      ],
      "stateMutability": "view",
      "type": "function"
    },
    {
      "inputs": [
        {
          "internalType": "string",
          "name": "uri",
          "type": "string"
        }
      ],
      "name": "createMeme",
      "outputs": [
        {
          "internalType": "uint256",
          "name": "",
          "type": "uint256"
        }
      ],
      "stateMutability": "nonpayable",
      "type": "function"
    },
    {
      "inputs": [],
      "name": "eyeNFT",
      "outputs": [
        {
          "internalType": "contract IERC721",
          "name": "",
          "type": "address"
        }
      ],
      "stateMutability": "view",
      "type": "function"
    },
    {
      "inputs": [
        {
          "internalType": "uint256",
          "name": "tokenId",
          "type": "uint256"
        }
      ],
      "name": "getApproved",
      "outputs": [
        {
          "internalType": "address",
          "name": "",
          "type": "address"
        }
      ],
      "stateMutability": "view",
      "type": "function"
    },
    {
      "inputs": [
        {
          "internalType": "uint256",
          "name": "tokenId",
          "type": "uint256"
        }
      ],
      "name": "getMemeData",
      "outputs": [
        {
          "components": [
            {
              "internalType": "string",
              "name": "uri",
              "type": "string"
            },
            {
              "internalType": "address",
              "name": "creator",
              "type": "address"
            },
            {
              "internalType": "uint256",
              "name": "likes",
              "type": "uint256"
            },
            {
              "internalType": "uint256",
              "name": "remixes",
              "type": "uint256"
            },
            {
              "internalType": "uint256",
              "name": "votes",
              "type": "uint256"
            },
            {
              "internalType": "bool",
              "name": "isRemix",
              "type": "bool"
            },
            {
              "internalType": "uint256",
              "name": "originalMemeId",
              "type": "uint256"
            },
            {
              "internalType": "uint256",
              "name": "timestamp",
              "type": "uint256"
            }
          ],
          "internalType": "struct MemeForge.MemeData",
          "name": "",
          "type": "tuple"
        }
      ],
      "stateMutability": "view",
      "type": "function"
    },
    {
      "inputs": [
        {
          "internalType": "uint256",
          "name": "limit",
          "type": "uint256"
        }
      ],
      "name": "getTrendingMemes",
      "outputs": [
        {
          "internalType": "uint256[]",
          "name": "",
          "type": "uint256[]"
        }
      ],
      "stateMutability": "view",
      "type": "function"
    },
    {
      "inputs": [
        {
          "internalType": "address",
          "name": "",
          "type": "address"
        },
        {
          "internalType": "uint256",
          "name": "",
          "type": "uint256"
        }
      ],
      "name": "hasLiked",
      "outputs": [
        {
          "internalType": "bool",
          "name": "",
          "type": "bool"
        }
      ],
      "stateMutability": "view",
      "type": "function"
    },
    {
      "inputs": [
        {
          "internalType": "address",
          "name": "",
          "type": "address"
        },
        {
          "internalType": "uint256",
          "name": "",
          "type": "uint256"
        }
      ],
      "name": "hasVoted",
      "outputs": [
        {
          "internalType": "bool",
          "name": "",
          "type": "bool"
        }
      ],
      "stateMutability": "view",
      "type": "function"
    },
    {
      "inputs": [
        {
          "internalType": "address",
          "name": "owner",
          "type": "address"
        },
        {
          "internalType": "address",
          "name": "operator",
          "type": "address"
        }
      ],
      "name": "isApprovedForAll",
      "outputs": [
        {
          "internalType": "bool",
          "name": "",
          "type": "bool"
        }
      ],
      "stateMutability": "view",
      "type": "function"
    },
    {
      "inputs": [
        {
          "internalType": "address",
          "name": "user",
          "type": "address"
        }
      ],
      "name": "isEyeHolder",
      "outputs": [
        {
          "internalType": "bool",
          "name": "",
          "type": "bool"
        }
      ],
      "stateMutability": "view",
      "type": "function"
    },
    {
      "inputs": [
        {
          "internalType": "address",
          "name": "user",
          "type": "address"
        }
      ],
      "name": "isKeyHolder",
      "outputs": [
        {
          "internalType": "bool",
          "name": "",
          "type": "bool"
        }
      ],
      "stateMutability": "view",
      "type": "function"
    },
    {
      "inputs": [],
      "name": "keyNFT",
      "outputs": [
        {
          "internalType": "contract IERC721",
          "name": "",
          "type": "address"
        }
      ],
      "stateMutability": "view",
      "type": "function"
    },
    {
      "inputs": [
        {
          "internalType": "uint256",
          "name": "tokenId",
          "type": "uint256"
        }
      ],
      "name": "likeMeme",
      "outputs": [],
      "stateMutability": "nonpayable",
      "type": "function"
    },
    {
      "inputs": [
        {
          "internalType": "uint256",
          "name": "",
          "type": "uint256"
        }
      ],
      "name": "memes",
      "outputs": [
        {
          "internalType": "string",
          "name": "uri",
          "type": "string"
        },
        {
          "internalType": "address",
          "name": "creator",
          "type": "address"
        },
        {
          "internalType": "uint256",
          "name": "likes",
          "type": "uint256"
        },
        {
          "internalType": "uint256",
          "name": "remixes",
          "type": "uint256"
        },
        {
          "internalType": "uint256",
          "name": "votes",
          "type": "uint256"
        },
        {
          "internalType": "bool",
          "name": "isRemix",
          "type": "bool"
        },
        {
          "internalType": "uint256",
          "name": "originalMemeId",
          "type": "uint256"
        },
        {
          "internalType": "uint256",
          "name": "timestamp",
          "type": "uint256"
        }
      ],
      "stateMutability": "view",
      "type": "function"
    },
    {
      "inputs": [],
      "name": "name",
      "outputs": [
        {
          "internalType": "string",
          "name": "",
          "type": "string"
        }
      ],
      "stateMutability": "view",
      "type": "function"
    },
    {
      "inputs": [
        {
          "internalType": "uint256",
          "name": "",
          "type": "uint256"
        }
      ],
      "name": "originalCreators",
      "outputs": [
        {
          "internalType": "address",
          "name": "",
          "type": "address"
        }
      ],
      "stateMutability": "view",
      "type": "function"
    },
    {
      "inputs": [],
      "name": "owner",
      "outputs": [
        {
          "internalType": "address",
          "name": "",
          "type": "address"
        }
      ],
      "stateMutability": "view",
      "type": "function"
    },
    {
      "inputs": [
        {
          "internalType": "uint256",
          "name": "tokenId",
          "type": "uint256"
        }
      ],
      "name": "ownerOf",
      "outputs": [
        {
          "internalType": "address",
          "name": "",
          "type": "address"
        }
      ],
      "stateMutability": "view",
      "type": "function"
    },
    {
      "inputs": [
        {
          "internalType": "uint256",
          "name": "originalTokenId",
          "type": "uint256"
        },
        {
          "internalType": "string",
          "name": "newTokenURI",
          "type": "string"
        }
      ],
      "name": "remixMeme",
      "outputs": [
        {
          "internalType": "uint256",
          "name": "",
          "type": "uint256"
        }
      ],
      "stateMutability": "nonpayable",
      "type": "function"
    },
    {
      "inputs": [],
      "name": "renounceOwnership",
      "outputs": [],
      "stateMutability": "nonpayable",
      "type": "function"
    },
    {
      "inputs": [
        {
          "internalType": "uint256",
          "name": "",
          "type": "uint256"
        }
      ],
      "name": "royalties",
      "outputs": [
        {
          "internalType": "uint256",
          "name": "",
          "type": "uint256"
        }
      ],
      "stateMutability": "view",
      "type": "function"
    },
    {
      "inputs": [
        {
          "internalType": "uint256",
          "name": "tokenId",
          "type": "uint256"
        },
        {
          "internalType": "uint256",
          "name": "salePrice",
          "type": "uint256"
        }
      ],
      "name": "royaltyInfo",
      "outputs": [
        {
          "internalType": "address",
          "name": "receiver",
          "type": "address"
        },
        {
          "internalType": "uint256",
          "name": "royaltyAmount",
          "type": "uint256"
        }
      ],
      "stateMutability": "view",
      "type": "function"
    },
    {
      "inputs": [
        {
          "internalType": "address",
          "name": "from",
          "type": "address"
        },
        {
          "internalType": "address",
          "name": "to",
          "type": "address"
        },
        {
          "internalType": "uint256",
          "name": "tokenId",
          "type": "uint256"
        }
      ],
      "name": "safeTransferFrom",
      "outputs": [],
      "stateMutability": "nonpayable",
      "type": "function"
    },
    {
      "inputs": [
        {
          "internalType": "address",
          "name": "from",
          "type": "address"
        },
        {
          "internalType": "address",
          "name": "to",
          "type": "address"
        },
        {
          "internalType": "uint256",
          "name": "tokenId",
          "type": "uint256"
        },
        {
          "internalType": "bytes",
          "name": "data",
          "type": "bytes"
        }
      ],
      "name": "safeTransferFrom",
      "outputs": [],
      "stateMutability": "nonpayable",
      "type": "function"
    },
    {
      "inputs": [
        {
          "internalType": "address",
          "name": "operator",
          "type": "address"
        },
        {
          "internalType": "bool",
          "name": "approved",
          "type": "bool"
        }
      ],
      "name": "setApprovalForAll",
      "outputs": [],
      "stateMutability": "nonpayable",
      "type": "function"
    },
    {
      "inputs": [
        {
          "internalType": "address",
          "name": "_eyeNFT",
          "type": "address"
        }
      ],
      "name": "setEyeNFT",
      "outputs": [],
      "stateMutability": "nonpayable",
      "type": "function"
    },
    {
      "inputs": [
        {
          "internalType": "address",
          "name": "_keyNFT",
          "type": "address"
        }
      ],
      "name": "setKeyNFT",
      "outputs": [],
      "stateMutability": "nonpayable",
      "type": "function"
    },
    {
      "inputs": [
        {
          "internalType": "bytes4",
          "name": "interfaceId",
          "type": "bytes4"
        }
      ],
      "name": "supportsInterface",
      "outputs": [
        {
          "internalType": "bool",
          "name": "",
          "type": "bool"
        }
      ],
      "stateMutability": "view",
      "type": "function"
    },
    {
      "inputs": [],
      "name": "symbol",
      "outputs": [
        {
          "internalType": "string",
          "name": "",
          "type": "string"
        }
      ],
      "stateMutability": "view",
      "type": "function"
    },
    {
      "inputs": [
        {
          "internalType": "uint256",
          "name": "tokenId",
          "type": "uint256"
        }
      ],
      "name": "tokenURI",
      "outputs": [
        {
          "internalType": "string",
          "name": "",
          "type": "string"
        }
      ],
      "stateMutability": "view",
      "type": "function"
    },
    {
      "inputs": [
        {
          "internalType": "address",
          "name": "from",
          "type": "address"
        },
        {
          "internalType": "address",
          "name": "to",
          "type": "address"
        },
        {
          "internalType": "uint256",
          "name": "tokenId",
          "type": "uint256"
        }
      ],
      "name": "transferFrom",
      "outputs": [],
      "stateMutability": "nonpayable",
      "type": "function"
    },
    {
      "inputs": [
        {
          "internalType": "address",
          "name": "newOwner",
          "type": "address"
        }
      ],
      "name": "transferOwnership",
      "outputs": [],
      "stateMutability": "nonpayable",
      "type": "function"
    },
    {
      "inputs": [
        {
          "internalType": "uint256",
          "name": "tokenId",
          "type": "uint256"
        }
      ],
      "name": "voteMeme",
      "outputs": [],
      "stateMutability": "nonpayable",
      "type": "function"
    }
  ],
  "bytecode": "0x60806040523480156200001157600080fd5b50336040518060400160405280600981526020017f4d656d65466f72676500000000000000000000000000000000000000000000008152506040518060400160405280600481526020017f4d454d450000000000000000000000000000000000000000000000000000000081525081600090816200009091906200047a565b508060019081620000a291906200047a565b505050600073ffffffffffffffffffffffffffffffffffffffff168173ffffffffffffffffffffffffffffffffffffffff16036200011a5760006040517f1e4fbdf7000000000000000000000000000000000000000000000000000000008152600401620001119190620005a6565b60405180910390fd5b6200012b816200013a60201b60201c565b506001600a81905550620005c3565b6000600960009054906101000a900473ffffffffffffffffffffffffffffffffffffffff16905081600960006101000a81548173ffffffffffffffffffffffffffffffffffffffff021916908373ffffffffffffffffffffffffffffffffffffffff1602179055508173ffffffffffffffffffffffffffffffffffffffff168173ffffffffffffffffffffffffffffffffffffffff167f8be0079c531659141344cd1fd0a4f28419497f9722a3daafe3b4186f6b6457e060405160405180910390a35050565b600081519050919050565b7f4e487b7100000000000000000000000000000000000000000000000000000000600052604160045260246000fd5b7f4e487b7100000000000000000000000000000000000000000000000000000000600052602260045260246000fd5b600060028204905060018216806200028257607f821691505b6020821081036200029857620002976200023a565b5b50919050565b60008190508160005260206000209050919050565b60006020601f8301049050919050565b600082821b905092915050565b600060088302620003027fffffffffffffffffffffffffffffffffffffffffffffffffffffffffffffffff82620002c3565b6200030e8683620002c3565b95508019841693508086168417925050509392505050565b6000819050919050565b6000819050919050565b60006200035b620003556200034f8462000326565b62000330565b62000326565b9050919050565b6000819050919050565b62000377836200033a565b6200038f620003868262000362565b848454620002d0565b825550505050565b600090565b620003a662000397565b620003b38184846200036c565b505050565b5b81811015620003db57620003cf6000826200039c565b600181019050620003b9565b5050565b601f8211156200042a57620003f4816200029e565b620003ff84620002b3565b810160208510156200040f578190505b620004276200041e85620002b3565b830182620003b8565b50505b505050565b600082821c905092915050565b60006200044f600019846008026200042f565b1980831691505092915050565b60006200046a83836200043c565b9150826002028217905092915050565b620004858262000200565b67ffffffffffffffff811115620004a157620004a06200020b565b5b620004ad825462000269565b620004ba828285620003df565b600060209050601f831160018114620004f25760008415620004dd578287015190505b620004e985826200045c565b86555062000559565b601f19841662000502866200029e565b60005b828110156200052c5784890151825560018201915060208501945060208101905062000505565b868310156200054c578489015162000548601f8916826200043c565b8355505b6001600288020188555050505b505050505050565b600073ffffffffffffffffffffffffffffffffffffffff82169050919050565b60006200058e8262000561565b9050919050565b620005a08162000581565b82525050565b6000602082019050620005bd600083018462000595565b92915050565b61498480620005d36000396000f3fe608060405234801561001057600080fd5b506004361061021c5760003560e01c80636352211e11610125578063a22cb465116100ad578063e71324bd1161007c578063e71324bd146106c5578063e7fb6026146106e3578063e985e9c514610713578063f2fde38b14610743578063f912774c1461075f5761021c565b8063a22cb4651461062d578063b88d4fde14610649578063c87b56dd14610665578063d93d6ad0146106955761021c565b8063867d6073116100f4578063867d6073146105895780638b305930146105a55780638da5cb5b146105d557806395d89b41146105f35780639c55a70f146106115761021c565b80636352211e146104ef57806370a082311461051f578063715018a61461054f5780637f77f574146105595761021c565b8063388f6064116101a857806342842e0e1161017757806342842e0e1461043957806342a54172146104555780634c6668a31461047357806357976eff146104a35780635cadb1a7146104bf5761021c565b8063388f60641461038657806339974e04146103bd578063406ed391146103ed57806342545825146104095761021c565b80630cf8e514116101ef5780630cf8e514146102bb57806310cf740a146102eb57806323b872dd146103095780632a55205a146103255780632a7ca11f146103565761021c565b806301ffc9a71461022157806306fdde0314610251578063081812fc1461026f578063095ea7b31461029f575b600080fd5b61023b60048036038101906102369190613592565b61078f565b60405161024891906135da565b60405180910390f35b6102596107a1565b6040516102669190613685565b60405180910390f35b610289600480360381019061028491906136dd565b610833565b604051610296919061374b565b60405180910390f35b6102b960048036038101906102b49190613792565b61084f565b005b6102d560048036038101906102d09190613907565b610865565b6040516102e2919061395f565b60405180910390f35b6102f3610a56565b60405161030091906139a1565b60405180910390f35b610323600480360381019061031e91906139bc565b610a5c565b005b61033f600480360381019061033a9190613a0f565b610b5e565b60405161034d929190613a4f565b60405180910390f35b610370600480360381019061036b91906136dd565b610bed565b60405161037d9190613b9f565b60405180910390f35b6103a0600480360381019061039b91906136dd565b610dc7565b6040516103b4989796959493929190613bc1565b60405180910390f35b6103d760048036038101906103d29190613c46565b610ec4565b6040516103e4919061395f565b60405180910390f35b61040760048036038101906104029190613ca2565b611108565b005b610423600480360381019061041e9190613792565b6111c3565b60405161043091906135da565b60405180910390f35b610453600480360381019061044e91906139bc565b6111f2565b005b61045d611212565b60405161046a9190613d2e565b60405180910390f35b61048d60048036038101906104889190613792565b611238565b60405161049a91906135da565b60405180910390f35b6104bd60048036038101906104b89190613ca2565b611267565b005b6104d960048036038101906104d49190613ca2565b611322565b6040516104e691906135da565b60405180910390f35b610509600480360381019061050491906136dd565b6113c9565b604051610516919061374b565b60405180910390f35b61053960048036038101906105349190613ca2565b6113db565b604051610546919061395f565b60405180910390f35b610557611495565b005b610573600480360381019061056e91906136dd565b6114a9565b604051610580919061395f565b60405180910390f35b6105a3600480360381019061059e91906136dd565b6114c1565b005b6105bf60048036038101906105ba91906136dd565b6116b6565b6040516105cc919061374b565b60405180910390f35b6105dd6116e9565b6040516105ea919061374b565b60405180910390f35b6105fb611713565b6040516106089190613685565b60405180910390f35b61062b600480360381019061062691906136dd565b6117a5565b005b61064760048036038101906106429190613d75565b61199a565b005b610663600480360381019061065e9190613e56565b6119b0565b005b61067f600480360381019061067a91906136dd565b6119d5565b60405161068c9190613685565b60405180910390f35b6106af60048036038101906106aa9190613ca2565b6119e7565b6040516106bc91906135da565b60405180910390f35b6106cd611a8e565b6040516106da9190613d2e565b60405180910390f35b6106fd60048036038101906106f891906136dd565b611ab4565b60405161070a919061395f565b60405180910390f35b61072d60048036038101906107289190613ed9565b611cc2565b60405161073a91906135da565b60405180910390f35b61075d60048036038101906107589190613ca2565b611d56565b005b610779600480360381019061077491906136dd565b611ddc565b6040516107869190613fc8565b60405180910390f35b600061079a82612122565b9050919050565b6060600080546107b090614019565b80601f01602080910402602001604051908101604052809291908181526020018280546107dc90614019565b80156108295780601f106107fe57610100808354040283529160200191610829565b820191906000526020600020905b81548152906001019060200180831161080c57829003601f168201915b5050505050905090565b600061083e8261219c565b5061084882612224565b9050919050565b610861828261085c612261565b612269565b5050565b600061086f61227b565b600082511180156108835750610200825111155b6108c2576040517f08c379a00000000000000000000000000000000000000000000000000000000081526004016108b990614096565b60405180910390fd5b6000600b60008154809291906108d7906140e5565b9190505590506040518061010001604052808481526020013373ffffffffffffffffffffffffffffffffffffffff168152602001600081526020016000815260200160008152602001600015158152602001600081526020014281525060126000838152602001908152602001600020600082015181600001908161095c91906142cf565b5060208201518160010160006101000a81548173ffffffffffffffffffffffffffffffffffffffff021916908373ffffffffffffffffffffffffffffffffffffffff16021790555060408201518160020155606082015181600301556080820151816004015560a08201518160050160006101000a81548160ff02191690831515021790555060c0820151816006015560e08201518160070155905050610a0333826122c1565b610a0d81846123ba565b807f4d41e2dbc81b04ba842c0120c41b265fe5d53ab5f162050fd97168c6c9d7e8f133604051610a3d919061374b565b60405180910390a280915050610a51612416565b919050565b6103e881565b600073ffffffffffffffffffffffffffffffffffffffff168273ffffffffffffffffffffffffffffffffffffffff1603610ace5760006040517f64a0ae92000000000000000000000000000000000000000000000000000000008152600401610ac5919061374b565b60405180910390fd5b6000610ae28383610add612261565b612420565b90508373ffffffffffffffffffffffffffffffffffffffff168173ffffffffffffffffffffffffffffffffffffffff1614610b58578382826040517f64283d7b000000000000000000000000000000000000000000000000000000008152600401610b4f939291906143a1565b60405180910390fd5b50505050565b600080600073ffffffffffffffffffffffffffffffffffffffff16610b82856113c9565b73ffffffffffffffffffffffffffffffffffffffff1603610bd8576040517f08c379a0000000000000000000000000000000000000000000000000000000008152600401610bcf90614424565b60405180910390fd5b610be2848461263a565b915091509250929050565b610bf56134c9565b600073ffffffffffffffffffffffffffffffffffffffff16610c16836113c9565b73ffffffffffffffffffffffffffffffffffffffff1603610c6c576040517f08c379a0000000000000000000000000000000000000000000000000000000008152600401610c6390614490565b60405180910390fd5b6012600083815260200190815260200160002060405180610100016040529081600082018054610c9b90614019565b80601f0160208091040260200160405190810160405280929190818152602001828054610cc790614019565b8015610d145780601f10610ce957610100808354040283529160200191610d14565b820191906000526020600020905b815481529060010190602001808311610cf757829003601f168201915b505050505081526020016001820160009054906101000a900473ffffffffffffffffffffffffffffffffffffffff1673ffffffffffffffffffffffffffffffffffffffff1673ffffffffffffffffffffffffffffffffffffffff1681526020016002820154815260200160038201548152602001600482015481526020016005820160009054906101000a900460ff16151515158152602001600682015481526020016007820154815250509050919050565b6012602052806000526040600020600091509050806000018054610dea90614019565b80601f0160208091040260200160405190810160405280929190818152602001828054610e1690614019565b8015610e635780601f10610e3857610100808354040283529160200191610e63565b820191906000526020600020905b815481529060010190602001808311610e4657829003601f168201915b5050505050908060010160009054906101000a900473ffffffffffffffffffffffffffffffffffffffff16908060020154908060030154908060040154908060050160009054906101000a900460ff16908060060154908060070154905088565b6000610ece61227b565b600073ffffffffffffffffffffffffffffffffffffffff16610eef846113c9565b73ffffffffffffffffffffffffffffffffffffffff1603610f45576040517f08c379a0000000000000000000000000000000000000000000000000000000008152600401610f3c906144fc565b60405180910390fd5b6000600b6000815480929190610f5a906140e5565b9190505590506040518061010001604052808481526020013373ffffffffffffffffffffffffffffffffffffffff16815260200160008152602001600081526020016000815260200160011515815260200185815260200142815250601260008381526020019081526020016000206000820151816000019081610fde91906142cf565b5060208201518160010160006101000a81548173ffffffffffffffffffffffffffffffffffffffff021916908373ffffffffffffffffffffffffffffffffffffffff16021790555060408201518160020155606082015181600301556080820151816004015560a08201518160050160006101000a81548160ff02191690831515021790555060c0820151816006015560e082015181600701559050506012600085815260200190815260200160002060030160008154809291906110a2906140e5565b91905055506110b133826122c1565b6110bb81846123ba565b80847fbbb81ca785f2342ff0a5067b373a75b63ecfca3457baeffc28cfddfa901bea8933866040516110ee92919061451c565b60405180910390a380915050611102612416565b92915050565b61111061276a565b600073ffffffffffffffffffffffffffffffffffffffff168173ffffffffffffffffffffffffffffffffffffffff160361117f576040517f08c379a000000000000000000000000000000000000000000000000000000000815260040161117690614598565b60405180910390fd5b80600c60006101000a81548173ffffffffffffffffffffffffffffffffffffffff021916908373ffffffffffffffffffffffffffffffffffffffff16021790555050565b60116020528160005260406000206020528060005260406000206000915091509054906101000a900460ff1681565b61120d838383604051806020016040528060008152506119b0565b505050565b600d60009054906101000a900473ffffffffffffffffffffffffffffffffffffffff1681565b60106020528160005260406000206020528060005260406000206000915091509054906101000a900460ff1681565b61126f61276a565b600073ffffffffffffffffffffffffffffffffffffffff168173ffffffffffffffffffffffffffffffffffffffff16036112de576040517f08c379a00000000000000000000000000000000000000000000000000000000081526004016112d590614598565b60405180910390fd5b80600d60006101000a81548173ffffffffffffffffffffffffffffffffffffffff021916908373ffffffffffffffffffffffffffffffffffffffff16021790555050565b600080600d60009054906101000a900473ffffffffffffffffffffffffffffffffffffffff1673ffffffffffffffffffffffffffffffffffffffff166370a08231846040518263ffffffff1660e01b8152600401611380919061374b565b602060405180830381865afa15801561139d573d6000803e3d6000fd5b505050506040513d601f19601f820116820180604052508101906113c191906145cd565b119050919050565b60006113d48261219c565b9050919050565b60008073ffffffffffffffffffffffffffffffffffffffff168273ffffffffffffffffffffffffffffffffffffffff160361144e5760006040517f89c62b64000000000000000000000000000000000000000000000000000000008152600401611445919061374b565b60405180910390fd5b600360008373ffffffffffffffffffffffffffffffffffffffff1673ffffffffffffffffffffffffffffffffffffffff168152602001908152602001600020549050919050565b61149d61276a565b6114a760006127f1565b565b600f6020528060005260406000206000915090505481565b6114c961227b565b600073ffffffffffffffffffffffffffffffffffffffff166114ea826113c9565b73ffffffffffffffffffffffffffffffffffffffff1603611540576040517f08c379a000000000000000000000000000000000000000000000000000000000815260040161153790614490565b60405180910390fd5b601160003373ffffffffffffffffffffffffffffffffffffffff1673ffffffffffffffffffffffffffffffffffffffff168152602001908152602001600020600082815260200190815260200160002060009054906101000a900460ff16156115de576040517f08c379a00000000000000000000000000000000000000000000000000000000081526004016115d590614646565b60405180910390fd5b6001601160003373ffffffffffffffffffffffffffffffffffffffff1673ffffffffffffffffffffffffffffffffffffffff168152602001908152602001600020600083815260200190815260200160002060006101000a81548160ff02191690831515021790555060126000828152602001908152602001600020600401600081548092919061166e906140e5565b9190505550807fb04229b085477d32a307704ee25d5fa10f1459f7b7250e99dafb0ee533dd223c336040516116a3919061374b565b60405180910390a26116b3612416565b50565b600e6020528060005260406000206000915054906101000a900473ffffffffffffffffffffffffffffffffffffffff1681565b6000600960009054906101000a900473ffffffffffffffffffffffffffffffffffffffff16905090565b60606001805461172290614019565b80601f016020809104026020016040519081016040528092919081815260200182805461174e90614019565b801561179b5780601f106117705761010080835404028352916020019161179b565b820191906000526020600020905b81548152906001019060200180831161177e57829003601f168201915b5050505050905090565b6117ad61227b565b600073ffffffffffffffffffffffffffffffffffffffff166117ce826113c9565b73ffffffffffffffffffffffffffffffffffffffff1603611824576040517f08c379a000000000000000000000000000000000000000000000000000000000815260040161181b90614490565b60405180910390fd5b601060003373ffffffffffffffffffffffffffffffffffffffff1673ffffffffffffffffffffffffffffffffffffffff168152602001908152602001600020600082815260200190815260200160002060009054906101000a900460ff16156118c2576040517f08c379a00000000000000000000000000000000000000000000000000000000081526004016118b9906146b2565b60405180910390fd5b6001601060003373ffffffffffffffffffffffffffffffffffffffff1673ffffffffffffffffffffffffffffffffffffffff168152602001908152602001600020600083815260200190815260200160002060006101000a81548160ff021916908315150217905550601260008281526020019081526020016000206002016000815480929190611952906140e5565b9190505550807ff8b927cfb2e75ff098dbf5a74342eb61f3048e1361979d572d4387e58579d41133604051611987919061374b565b60405180910390a2611997612416565b50565b6119ac6119a5612261565b83836128b7565b5050565b6119bb848484610a5c565b6119cf6119c6612261565b85858585612a26565b50505050565b60606119e082612bd7565b9050919050565b600080600c60009054906101000a900473ffffffffffffffffffffffffffffffffffffffff1673ffffffffffffffffffffffffffffffffffffffff166370a08231846040518263ffffffff1660e01b8152600401611a45919061374b565b602060405180830381865afa158015611a62573d6000803e3d6000fd5b505050506040513d601f19601f82011682018060405250810190611a8691906145cd565b119050919050565b600c60009054906101000a900473ffffffffffffffffffffffffffffffffffffffff1681565b6000806012600084815260200190815260200160002060405180610100016040529081600082018054611ae690614019565b80601f0160208091040260200160405190810160405280929190818152602001828054611b1290614019565b8015611b5f5780601f10611b3457610100808354040283529160200191611b5f565b820191906000526020600020905b815481529060010190602001808311611b4257829003601f168201915b505050505081526020016001820160009054906101000a900473ffffffffffffffffffffffffffffffffffffffff1673ffffffffffffffffffffffffffffffffffffffff1673ffffffffffffffffffffffffffffffffffffffff1681526020016002820154815260200160038201548152602001600482015481526020016005820160009054906101000a900460ff161515151581526020016006820154815260200160078201548152505090506000816080015182606001516003611c2591906146d2565b83604001516002611c3691906146d2565b611c409190614714565b611c4a9190614714565b905060008260e0015142611c5e9190614748565b90506000620151808210611c975762093a808210611c8f5762278d008210611c87576019611c8a565b60325b611c92565b604b5b611c9a565b60645b60ff16905060648184611cad91906146d2565b611cb791906147ab565b945050505050919050565b6000600560008473ffffffffffffffffffffffffffffffffffffffff1673ffffffffffffffffffffffffffffffffffffffff16815260200190815260200160002060008373ffffffffffffffffffffffffffffffffffffffff1673ffffffffffffffffffffffffffffffffffffffff16815260200190815260200160002060009054906101000a900460ff16905092915050565b611d5e61276a565b600073ffffffffffffffffffffffffffffffffffffffff168173ffffffffffffffffffffffffffffffffffffffff1603611dd05760006040517f1e4fbdf7000000000000000000000000000000000000000000000000000000008152600401611dc7919061374b565b60405180910390fd5b611dd9816127f1565b50565b60606000600b54905080831115611df1578092505b60008167ffffffffffffffff811115611e0d57611e0c6137dc565b5b604051908082528060200260200182016040528015611e3b5781602001602082028036833780820191505090505b50905060008267ffffffffffffffff811115611e5a57611e596137dc565b5b604051908082528060200260200182016040528015611e885781602001602082028036833780820191505090505b50905060005b83811015611ef15780838281518110611eaa57611ea96147dc565b5b602002602001018181525050611ebf81611ab4565b828281518110611ed257611ed16147dc565b5b6020026020010181815250508080611ee9906140e5565b915050611e8e565b5060005b8581101561206f576000600182611f0c9190614714565b90505b8481101561205b57828281518110611f2a57611f296147dc565b5b6020026020010151838281518110611f4557611f446147dc565b5b60200260200101511115612048576000838381518110611f6857611f676147dc565b5b60200260200101519050838281518110611f8557611f846147dc565b5b6020026020010151848481518110611fa057611f9f6147dc565b5b60200260200101818152505080848381518110611fc057611fbf6147dc565b5b6020026020010181815250506000858481518110611fe157611fe06147dc565b5b60200260200101519050858381518110611ffe57611ffd6147dc565b5b6020026020010151868581518110612019576120186147dc565b5b60200260200101818152505080868481518110612039576120386147dc565b5b60200260200101818152505050505b8080612053906140e5565b915050611f0f565b508080612067906140e5565b915050611ef5565b5060008567ffffffffffffffff81111561208c5761208b6137dc565b5b6040519080825280602002602001820160405280156120ba5781602001602082028036833780820191505090505b50905060005b86811015612115578381815181106120db576120da6147dc565b5b60200260200101518282815181106120f6576120f56147dc565b5b602002602001018181525050808061210d906140e5565b9150506120c0565b5080945050505050919050565b60007f2a55205a000000000000000000000000000000000000000000000000000000007bffffffffffffffffffffffffffffffffffffffffffffffffffffffff1916827bffffffffffffffffffffffffffffffffffffffffffffffffffffffff19161480612195575061219482612cea565b5b9050919050565b6000806121a883612d4b565b9050600073ffffffffffffffffffffffffffffffffffffffff168173ffffffffffffffffffffffffffffffffffffffff160361221b57826040517f7e273289000000000000000000000000000000000000000000000000000000008152600401612212919061395f565b60405180910390fd5b80915050919050565b60006004600083815260200190815260200160002060009054906101000a900473ffffffffffffffffffffffffffffffffffffffff169050919050565b600033905090565b6122768383836001612d88565b505050565b6002600a54036122b7576040517f3ee5aeb500000000000000000000000000000000000000000000000000000000815260040160405180910390fd5b6002600a81905550565b600073ffffffffffffffffffffffffffffffffffffffff168273ffffffffffffffffffffffffffffffffffffffff16036123335760006040517f64a0ae9200000000000000000000000000000000000000000000000000000000815260040161232a919061374b565b60405180910390fd5b600061234183836000612420565b9050600073ffffffffffffffffffffffffffffffffffffffff168173ffffffffffffffffffffffffffffffffffffffff16146123b55760006040517f73c6ac6e0000000000000000000000000000000000000000000000000000000081526004016123ac919061374b565b60405180910390fd5b505050565b806006600084815260200190815260200160002090816123da91906142cf565b507ff8e1a15aba9398e019f0b49df1a4fde98ee17ae345cb5f6b5e2c27f5033e8ce78260405161240a919061395f565b60405180910390a15050565b6001600a81905550565b60008061242c84612d4b565b9050600073ffffffffffffffffffffffffffffffffffffffff168373ffffffffffffffffffffffffffffffffffffffff161461246e5761246d818486612f4d565b5b600073ffffffffffffffffffffffffffffffffffffffff168173ffffffffffffffffffffffffffffffffffffffff16146124ff576124b0600085600080612d88565b6001600360008373ffffffffffffffffffffffffffffffffffffffff1673ffffffffffffffffffffffffffffffffffffffff168152602001908152602001600020600082825403925050819055505b600073ffffffffffffffffffffffffffffffffffffffff168573ffffffffffffffffffffffffffffffffffffffff1614612582576001600360008773ffffffffffffffffffffffffffffffffffffffff1673ffffffffffffffffffffffffffffffffffffffff168152602001908152602001600020600082825401925050819055505b846002600086815260200190815260200160002060006101000a81548173ffffffffffffffffffffffffffffffffffffffff021916908373ffffffffffffffffffffffffffffffffffffffff160217905550838573ffffffffffffffffffffffffffffffffffffffff168273ffffffffffffffffffffffffffffffffffffffff167fddf252ad1be2c89b69c2b068fc378daa952ba7f163c4a11628f55a4df523b3ef60405160405180910390a4809150509392505050565b600080600060086000868152602001908152602001600020905060008160000160009054906101000a900473ffffffffffffffffffffffffffffffffffffffff16905060008260000160149054906101000a90046bffffffffffffffffffffffff169050600073ffffffffffffffffffffffffffffffffffffffff168273ffffffffffffffffffffffffffffffffffffffff160361271b57600760000160009054906101000a900473ffffffffffffffffffffffffffffffffffffffff169150600760000160149054906101000a90046bffffffffffffffffffffffff1690505b6000612725613011565b6bffffffffffffffffffffffff16826bffffffffffffffffffffffff168861274d91906146d2565b61275791906147ab565b9050828195509550505050509250929050565b612772612261565b73ffffffffffffffffffffffffffffffffffffffff166127906116e9565b73ffffffffffffffffffffffffffffffffffffffff16146127ef576127b3612261565b6040517f118cdaa70000000000000000000000000000000000000000000000000000000081526004016127e6919061374b565b60405180910390fd5b565b6000600960009054906101000a900473ffffffffffffffffffffffffffffffffffffffff16905081600960006101000a81548173ffffffffffffffffffffffffffffffffffffffff021916908373ffffffffffffffffffffffffffffffffffffffff1602179055508173ffffffffffffffffffffffffffffffffffffffff168173ffffffffffffffffffffffffffffffffffffffff167f8be0079c531659141344cd1fd0a4f28419497f9722a3daafe3b4186f6b6457e060405160405180910390a35050565b600073ffffffffffffffffffffffffffffffffffffffff168273ffffffffffffffffffffffffffffffffffffffff160361292857816040517f5b08ba1800000000000000000000000000000000000000000000000000000000815260040161291f919061374b565b60405180910390fd5b80600560008573ffffffffffffffffffffffffffffffffffffffff1673ffffffffffffffffffffffffffffffffffffffff16815260200190815260200160002060008473ffffffffffffffffffffffffffffffffffffffff1673ffffffffffffffffffffffffffffffffffffffff16815260200190815260200160002060006101000a81548160ff0219169083151502179055508173ffffffffffffffffffffffffffffffffffffffff168373ffffffffffffffffffffffffffffffffffffffff167f17307eab39ab6107e8899845ad3d59bd9653f200f220920489ca2b5937696c3183604051612a1991906135da565b60405180910390a3505050565b60008373ffffffffffffffffffffffffffffffffffffffff163b1115612bd0578273ffffffffffffffffffffffffffffffffffffffff1663150b7a02868685856040518563ffffffff1660e01b8152600401612a859493929190614860565b6020604051808303816000875af1925050508015612ac157506040513d601f19601f82011682018060405250810190612abe91906148c1565b60015b612b45573d8060008114612af1576040519150601f19603f3d011682016040523d82523d6000602084013e612af6565b606091505b506000815103612b3d57836040517f64a0ae92000000000000000000000000000000000000000000000000000000008152600401612b34919061374b565b60405180910390fd5b805181602001fd5b63150b7a0260e01b7bffffffffffffffffffffffffffffffffffffffffffffffffffffffff1916817bffffffffffffffffffffffffffffffffffffffffffffffffffffffff191614612bce57836040517f64a0ae92000000000000000000000000000000000000000000000000000000008152600401612bc5919061374b565b60405180910390fd5b505b5050505050565b6060612be28261219c565b506000600660008481526020019081526020016000208054612c0390614019565b80601f0160208091040260200160405190810160405280929190818152602001828054612c2f90614019565b8015612c7c5780601f10612c5157610100808354040283529160200191612c7c565b820191906000526020600020905b815481529060010190602001808311612c5f57829003601f168201915b505050505090506000612c8d61301b565b90506000815103612ca2578192505050612ce5565b600082511115612cd7578082604051602001612cbf92919061492a565b60405160208183030381529060405292505050612ce5565b612ce084613032565b925050505b919050565b6000634906490660e01b7bffffffffffffffffffffffffffffffffffffffffffffffffffffffff1916827bffffffffffffffffffffffffffffffffffffffffffffffffffffffff19161480612d445750612d438261309b565b5b9050919050565b60006002600083815260200190815260200160002060009054906101000a900473ffffffffffffffffffffffffffffffffffffffff169050919050565b8080612dc15750600073ffffffffffffffffffffffffffffffffffffffff168273ffffffffffffffffffffffffffffffffffffffff1614155b15612ef5576000612dd18461219c565b9050600073ffffffffffffffffffffffffffffffffffffffff168373ffffffffffffffffffffffffffffffffffffffff1614158015612e3c57508273ffffffffffffffffffffffffffffffffffffffff168173ffffffffffffffffffffffffffffffffffffffff1614155b8015612e4f5750612e4d8184611cc2565b155b15612e9157826040517fa9fbf51f000000000000000000000000000000000000000000000000000000008152600401612e88919061374b565b60405180910390fd5b8115612ef357838573ffffffffffffffffffffffffffffffffffffffff168273ffffffffffffffffffffffffffffffffffffffff167f8c5be1e5ebec7d5bd14f71427d1e84f3dd0314c0f7b2291e5b200ac8c7c3b92560405160405180910390a45b505b836004600085815260200190815260200160002060006101000a81548173ffffffffffffffffffffffffffffffffffffffff021916908373ffffffffffffffffffffffffffffffffffffffff16021790555050505050565b612f5883838361317d565b61300c57600073ffffffffffffffffffffffffffffffffffffffff168373ffffffffffffffffffffffffffffffffffffffff1603612fcd57806040517f7e273289000000000000000000000000000000000000000000000000000000008152600401612fc4919061395f565b60405180910390fd5b81816040517f177e802f000000000000000000000000000000000000000000000000000000008152600401613003929190613a4f565b60405180910390fd5b505050565b6000612710905090565b606060405180602001604052806000815250905090565b606061303d8261219c565b50600061304861301b565b905060008151116130685760405180602001604052806000815250613093565b806130728461323e565b60405160200161308392919061492a565b6040516020818303038152906040525b915050919050565b60007f80ac58cd000000000000000000000000000000000000000000000000000000007bffffffffffffffffffffffffffffffffffffffffffffffffffffffff1916827bffffffffffffffffffffffffffffffffffffffffffffffffffffffff1916148061316657507f5b5e139f000000000000000000000000000000000000000000000000000000007bffffffffffffffffffffffffffffffffffffffffffffffffffffffff1916827bffffffffffffffffffffffffffffffffffffffffffffffffffffffff1916145b8061317657506131758261330c565b5b9050919050565b60008073ffffffffffffffffffffffffffffffffffffffff168373ffffffffffffffffffffffffffffffffffffffff161415801561323557508273ffffffffffffffffffffffffffffffffffffffff168473ffffffffffffffffffffffffffffffffffffffff1614806131f657506131f58484611cc2565b5b8061323457508273ffffffffffffffffffffffffffffffffffffffff1661321c83612224565b73ffffffffffffffffffffffffffffffffffffffff16145b5b90509392505050565b60606000600161324d84613376565b01905060008167ffffffffffffffff81111561326c5761326b6137dc565b5b6040519080825280601f01601f19166020018201604052801561329e5781602001600182028036833780820191505090505b509050600082602001820190505b600115613301578080600190039150507f3031323334353637383961626364656600000000000000000000000000000000600a86061a8153600a85816132f5576132f461477c565b5b049450600085036132ac575b819350505050919050565b60007f01ffc9a7000000000000000000000000000000000000000000000000000000007bffffffffffffffffffffffffffffffffffffffffffffffffffffffff1916827bffffffffffffffffffffffffffffffffffffffffffffffffffffffff1916149050919050565b600080600090507a184f03e93ff9f4daa797ed6e38ed64bf6a1f01000000000000000083106133d4577a184f03e93ff9f4daa797ed6e38ed64bf6a1f01000000000000000083816133ca576133c961477c565b5b0492506040810190505b6d04ee2d6d415b85acef81000000008310613411576d04ee2d6d415b85acef810000000083816134075761340661477c565b5b0492506020810190505b662386f26fc10000831061344057662386f26fc1000083816134365761343561477c565b5b0492506010810190505b6305f5e1008310613469576305f5e100838161345f5761345e61477c565b5b0492506008810190505b612710831061348e5761271083816134845761348361477c565b5b0492506004810190505b606483106134b157606483816134a7576134a661477c565b5b0492506002810190505b600a83106134c0576001810190505b80915050919050565b60405180610100016040528060608152602001600073ffffffffffffffffffffffffffffffffffffffff16815260200160008152602001600081526020016000815260200160001515815260200160008152602001600081525090565b6000604051905090565b600080fd5b600080fd5b60007fffffffff0000000000000000000000000000000000000000000000000000000082169050919050565b61356f8161353a565b811461357a57600080fd5b50565b60008135905061358c81613566565b92915050565b6000602082840312156135a8576135a7613530565b5b60006135b68482850161357d565b91505092915050565b60008115159050919050565b6135d4816135bf565b82525050565b60006020820190506135ef60008301846135cb565b92915050565b600081519050919050565b600082825260208201905092915050565b60005b8381101561362f578082015181840152602081019050613614565b60008484015250505050565b6000601f19601f8301169050919050565b6000613657826135f5565b6136618185613600565b9350613671818560208601613611565b61367a8161363b565b840191505092915050565b6000602082019050818103600083015261369f818461364c565b905092915050565b6000819050919050565b6136ba816136a7565b81146136c557600080fd5b50565b6000813590506136d7816136b1565b92915050565b6000602082840312156136f3576136f2613530565b5b6000613701848285016136c8565b91505092915050565b600073ffffffffffffffffffffffffffffffffffffffff82169050919050565b60006137358261370a565b9050919050565b6137458161372a565b82525050565b6000602082019050613760600083018461373c565b92915050565b61376f8161372a565b811461377a57600080fd5b50565b60008135905061378c81613766565b92915050565b600080604083850312156137a9576137a8613530565b5b60006137b78582860161377d565b92505060206137c8858286016136c8565b9150509250929050565b600080fd5b600080fd5b7f4e487b7100000000000000000000000000000000000000000000000000000000600052604160045260246000fd5b6138148261363b565b810181811067ffffffffffffffff82111715613833576138326137dc565b5b80604052505050565b6000613846613526565b9050613852828261380b565b919050565b600067ffffffffffffffff821115613872576138716137dc565b5b61387b8261363b565b9050602081019050919050565b82818337600083830152505050565b60006138aa6138a584613857565b61383c565b9050828152602081018484840111156138c6576138c56137d7565b5b6138d1848285613888565b509392505050565b600082601f8301126138ee576138ed6137d2565b5b81356138fe848260208601613897565b91505092915050565b60006020828403121561391d5761391c613530565b5b600082013567ffffffffffffffff81111561393b5761393a613535565b5b613947848285016138d9565b91505092915050565b613959816136a7565b82525050565b60006020820190506139746000830184613950565b92915050565b60006bffffffffffffffffffffffff82169050919050565b61399b8161397a565b82525050565b60006020820190506139b66000830184613992565b92915050565b6000806000606084860312156139d5576139d4613530565b5b60006139e38682870161377d565b93505060206139f48682870161377d565b9250506040613a05868287016136c8565b9150509250925092565b60008060408385031215613a2657613a25613530565b5b6000613a34858286016136c8565b9250506020613a45858286016136c8565b9150509250929050565b6000604082019050613a64600083018561373c565b613a716020830184613950565b9392505050565b600082825260208201905092915050565b6000613a94826135f5565b613a9e8185613a78565b9350613aae818560208601613611565b613ab78161363b565b840191505092915050565b613acb8161372a565b82525050565b613ada816136a7565b82525050565b613ae9816135bf565b82525050565b6000610100830160008301518482036000860152613b0d8282613a89565b9150506020830151613b226020860182613ac2565b506040830151613b356040860182613ad1565b506060830151613b486060860182613ad1565b506080830151613b5b6080860182613ad1565b5060a0830151613b6e60a0860182613ae0565b5060c0830151613b8160c0860182613ad1565b5060e0830151613b9460e0860182613ad1565b508091505092915050565b60006020820190508181036000830152613bb98184613aef565b905092915050565b6000610100820190508181036000830152613bdc818b61364c565b9050613beb602083018a61373c565b613bf86040830189613950565b613c056060830188613950565b613c126080830187613950565b613c1f60a08301866135cb565b613c2c60c0830185613950565b613c3960e0830184613950565b9998505050505050505050565b60008060408385031215613c5d57613c5c613530565b5b6000613c6b858286016136c8565b925050602083013567ffffffffffffffff811115613c8c57613c8b613535565b5b613c98858286016138d9565b9150509250929050565b600060208284031215613cb857613cb7613530565b5b6000613cc68482850161377d565b91505092915050565b6000819050919050565b6000613cf4613cef613cea8461370a565b613ccf565b61370a565b9050919050565b6000613d0682613cd9565b9050919050565b6000613d1882613cfb565b9050919050565b613d2881613d0d565b82525050565b6000602082019050613d436000830184613d1f565b92915050565b613d52816135bf565b8114613d5d57600080fd5b50565b600081359050613d6f81613d49565b92915050565b60008060408385031215613d8c57613d8b613530565b5b6000613d9a8582860161377d565b9250506020613dab85828601613d60565b9150509250929050565b600067ffffffffffffffff821115613dd057613dcf6137dc565b5b613dd98261363b565b9050602081019050919050565b6000613df9613df484613db5565b61383c565b905082815260208101848484011115613e1557613e146137d7565b5b613e20848285613888565b509392505050565b600082601f830112613e3d57613e3c6137d2565b5b8135613e4d848260208601613de6565b91505092915050565b60008060008060808587031215613e7057613e6f613530565b5b6000613e7e8782880161377d565b9450506020613e8f8782880161377d565b9350506040613ea0878288016136c8565b925050606085013567ffffffffffffffff811115613ec157613ec0613535565b5b613ecd87828801613e28565b91505092959194509250565b60008060408385031215613ef057613eef613530565b5b6000613efe8582860161377d565b9250506020613f0f8582860161377d565b9150509250929050565b600081519050919050565b600082825260208201905092915050565b6000819050602082019050919050565b6000613f518383613ad1565b60208301905092915050565b6000602082019050919050565b6000613f7582613f19565b613f7f8185613f24565b9350613f8a83613f35565b8060005b83811015613fbb578151613fa28882613f45565b9750613fad83613f5d565b925050600181019050613f8e565b5085935050505092915050565b60006020820190508181036000830152613fe28184613f6a565b905092915050565b7f4e487b7100000000000000000000000000000000000000000000000000000000600052602260045260246000fd5b6000600282049050600182168061403157607f821691505b60208210810361404457614043613fea565b5b50919050565b7f496e76616c696420555249206c656e6774680000000000000000000000000000600082015250565b6000614080601283613600565b915061408b8261404a565b602082019050919050565b600060208201905081810360008301526140af81614073565b9050919050565b7f4e487b7100000000000000000000000000000000000000000000000000000000600052601160045260246000fd5b60006140f0826136a7565b91507fffffffffffffffffffffffffffffffffffffffffffffffffffffffffffffffff8203614122576141216140b6565b5b600182019050919050565b60008190508160005260206000209050919050565b60006020601f8301049050919050565b600082821b905092915050565b60006008830261418f7fffffffffffffffffffffffffffffffffffffffffffffffffffffffffffffffff82614152565b6141998683614152565b95508019841693508086168417925050509392505050565b60006141cc6141c76141c2846136a7565b613ccf565b6136a7565b9050919050565b6000819050919050565b6141e6836141b1565b6141fa6141f2826141d3565b84845461415f565b825550505050565b600090565b61420f614202565b61421a8184846141dd565b505050565b5b8181101561423e57614233600082614207565b600181019050614220565b5050565b601f821115614283576142548161412d565b61425d84614142565b8101602085101561426c578190505b61428061427885614142565b83018261421f565b50505b505050565b600082821c905092915050565b60006142a660001984600802614288565b1980831691505092915050565b60006142bf8383614295565b9150826002028217905092915050565b6142d8826135f5565b67ffffffffffffffff8111156142f1576142f06137dc565b5b6142fb8254614019565b614306828285614242565b600060209050601f8311600181146143395760008415614327578287015190505b61433185826142b3565b865550614399565b601f1984166143478661412d565b60005b8281101561436f5784890151825560018201915060208501945060208101905061434a565b8683101561438c5784890151614388601f891682614295565b8355505b6001600288020188555050505b505050505050565b60006060820190506143b6600083018661373c565b6143c36020830185613950565b6143d0604083018461373c565b949350505050565b7f546f6b656e20646f6573206e6f74206578697374000000000000000000000000600082015250565b600061440e601483613600565b9150614419826143d8565b602082019050919050565b6000602082019050818103600083015261443d81614401565b9050919050565b7f4d656d6520646f6573206e6f7420657869737400000000000000000000000000600082015250565b600061447a601383613600565b915061448582614444565b602082019050919050565b600060208201905081810360008301526144a98161446d565b9050919050565b7f4f726967696e616c206d656d6520646f6573206e6f7420657869737400000000600082015250565b60006144e6601c83613600565b91506144f1826144b0565b602082019050919050565b60006020820190508181036000830152614515816144d9565b9050919050565b6000604082019050614531600083018561373c565b8181036020830152614543818461364c565b90509392505050565b7f496e76616c696420616464726573730000000000000000000000000000000000600082015250565b6000614582600f83613600565b915061458d8261454c565b602082019050919050565b600060208201905081810360008301526145b181614575565b9050919050565b6000815190506145c7816136b1565b92915050565b6000602082840312156145e3576145e2613530565b5b60006145f1848285016145b8565b91505092915050565b7f416c726561647920766f746564206f6e2074686973206d656d65000000000000600082015250565b6000614630601a83613600565b915061463b826145fa565b602082019050919050565b6000602082019050818103600083015261465f81614623565b9050919050565b7f416c7265616479206c696b65642074686973206d656d65000000000000000000600082015250565b600061469c601783613600565b91506146a782614666565b602082019050919050565b600060208201905081810360008301526146cb8161468f565b9050919050565b60006146dd826136a7565b91506146e8836136a7565b92508282026146f6816136a7565b9150828204841483151761470d5761470c6140b6565b5b5092915050565b600061471f826136a7565b915061472a836136a7565b9250828201905080821115614742576147416140b6565b5b92915050565b6000614753826136a7565b915061475e836136a7565b9250828203905081811115614776576147756140b6565b5b92915050565b7f4e487b7100000000000000000000000000000000000000000000000000000000600052601260045260246000fd5b60006147b6826136a7565b91506147c1836136a7565b9250826147d1576147d061477c565b5b828204905092915050565b7f4e487b7100000000000000000000000000000000000000000000000000000000600052603260045260246000fd5b600081519050919050565b600082825260208201905092915050565b60006148328261480b565b61483c8185614816565b935061484c818560208601613611565b6148558161363b565b840191505092915050565b6000608082019050614875600083018761373c565b614882602083018661373c565b61488f6040830185613950565b81810360608301526148a18184614827565b905095945050505050565b6000815190506148bb81613566565b92915050565b6000602082840312156148d7576148d6613530565b5b60006148e5848285016148ac565b91505092915050565b600081905092915050565b6000614904826135f5565b61490e81856148ee565b935061491e818560208601613611565b80840191505092915050565b600061493682856148f9565b915061494282846148f9565b9150819050939250505056fea2646970667358221220b8ab73aad3bb248dd911409ea680043c87ca86ca5b0b1052e8ec7db33a1a136964736f6c63430008140033",
  "linkReferences": {},
  "deployedLinkReferences": {}
}