{
  "_format": "hh-sol-artifact-1",
  "contractName": "MemeForge",
  "sourceName": "contracts/MemeForge.sol",
  "abi": [
    {
      "inputs": [],
      "stateMutability": "nonpayable",
      "type": "constructor"
    },
    {
      "inputs": [
        {
          "internalType": "uint256",
          "name": "numerator",
          "type": "uint256"
        },
        {
          "internalType": "uint256",
          "name": "denominator",
          "type": "uint256"
        }
      ],
      "name": "ERC2981InvalidDefaultRoyalty",
      "type": "error"
    },
    {
      "inputs": [
        {
          "internalType": "address",
          "name": "receiver",
          "type": "address"
        }
      ],
      "name": "ERC2981InvalidDefaultRoyaltyReceiver",
      "type": "error"
    },
    {
      "inputs": [
        {
          "internalType": "uint256",
          "name": "tokenId",
          "type": "uint256"
        },
        {
          "internalType": "uint256",
          "name": "numerator",
          "type": "uint256"
        },
        {
          "internalType": "uint256",
          "name": "denominator",
          "type": "uint256"
        }
      ],
      "name": "ERC2981InvalidTokenRoyalty",
      "type": "error"
    },
    {
      "inputs": [
        {
          "internalType": "uint256",
          "name": "tokenId",
          "type": "uint256"
        },
        {
          "internalType": "address",
          "name": "receiver",
          "type": "address"
        }
      ],
      "name": "ERC2981InvalidTokenRoyaltyReceiver",
      "type": "error"
    },
    {
      "inputs": [
        {
          "internalType": "address",
          "name": "sender",
          "type": "address"
        },
        {
          "internalType": "uint256",
          "name": "tokenId",
          "type": "uint256"
        },
        {
          "internalType": "address",
          "name": "owner",
          "type": "address"
        }
      ],
      "name": "ERC721IncorrectOwner",
      "type": "error"
    },
    {
      "inputs": [
        {
          "internalType": "address",
          "name": "operator",
          "type": "address"
        },
        {
          "internalType": "uint256",
          "name": "tokenId",
          "type": "uint256"
        }
      ],
      "name": "ERC721InsufficientApproval",
      "type": "error"
    },
    {
      "inputs": [
        {
          "internalType": "address",
          "name": "approver",
          "type": "address"
        }
      ],
      "name": "ERC721InvalidApprover",
      "type": "error"
    },
    {
      "inputs": [
        {
          "internalType": "address",
          "name": "operator",
          "type": "address"
        }
      ],
      "name": "ERC721InvalidOperator",
      "type": "error"
    },
    {
      "inputs": [
        {
          "internalType": "address",
          "name": "owner",
          "type": "address"
        }
      ],
      "name": "ERC721InvalidOwner",
      "type": "error"
    },
    {
      "inputs": [
        {
          "internalType": "address",
          "name": "receiver",
          "type": "address"
        }
      ],
      "name": "ERC721InvalidReceiver",
      "type": "error"
    },
    {
      "inputs": [
        {
          "internalType": "address",
          "name": "sender",
          "type": "address"
        }
      ],
      "name": "ERC721InvalidSender",
      "type": "error"
    },
    {
      "inputs": [
        {
          "internalType": "uint256",
          "name": "tokenId",
          "type": "uint256"
        }
      ],
      "name": "ERC721NonexistentToken",
      "type": "error"
    },
    {
      "inputs": [
        {
          "internalType": "address",
          "name": "owner",
          "type": "address"
        }
      ],
      "name": "OwnableInvalidOwner",
      "type": "error"
    },
    {
      "inputs": [
        {
          "internalType": "address",
          "name": "account",
          "type": "address"
        }
      ],
      "name": "OwnableUnauthorizedAccount",
      "type": "error"
    },
    {
      "inputs": [],
      "name": "ReentrancyGuardReentrantCall",
      "type": "error"
    },
    {
      "anonymous": false,
      "inputs": [
        {
          "indexed": true,
          "internalType": "address",
          "name": "owner",
          "type": "address"
        },
        {
          "indexed": true,
          "internalType": "address",
          "name": "approved",
          "type": "address"
        },
        {
          "indexed": true,
          "internalType": "uint256",
          "name": "tokenId",
          "type": "uint256"
        }
      ],
      "name": "Approval",
      "type": "event"
    },
    {
      "anonymous": false,
      "inputs": [
        {
          "indexed": true,
          "internalType": "address",
          "name": "owner",
          "type": "address"
        },
        {
          "indexed": true,
          "internalType": "address",
          "name": "operator",
          "type": "address"
        },
        {
          "indexed": false,
          "internalType": "bool",
          "name": "approved",
          "type": "bool"
        }
      ],
      "name": "ApprovalForAll",
      "type": "event"
    },
    {
      "anonymous": false,
      "inputs": [
        {
          "indexed": false,
          "internalType": "uint256",
          "name": "_fromTokenId",
          "type": "uint256"
        },
        {
          "indexed": false,
          "internalType": "uint256",
          "name": "_toTokenId",
          "type": "uint256"
        }
      ],
      "name": "BatchMetadataUpdate",
      "type": "event"
    },
    {
      "anonymous": false,
      "inputs": [
        {
          "indexed": true,
          "internalType": "uint256",
          "name": "tokenId",
          "type": "uint256"
        },
        {
          "indexed": false,
          "internalType": "address",
          "name": "creator",
          "type": "address"
        }
      ],
      "name": "MemeCreated",
      "type": "event"
    },
    {
      "anonymous": false,
      "inputs": [
        {
          "indexed": true,
          "internalType": "uint256",
          "name": "tokenId",
          "type": "uint256"
        },
        {
          "indexed": false,
          "internalType": "address",
          "name": "liker",
          "type": "address"
        }
      ],
      "name": "MemeLiked",
      "type": "event"
    },
    {
      "anonymous": false,
      "inputs": [
        {
          "indexed": true,
          "internalType": "uint256",
          "name": "originalTokenId",
          "type": "uint256"
        },
        {
          "indexed": true,
          "internalType": "uint256",
          "name": "newTokenId",
          "type": "uint256"
        },
        {
          "indexed": false,
          "internalType": "address",
          "name": "remixer",
          "type": "address"
        },
        {
          "indexed": false,
          "internalType": "string",
          "name": "uri",
          "type": "string"
        }
      ],
      "name": "MemeRemixed",
      "type": "event"
    },
    {
      "anonymous": false,
      "inputs": [
        {
          "indexed": true,
          "internalType": "uint256",
          "name": "tokenId",
          "type": "uint256"
        },
        {
          "indexed": false,
          "internalType": "address",
          "name": "voter",
          "type": "address"
        }
      ],
      "name": "MemeVoted",
      "type": "event"
    },
    {
      "anonymous": false,
      "inputs": [
        {
          "indexed": false,
          "internalType": "uint256",
          "name": "_tokenId",
          "type": "uint256"
        }
      ],
      "name": "MetadataUpdate",
      "type": "event"
    },
    {
      "anonymous": false,
      "inputs": [
        {
          "indexed": true,
          "internalType": "address",
          "name": "previousOwner",
          "type": "address"
        },
        {
          "indexed": true,
          "internalType": "address",
          "name": "newOwner",
          "type": "address"
        }
      ],
      "name": "OwnershipTransferred",
      "type": "event"
    },
    {
      "anonymous": false,
      "inputs": [
        {
          "indexed": true,
          "internalType": "address",
          "name": "from",
          "type": "address"
        },
        {
          "indexed": true,
          "internalType": "address",
          "name": "to",
          "type": "address"
        },
        {
          "indexed": true,
          "internalType": "uint256",
          "name": "tokenId",
          "type": "uint256"
        }
      ],
      "name": "Transfer",
      "type": "event"
    },
    {
      "inputs": [],
      "name": "REMIX_ROYALTY_PERCENTAGE",
      "outputs": [
        {
          "internalType": "uint96",
          "name": "",
          "type": "uint96"
        }
      ],
      "stateMutability": "view",
      "type": "function"
    },
    {
      "inputs": [
        {
          "internalType": "address",
          "name": "to",
          "type": "address"
        },
        {
          "internalType": "uint256",
          "name": "tokenId",
          "type": "uint256"
        }
      ],
      "name": "approve",
      "outputs": [],
      "stateMutability": "nonpayable",
      "type": "function"
    },
    {
      "inputs": [
        {
          "internalType": "address",
          "name": "owner",
          "type": "address"
        }
      ],
      "name": "balanceOf",
      "outputs": [
        {
          "internalType": "uint256",
          "name": "",
          "type": "uint256"
        }
      ],
      "stateMutability": "view",
      "type": "function"
    },
    {
      "inputs": [
        {
          "internalType": "uint256",
          "name": "tokenId",
          "type": "uint256"
        }
      ],
      "name": "calculateTrendingScore",
      "outputs": [
        {
          "internalType": "uint256",
          "name": "",
          "type": "uint256"
        }
      ],
      "stateMutability": "view",
      "type": "function"
    },
    {
      "inputs": [
        {
          "internalType": "string",
          "name": "uri",
          "type": "string"
        }
      ],
      "name": "createMeme",
      "outputs": [
        {
          "internalType": "uint256",
          "name": "",
          "type": "uint256"
        }
      ],
      "stateMutability": "nonpayable",
      "type": "function"
    },
    {
      "inputs": [],
      "name": "eyeNFT",
      "outputs": [
        {
          "internalType": "contract IERC721",
          "name": "",
          "type": "address"
        }
      ],
      "stateMutability": "view",
      "type": "function"
    },
    {
      "inputs": [
        {
          "internalType": "uint256",
          "name": "tokenId",
          "type": "uint256"
        }
      ],
      "name": "getApproved",
      "outputs": [
        {
          "internalType": "address",
          "name": "",
          "type": "address"
        }
      ],
      "stateMutability": "view",
      "type": "function"
    },
    {
      "inputs": [
        {
          "internalType": "uint256",
          "name": "tokenId",
          "type": "uint256"
        }
      ],
      "name": "getMemeData",
      "outputs": [
        {
          "components": [
            {
              "internalType": "string",
              "name": "uri",
              "type": "string"
            },
            {
              "internalType": "address",
              "name": "creator",
              "type": "address"
            },
            {
              "internalType": "uint256",
              "name": "likes",
              "type": "uint256"
            },
            {
              "internalType": "uint256",
              "name": "remixes",
              "type": "uint256"
            },
            {
              "internalType": "uint256",
              "name": "votes",
              "type": "uint256"
            },
            {
              "internalType": "bool",
              "name": "isRemix",
              "type": "bool"
            },
            {
              "internalType": "uint256",
              "name": "originalMemeId",
              "type": "uint256"
            },
            {
              "internalType": "uint256",
              "name": "timestamp",
              "type": "uint256"
            }
          ],
          "internalType": "struct MemeForge.MemeData",
          "name": "",
          "type": "tuple"
        }
      ],
      "stateMutability": "view",
      "type": "function"
    },
    {
      "inputs": [],
      "name": "getNextTokenId",
      "outputs": [
        {
          "internalType": "uint256",
          "name": "",
          "type": "uint256"
        }
      ],
      "stateMutability": "view",
      "type": "function"
    },
    {
      "inputs": [
        {
          "internalType": "uint256",
          "name": "limit",
          "type": "uint256"
        }
      ],
      "name": "getTrendingMemes",
      "outputs": [
        {
          "internalType": "uint256[]",
          "name": "",
          "type": "uint256[]"
        }
      ],
      "stateMutability": "view",
      "type": "function"
    },
    {
      "inputs": [
        {
          "internalType": "address",
          "name": "",
          "type": "address"
        },
        {
          "internalType": "uint256",
          "name": "",
          "type": "uint256"
        }
      ],
      "name": "hasLiked",
      "outputs": [
        {
          "internalType": "bool",
          "name": "",
          "type": "bool"
        }
      ],
      "stateMutability": "view",
      "type": "function"
    },
    {
      "inputs": [
        {
          "internalType": "address",
          "name": "",
          "type": "address"
        },
        {
          "internalType": "uint256",
          "name": "",
          "type": "uint256"
        }
      ],
      "name": "hasVoted",
      "outputs": [
        {
          "internalType": "bool",
          "name": "",
          "type": "bool"
        }
      ],
      "stateMutability": "view",
      "type": "function"
    },
    {
      "inputs": [
        {
          "internalType": "address",
          "name": "owner",
          "type": "address"
        },
        {
          "internalType": "address",
          "name": "operator",
          "type": "address"
        }
      ],
      "name": "isApprovedForAll",
      "outputs": [
        {
          "internalType": "bool",
          "name": "",
          "type": "bool"
        }
      ],
      "stateMutability": "view",
      "type": "function"
    },
    {
      "inputs": [
        {
          "internalType": "address",
          "name": "user",
          "type": "address"
        }
      ],
      "name": "isEyeHolder",
      "outputs": [
        {
          "internalType": "bool",
          "name": "",
          "type": "bool"
        }
      ],
      "stateMutability": "view",
      "type": "function"
    },
    {
      "inputs": [
        {
          "internalType": "address",
          "name": "user",
          "type": "address"
        }
      ],
      "name": "isKeyHolder",
      "outputs": [
        {
          "internalType": "bool",
          "name": "",
          "type": "bool"
        }
      ],
      "stateMutability": "view",
      "type": "function"
    },
    {
      "inputs": [],
      "name": "keyNFT",
      "outputs": [
        {
          "internalType": "contract IERC721",
          "name": "",
          "type": "address"
        }
      ],
      "stateMutability": "view",
      "type": "function"
    },
    {
      "inputs": [
        {
          "internalType": "uint256",
          "name": "tokenId",
          "type": "uint256"
        }
      ],
      "name": "likeMeme",
      "outputs": [],
      "stateMutability": "nonpayable",
      "type": "function"
    },
    {
      "inputs": [
        {
          "internalType": "uint256",
          "name": "",
          "type": "uint256"
        }
      ],
      "name": "memes",
      "outputs": [
        {
          "internalType": "string",
          "name": "uri",
          "type": "string"
        },
        {
          "internalType": "address",
          "name": "creator",
          "type": "address"
        },
        {
          "internalType": "uint256",
          "name": "likes",
          "type": "uint256"
        },
        {
          "internalType": "uint256",
          "name": "remixes",
          "type": "uint256"
        },
        {
          "internalType": "uint256",
          "name": "votes",
          "type": "uint256"
        },
        {
          "internalType": "bool",
          "name": "isRemix",
          "type": "bool"
        },
        {
          "internalType": "uint256",
          "name": "originalMemeId",
          "type": "uint256"
        },
        {
          "internalType": "uint256",
          "name": "timestamp",
          "type": "uint256"
        }
      ],
      "stateMutability": "view",
      "type": "function"
    },
    {
      "inputs": [],
      "name": "name",
      "outputs": [
        {
          "internalType": "string",
          "name": "",
          "type": "string"
        }
      ],
      "stateMutability": "view",
      "type": "function"
    },
    {
      "inputs": [
        {
          "internalType": "uint256",
          "name": "",
          "type": "uint256"
        }
      ],
      "name": "originalCreators",
      "outputs": [
        {
          "internalType": "address",
          "name": "",
          "type": "address"
        }
      ],
      "stateMutability": "view",
      "type": "function"
    },
    {
      "inputs": [],
      "name": "owner",
      "outputs": [
        {
          "internalType": "address",
          "name": "",
          "type": "address"
        }
      ],
      "stateMutability": "view",
      "type": "function"
    },
    {
      "inputs": [
        {
          "internalType": "uint256",
          "name": "tokenId",
          "type": "uint256"
        }
      ],
      "name": "ownerOf",
      "outputs": [
        {
          "internalType": "address",
          "name": "",
          "type": "address"
        }
      ],
      "stateMutability": "view",
      "type": "function"
    },
    {
      "inputs": [
        {
          "internalType": "uint256",
          "name": "originalTokenId",
          "type": "uint256"
        },
        {
          "internalType": "string",
          "name": "newTokenURI",
          "type": "string"
        }
      ],
      "name": "remixMeme",
      "outputs": [
        {
          "internalType": "uint256",
          "name": "",
          "type": "uint256"
        }
      ],
      "stateMutability": "nonpayable",
      "type": "function"
    },
    {
      "inputs": [],
      "name": "renounceOwnership",
      "outputs": [],
      "stateMutability": "nonpayable",
      "type": "function"
    },
    {
      "inputs": [
        {
          "internalType": "uint256",
          "name": "",
          "type": "uint256"
        }
      ],
      "name": "royalties",
      "outputs": [
        {
          "internalType": "uint256",
          "name": "",
          "type": "uint256"
        }
      ],
      "stateMutability": "view",
      "type": "function"
    },
    {
      "inputs": [
        {
          "internalType": "uint256",
          "name": "tokenId",
          "type": "uint256"
        },
        {
          "internalType": "uint256",
          "name": "salePrice",
          "type": "uint256"
        }
      ],
      "name": "royaltyInfo",
      "outputs": [
        {
          "internalType": "address",
          "name": "receiver",
          "type": "address"
        },
        {
          "internalType": "uint256",
          "name": "royaltyAmount",
          "type": "uint256"
        }
      ],
      "stateMutability": "view",
      "type": "function"
    },
    {
      "inputs": [
        {
          "internalType": "address",
          "name": "from",
          "type": "address"
        },
        {
          "internalType": "address",
          "name": "to",
          "type": "address"
        },
        {
          "internalType": "uint256",
          "name": "tokenId",
          "type": "uint256"
        }
      ],
      "name": "safeTransferFrom",
      "outputs": [],
      "stateMutability": "nonpayable",
      "type": "function"
    },
    {
      "inputs": [
        {
          "internalType": "address",
          "name": "from",
          "type": "address"
        },
        {
          "internalType": "address",
          "name": "to",
          "type": "address"
        },
        {
          "internalType": "uint256",
          "name": "tokenId",
          "type": "uint256"
        },
        {
          "internalType": "bytes",
          "name": "data",
          "type": "bytes"
        }
      ],
      "name": "safeTransferFrom",
      "outputs": [],
      "stateMutability": "nonpayable",
      "type": "function"
    },
    {
      "inputs": [
        {
          "internalType": "address",
          "name": "operator",
          "type": "address"
        },
        {
          "internalType": "bool",
          "name": "approved",
          "type": "bool"
        }
      ],
      "name": "setApprovalForAll",
      "outputs": [],
      "stateMutability": "nonpayable",
      "type": "function"
    },
    {
      "inputs": [
        {
          "internalType": "address",
          "name": "_eyeNFT",
          "type": "address"
        }
      ],
      "name": "setEyeNFT",
      "outputs": [],
      "stateMutability": "nonpayable",
      "type": "function"
    },
    {
      "inputs": [
        {
          "internalType": "address",
          "name": "_keyNFT",
          "type": "address"
        }
      ],
      "name": "setKeyNFT",
      "outputs": [],
      "stateMutability": "nonpayable",
      "type": "function"
    },
    {
      "inputs": [
        {
          "internalType": "bytes4",
          "name": "interfaceId",
          "type": "bytes4"
        }
      ],
      "name": "supportsInterface",
      "outputs": [
        {
          "internalType": "bool",
          "name": "",
          "type": "bool"
        }
      ],
      "stateMutability": "view",
      "type": "function"
    },
    {
      "inputs": [],
      "name": "symbol",
      "outputs": [
        {
          "internalType": "string",
          "name": "",
          "type": "string"
        }
      ],
      "stateMutability": "view",
      "type": "function"
    },
    {
      "inputs": [
        {
          "internalType": "uint256",
          "name": "tokenId",
          "type": "uint256"
        }
      ],
      "name": "tokenURI",
      "outputs": [
        {
          "internalType": "string",
          "name": "",
          "type": "string"
        }
      ],
      "stateMutability": "view",
      "type": "function"
    },
    {
      "inputs": [
        {
          "internalType": "address",
          "name": "from",
          "type": "address"
        },
        {
          "internalType": "address",
          "name": "to",
          "type": "address"
        },
        {
          "internalType": "uint256",
          "name": "tokenId",
          "type": "uint256"
        }
      ],
      "name": "transferFrom",
      "outputs": [],
      "stateMutability": "nonpayable",
      "type": "function"
    },
    {
      "inputs": [
        {
          "internalType": "address",
          "name": "newOwner",
          "type": "address"
        }
      ],
      "name": "transferOwnership",
      "outputs": [],
      "stateMutability": "nonpayable",
      "type": "function"
    },
    {
      "inputs": [
        {
          "internalType": "uint256",
          "name": "tokenId",
          "type": "uint256"
        }
      ],
      "name": "voteMeme",
      "outputs": [],
      "stateMutability": "nonpayable",
      "type": "function"
    }
  ],
  "bytecode": "0x60806040523480156200001157600080fd5b50336040518060400160405280600981526020017f4d656d65466f72676500000000000000000000000000000000000000000000008152506040518060400160405280600481526020017f4d454d450000000000000000000000000000000000000000000000000000000081525081600090816200009091906200047a565b508060019081620000a291906200047a565b505050600073ffffffffffffffffffffffffffffffffffffffff168173ffffffffffffffffffffffffffffffffffffffff16036200011a5760006040517f1e4fbdf7000000000000000000000000000000000000000000000000000000008152600401620001119190620005a6565b60405180910390fd5b6200012b816200013a60201b60201c565b506001600a81905550620005c3565b6000600960009054906101000a900473ffffffffffffffffffffffffffffffffffffffff16905081600960006101000a81548173ffffffffffffffffffffffffffffffffffffffff021916908373ffffffffffffffffffffffffffffffffffffffff1602179055508173ffffffffffffffffffffffffffffffffffffffff168173ffffffffffffffffffffffffffffffffffffffff167f8be0079c531659141344cd1fd0a4f28419497f9722a3daafe3b4186f6b6457e060405160405180910390a35050565b600081519050919050565b7f4e487b7100000000000000000000000000000000000000000000000000000000600052604160045260246000fd5b7f4e487b7100000000000000000000000000000000000000000000000000000000600052602260045260246000fd5b600060028204905060018216806200028257607f821691505b6020821081036200029857620002976200023a565b5b50919050565b60008190508160005260206000209050919050565b60006020601f8301049050919050565b600082821b905092915050565b600060088302620003027fffffffffffffffffffffffffffffffffffffffffffffffffffffffffffffffff82620002c3565b6200030e8683620002c3565b95508019841693508086168417925050509392505050565b6000819050919050565b6000819050919050565b60006200035b620003556200034f8462000326565b62000330565b62000326565b9050919050565b6000819050919050565b62000377836200033a565b6200038f620003868262000362565b848454620002d0565b825550505050565b600090565b620003a662000397565b620003b38184846200036c565b505050565b5b81811015620003db57620003cf6000826200039c565b600181019050620003b9565b5050565b601f8211156200042a57620003f4816200029e565b620003ff84620002b3565b810160208510156200040f578190505b620004276200041e85620002b3565b830182620003b8565b50505b505050565b600082821c905092915050565b60006200044f600019846008026200042f565b1980831691505092915050565b60006200046a83836200043c565b9150826002028217905092915050565b620004858262000200565b67ffffffffffffffff811115620004a157620004a06200020b565b5b620004ad825462000269565b620004ba828285620003df565b600060209050601f831160018114620004f25760008415620004dd578287015190505b620004e985826200045c565b86555062000559565b601f19841662000502866200029e565b60005b828110156200052c5784890151825560018201915060208501945060208101905062000505565b868310156200054c578489015162000548601f8916826200043c565b8355505b6001600288020188555050505b505050505050565b600073ffffffffffffffffffffffffffffffffffffffff82169050919050565b60006200058e8262000561565b9050919050565b620005a08162000581565b82525050565b6000602082019050620005bd600083018462000595565b92915050565b6149b780620005d36000396000f3fe608060405234801561001057600080fd5b50600436106102275760003560e01c80636352211e11610130578063a22cb465116100b8578063e71324bd1161007c578063e71324bd146106ee578063e7fb60261461070c578063e985e9c51461073c578063f2fde38b1461076c578063f912774c1461078857610227565b8063a22cb46514610638578063b88d4fde14610654578063c87b56dd14610670578063caa0f92a146106a0578063d93d6ad0146106be57610227565b8063867d6073116100ff578063867d6073146105945780638b305930146105b05780638da5cb5b146105e057806395d89b41146105fe5780639c55a70f1461061c57610227565b80636352211e146104fa57806370a082311461052a578063715018a61461055a5780637f77f5741461056457610227565b8063388f6064116101b357806342842e0e1161018257806342842e0e1461044457806342a54172146104605780634c6668a31461047e57806357976eff146104ae5780635cadb1a7146104ca57610227565b8063388f60641461039157806339974e04146103c8578063406ed391146103f8578063425458251461041457610227565b80630cf8e514116101fa5780630cf8e514146102c657806310cf740a146102f657806323b872dd146103145780632a55205a146103305780632a7ca11f1461036157610227565b806301ffc9a71461022c57806306fdde031461025c578063081812fc1461027a578063095ea7b3146102aa575b600080fd5b610246600480360381019061024191906135c5565b6107b8565b604051610253919061360d565b60405180910390f35b6102646107ca565b60405161027191906136b8565b60405180910390f35b610294600480360381019061028f9190613710565b61085c565b6040516102a1919061377e565b60405180910390f35b6102c460048036038101906102bf91906137c5565b610878565b005b6102e060048036038101906102db919061393a565b61088e565b6040516102ed9190613992565b60405180910390f35b6102fe610a7f565b60405161030b91906139d4565b60405180910390f35b61032e600480360381019061032991906139ef565b610a85565b005b61034a60048036038101906103459190613a42565b610b87565b604051610358929190613a82565b60405180910390f35b61037b60048036038101906103769190613710565b610c16565b6040516103889190613bd2565b60405180910390f35b6103ab60048036038101906103a69190613710565b610df0565b6040516103bf989796959493929190613bf4565b60405180910390f35b6103e260048036038101906103dd9190613c79565b610eed565b6040516103ef9190613992565b60405180910390f35b610412600480360381019061040d9190613cd5565b611131565b005b61042e600480360381019061042991906137c5565b6111ec565b60405161043b919061360d565b60405180910390f35b61045e600480360381019061045991906139ef565b61121b565b005b61046861123b565b6040516104759190613d61565b60405180910390f35b610498600480360381019061049391906137c5565b611261565b6040516104a5919061360d565b60405180910390f35b6104c860048036038101906104c39190613cd5565b611290565b005b6104e460048036038101906104df9190613cd5565b61134b565b6040516104f1919061360d565b60405180910390f35b610514600480360381019061050f9190613710565b6113f2565b604051610521919061377e565b60405180910390f35b610544600480360381019061053f9190613cd5565b611404565b6040516105519190613992565b60405180910390f35b6105626114be565b005b61057e60048036038101906105799190613710565b6114d2565b60405161058b9190613992565b60405180910390f35b6105ae60048036038101906105a99190613710565b6114ea565b005b6105ca60048036038101906105c59190613710565b6116df565b6040516105d7919061377e565b60405180910390f35b6105e8611712565b6040516105f5919061377e565b60405180910390f35b61060661173c565b60405161061391906136b8565b60405180910390f35b61063660048036038101906106319190613710565b6117ce565b005b610652600480360381019061064d9190613da8565b6119c3565b005b61066e60048036038101906106699190613e89565b6119d9565b005b61068a60048036038101906106859190613710565b6119fe565b60405161069791906136b8565b60405180910390f35b6106a8611a10565b6040516106b59190613992565b60405180910390f35b6106d860048036038101906106d39190613cd5565b611a1a565b6040516106e5919061360d565b60405180910390f35b6106f6611ac1565b6040516107039190613d61565b60405180910390f35b61072660048036038101906107219190613710565b611ae7565b6040516107339190613992565b60405180910390f35b61075660048036038101906107519190613f0c565b611cf5565b604051610763919061360d565b60405180910390f35b61078660048036038101906107819190613cd5565b611d89565b005b6107a2600480360381019061079d9190613710565b611e0f565b6040516107af9190613ffb565b60405180910390f35b60006107c382612155565b9050919050565b6060600080546107d99061404c565b80601f01602080910402602001604051908101604052809291908181526020018280546108059061404c565b80156108525780601f1061082757610100808354040283529160200191610852565b820191906000526020600020905b81548152906001019060200180831161083557829003601f168201915b5050505050905090565b6000610867826121cf565b5061087182612257565b9050919050565b61088a8282610885612294565b61229c565b5050565b60006108986122ae565b600082511180156108ac5750610200825111155b6108eb576040517f08c379a00000000000000000000000000000000000000000000000000000000081526004016108e2906140c9565b60405180910390fd5b6000600b600081548092919061090090614118565b9190505590506040518061010001604052808481526020013373ffffffffffffffffffffffffffffffffffffffff16815260200160008152602001600081526020016000815260200160001515815260200160008152602001428152506012600083815260200190815260200160002060008201518160000190816109859190614302565b5060208201518160010160006101000a81548173ffffffffffffffffffffffffffffffffffffffff021916908373ffffffffffffffffffffffffffffffffffffffff16021790555060408201518160020155606082015181600301556080820151816004015560a08201518160050160006101000a81548160ff02191690831515021790555060c0820151816006015560e08201518160070155905050610a2c33826122f4565b610a3681846123ed565b807f4d41e2dbc81b04ba842c0120c41b265fe5d53ab5f162050fd97168c6c9d7e8f133604051610a66919061377e565b60405180910390a280915050610a7a612449565b919050565b6103e881565b600073ffffffffffffffffffffffffffffffffffffffff168273ffffffffffffffffffffffffffffffffffffffff1603610af75760006040517f64a0ae92000000000000000000000000000000000000000000000000000000008152600401610aee919061377e565b60405180910390fd5b6000610b0b8383610b06612294565b612453565b90508373ffffffffffffffffffffffffffffffffffffffff168173ffffffffffffffffffffffffffffffffffffffff1614610b81578382826040517f64283d7b000000000000000000000000000000000000000000000000000000008152600401610b78939291906143d4565b60405180910390fd5b50505050565b600080600073ffffffffffffffffffffffffffffffffffffffff16610bab856113f2565b73ffffffffffffffffffffffffffffffffffffffff1603610c01576040517f08c379a0000000000000000000000000000000000000000000000000000000008152600401610bf890614457565b60405180910390fd5b610c0b848461266d565b915091509250929050565b610c1e6134fc565b600073ffffffffffffffffffffffffffffffffffffffff16610c3f836113f2565b73ffffffffffffffffffffffffffffffffffffffff1603610c95576040517f08c379a0000000000000000000000000000000000000000000000000000000008152600401610c8c906144c3565b60405180910390fd5b6012600083815260200190815260200160002060405180610100016040529081600082018054610cc49061404c565b80601f0160208091040260200160405190810160405280929190818152602001828054610cf09061404c565b8015610d3d5780601f10610d1257610100808354040283529160200191610d3d565b820191906000526020600020905b815481529060010190602001808311610d2057829003601f168201915b505050505081526020016001820160009054906101000a900473ffffffffffffffffffffffffffffffffffffffff1673ffffffffffffffffffffffffffffffffffffffff1673ffffffffffffffffffffffffffffffffffffffff1681526020016002820154815260200160038201548152602001600482015481526020016005820160009054906101000a900460ff16151515158152602001600682015481526020016007820154815250509050919050565b6012602052806000526040600020600091509050806000018054610e139061404c565b80601f0160208091040260200160405190810160405280929190818152602001828054610e3f9061404c565b8015610e8c5780601f10610e6157610100808354040283529160200191610e8c565b820191906000526020600020905b815481529060010190602001808311610e6f57829003601f168201915b5050505050908060010160009054906101000a900473ffffffffffffffffffffffffffffffffffffffff16908060020154908060030154908060040154908060050160009054906101000a900460ff16908060060154908060070154905088565b6000610ef76122ae565b600073ffffffffffffffffffffffffffffffffffffffff16610f18846113f2565b73ffffffffffffffffffffffffffffffffffffffff1603610f6e576040517f08c379a0000000000000000000000000000000000000000000000000000000008152600401610f659061452f565b60405180910390fd5b6000600b6000815480929190610f8390614118565b9190505590506040518061010001604052808481526020013373ffffffffffffffffffffffffffffffffffffffff168152602001600081526020016000815260200160008152602001600115158152602001858152602001428152506012600083815260200190815260200160002060008201518160000190816110079190614302565b5060208201518160010160006101000a81548173ffffffffffffffffffffffffffffffffffffffff021916908373ffffffffffffffffffffffffffffffffffffffff16021790555060408201518160020155606082015181600301556080820151816004015560a08201518160050160006101000a81548160ff02191690831515021790555060c0820151816006015560e082015181600701559050506012600085815260200190815260200160002060030160008154809291906110cb90614118565b91905055506110da33826122f4565b6110e481846123ed565b80847fbbb81ca785f2342ff0a5067b373a75b63ecfca3457baeffc28cfddfa901bea89338660405161111792919061454f565b60405180910390a38091505061112b612449565b92915050565b61113961279d565b600073ffffffffffffffffffffffffffffffffffffffff168173ffffffffffffffffffffffffffffffffffffffff16036111a8576040517f08c379a000000000000000000000000000000000000000000000000000000000815260040161119f906145cb565b60405180910390fd5b80600c60006101000a81548173ffffffffffffffffffffffffffffffffffffffff021916908373ffffffffffffffffffffffffffffffffffffffff16021790555050565b60116020528160005260406000206020528060005260406000206000915091509054906101000a900460ff1681565b611236838383604051806020016040528060008152506119d9565b505050565b600d60009054906101000a900473ffffffffffffffffffffffffffffffffffffffff1681565b60106020528160005260406000206020528060005260406000206000915091509054906101000a900460ff1681565b61129861279d565b600073ffffffffffffffffffffffffffffffffffffffff168173ffffffffffffffffffffffffffffffffffffffff1603611307576040517f08c379a00000000000000000000000000000000000000000000000000000000081526004016112fe906145cb565b60405180910390fd5b80600d60006101000a81548173ffffffffffffffffffffffffffffffffffffffff021916908373ffffffffffffffffffffffffffffffffffffffff16021790555050565b600080600d60009054906101000a900473ffffffffffffffffffffffffffffffffffffffff1673ffffffffffffffffffffffffffffffffffffffff166370a08231846040518263ffffffff1660e01b81526004016113a9919061377e565b602060405180830381865afa1580156113c6573d6000803e3d6000fd5b505050506040513d601f19601f820116820180604052508101906113ea9190614600565b119050919050565b60006113fd826121cf565b9050919050565b60008073ffffffffffffffffffffffffffffffffffffffff168273ffffffffffffffffffffffffffffffffffffffff16036114775760006040517f89c62b6400000000000000000000000000000000000000000000000000000000815260040161146e919061377e565b60405180910390fd5b600360008373ffffffffffffffffffffffffffffffffffffffff1673ffffffffffffffffffffffffffffffffffffffff168152602001908152602001600020549050919050565b6114c661279d565b6114d06000612824565b565b600f6020528060005260406000206000915090505481565b6114f26122ae565b600073ffffffffffffffffffffffffffffffffffffffff16611513826113f2565b73ffffffffffffffffffffffffffffffffffffffff1603611569576040517f08c379a0000000000000000000000000000000000000000000000000000000008152600401611560906144c3565b60405180910390fd5b601160003373ffffffffffffffffffffffffffffffffffffffff1673ffffffffffffffffffffffffffffffffffffffff168152602001908152602001600020600082815260200190815260200160002060009054906101000a900460ff1615611607576040517f08c379a00000000000000000000000000000000000000000000000000000000081526004016115fe90614679565b60405180910390fd5b6001601160003373ffffffffffffffffffffffffffffffffffffffff1673ffffffffffffffffffffffffffffffffffffffff168152602001908152602001600020600083815260200190815260200160002060006101000a81548160ff02191690831515021790555060126000828152602001908152602001600020600401600081548092919061169790614118565b9190505550807fb04229b085477d32a307704ee25d5fa10f1459f7b7250e99dafb0ee533dd223c336040516116cc919061377e565b60405180910390a26116dc612449565b50565b600e6020528060005260406000206000915054906101000a900473ffffffffffffffffffffffffffffffffffffffff1681565b6000600960009054906101000a900473ffffffffffffffffffffffffffffffffffffffff16905090565b60606001805461174b9061404c565b80601f01602080910402602001604051908101604052809291908181526020018280546117779061404c565b80156117c45780601f10611799576101008083540402835291602001916117c4565b820191906000526020600020905b8154815290600101906020018083116117a757829003601f168201915b5050505050905090565b6117d66122ae565b600073ffffffffffffffffffffffffffffffffffffffff166117f7826113f2565b73ffffffffffffffffffffffffffffffffffffffff160361184d576040517f08c379a0000000000000000000000000000000000000000000000000000000008152600401611844906144c3565b60405180910390fd5b601060003373ffffffffffffffffffffffffffffffffffffffff1673ffffffffffffffffffffffffffffffffffffffff168152602001908152602001600020600082815260200190815260200160002060009054906101000a900460ff16156118eb576040517f08c379a00000000000000000000000000000000000000000000000000000000081526004016118e2906146e5565b60405180910390fd5b6001601060003373ffffffffffffffffffffffffffffffffffffffff1673ffffffffffffffffffffffffffffffffffffffff168152602001908152602001600020600083815260200190815260200160002060006101000a81548160ff02191690831515021790555060126000828152602001908152602001600020600201600081548092919061197b90614118565b9190505550807ff8b927cfb2e75ff098dbf5a74342eb61f3048e1361979d572d4387e58579d411336040516119b0919061377e565b60405180910390a26119c0612449565b50565b6119d56119ce612294565b83836128ea565b5050565b6119e4848484610a85565b6119f86119ef612294565b85858585612a59565b50505050565b6060611a0982612c0a565b9050919050565b6000600b54905090565b600080600c60009054906101000a900473ffffffffffffffffffffffffffffffffffffffff1673ffffffffffffffffffffffffffffffffffffffff166370a08231846040518263ffffffff1660e01b8152600401611a78919061377e565b602060405180830381865afa158015611a95573d6000803e3d6000fd5b505050506040513d601f19601f82011682018060405250810190611ab99190614600565b119050919050565b600c60009054906101000a900473ffffffffffffffffffffffffffffffffffffffff1681565b6000806012600084815260200190815260200160002060405180610100016040529081600082018054611b199061404c565b80601f0160208091040260200160405190810160405280929190818152602001828054611b459061404c565b8015611b925780601f10611b6757610100808354040283529160200191611b92565b820191906000526020600020905b815481529060010190602001808311611b7557829003601f168201915b505050505081526020016001820160009054906101000a900473ffffffffffffffffffffffffffffffffffffffff1673ffffffffffffffffffffffffffffffffffffffff1673ffffffffffffffffffffffffffffffffffffffff1681526020016002820154815260200160038201548152602001600482015481526020016005820160009054906101000a900460ff161515151581526020016006820154815260200160078201548152505090506000816080015182606001516003611c589190614705565b83604001516002611c699190614705565b611c739190614747565b611c7d9190614747565b905060008260e0015142611c91919061477b565b90506000620151808210611cca5762093a808210611cc25762278d008210611cba576019611cbd565b60325b611cc5565b604b5b611ccd565b60645b60ff16905060648184611ce09190614705565b611cea91906147de565b945050505050919050565b6000600560008473ffffffffffffffffffffffffffffffffffffffff1673ffffffffffffffffffffffffffffffffffffffff16815260200190815260200160002060008373ffffffffffffffffffffffffffffffffffffffff1673ffffffffffffffffffffffffffffffffffffffff16815260200190815260200160002060009054906101000a900460ff16905092915050565b611d9161279d565b600073ffffffffffffffffffffffffffffffffffffffff168173ffffffffffffffffffffffffffffffffffffffff1603611e035760006040517f1e4fbdf7000000000000000000000000000000000000000000000000000000008152600401611dfa919061377e565b60405180910390fd5b611e0c81612824565b50565b60606000600b54905080831115611e24578092505b60008167ffffffffffffffff811115611e4057611e3f61380f565b5b604051908082528060200260200182016040528015611e6e5781602001602082028036833780820191505090505b50905060008267ffffffffffffffff811115611e8d57611e8c61380f565b5b604051908082528060200260200182016040528015611ebb5781602001602082028036833780820191505090505b50905060005b83811015611f245780838281518110611edd57611edc61480f565b5b602002602001018181525050611ef281611ae7565b828281518110611f0557611f0461480f565b5b6020026020010181815250508080611f1c90614118565b915050611ec1565b5060005b858110156120a2576000600182611f3f9190614747565b90505b8481101561208e57828281518110611f5d57611f5c61480f565b5b6020026020010151838281518110611f7857611f7761480f565b5b6020026020010151111561207b576000838381518110611f9b57611f9a61480f565b5b60200260200101519050838281518110611fb857611fb761480f565b5b6020026020010151848481518110611fd357611fd261480f565b5b60200260200101818152505080848381518110611ff357611ff261480f565b5b60200260200101818152505060008584815181106120145761201361480f565b5b602002602001015190508583815181106120315761203061480f565b5b602002602001015186858151811061204c5761204b61480f565b5b6020026020010181815250508086848151811061206c5761206b61480f565b5b60200260200101818152505050505b808061208690614118565b915050611f42565b50808061209a90614118565b915050611f28565b5060008567ffffffffffffffff8111156120bf576120be61380f565b5b6040519080825280602002602001820160405280156120ed5781602001602082028036833780820191505090505b50905060005b868110156121485783818151811061210e5761210d61480f565b5b60200260200101518282815181106121295761212861480f565b5b602002602001018181525050808061214090614118565b9150506120f3565b5080945050505050919050565b60007f2a55205a000000000000000000000000000000000000000000000000000000007bffffffffffffffffffffffffffffffffffffffffffffffffffffffff1916827bffffffffffffffffffffffffffffffffffffffffffffffffffffffff191614806121c857506121c782612d1d565b5b9050919050565b6000806121db83612d7e565b9050600073ffffffffffffffffffffffffffffffffffffffff168173ffffffffffffffffffffffffffffffffffffffff160361224e57826040517f7e2732890000000000000000000000000000000000000000000000000000000081526004016122459190613992565b60405180910390fd5b80915050919050565b60006004600083815260200190815260200160002060009054906101000a900473ffffffffffffffffffffffffffffffffffffffff169050919050565b600033905090565b6122a98383836001612dbb565b505050565b6002600a54036122ea576040517f3ee5aeb500000000000000000000000000000000000000000000000000000000815260040160405180910390fd5b6002600a81905550565b600073ffffffffffffffffffffffffffffffffffffffff168273ffffffffffffffffffffffffffffffffffffffff16036123665760006040517f64a0ae9200000000000000000000000000000000000000000000000000000000815260040161235d919061377e565b60405180910390fd5b600061237483836000612453565b9050600073ffffffffffffffffffffffffffffffffffffffff168173ffffffffffffffffffffffffffffffffffffffff16146123e85760006040517f73c6ac6e0000000000000000000000000000000000000000000000000000000081526004016123df919061377e565b60405180910390fd5b505050565b8060066000848152602001908152602001600020908161240d9190614302565b507ff8e1a15aba9398e019f0b49df1a4fde98ee17ae345cb5f6b5e2c27f5033e8ce78260405161243d9190613992565b60405180910390a15050565b6001600a81905550565b60008061245f84612d7e565b9050600073ffffffffffffffffffffffffffffffffffffffff168373ffffffffffffffffffffffffffffffffffffffff16146124a1576124a0818486612f80565b5b600073ffffffffffffffffffffffffffffffffffffffff168173ffffffffffffffffffffffffffffffffffffffff1614612532576124e3600085600080612dbb565b6001600360008373ffffffffffffffffffffffffffffffffffffffff1673ffffffffffffffffffffffffffffffffffffffff168152602001908152602001600020600082825403925050819055505b600073ffffffffffffffffffffffffffffffffffffffff168573ffffffffffffffffffffffffffffffffffffffff16146125b5576001600360008773ffffffffffffffffffffffffffffffffffffffff1673ffffffffffffffffffffffffffffffffffffffff168152602001908152602001600020600082825401925050819055505b846002600086815260200190815260200160002060006101000a81548173ffffffffffffffffffffffffffffffffffffffff021916908373ffffffffffffffffffffffffffffffffffffffff160217905550838573ffffffffffffffffffffffffffffffffffffffff168273ffffffffffffffffffffffffffffffffffffffff167fddf252ad1be2c89b69c2b068fc378daa952ba7f163c4a11628f55a4df523b3ef60405160405180910390a4809150509392505050565b600080600060086000868152602001908152602001600020905060008160000160009054906101000a900473ffffffffffffffffffffffffffffffffffffffff16905060008260000160149054906101000a90046bffffffffffffffffffffffff169050600073ffffffffffffffffffffffffffffffffffffffff168273ffffffffffffffffffffffffffffffffffffffff160361274e57600760000160009054906101000a900473ffffffffffffffffffffffffffffffffffffffff169150600760000160149054906101000a90046bffffffffffffffffffffffff1690505b6000612758613044565b6bffffffffffffffffffffffff16826bffffffffffffffffffffffff16886127809190614705565b61278a91906147de565b9050828195509550505050509250929050565b6127a5612294565b73ffffffffffffffffffffffffffffffffffffffff166127c3611712565b73ffffffffffffffffffffffffffffffffffffffff1614612822576127e6612294565b6040517f118cdaa7000000000000000000000000000000000000000000000000000000008152600401612819919061377e565b60405180910390fd5b565b6000600960009054906101000a900473ffffffffffffffffffffffffffffffffffffffff16905081600960006101000a81548173ffffffffffffffffffffffffffffffffffffffff021916908373ffffffffffffffffffffffffffffffffffffffff1602179055508173ffffffffffffffffffffffffffffffffffffffff168173ffffffffffffffffffffffffffffffffffffffff167f8be0079c531659141344cd1fd0a4f28419497f9722a3daafe3b4186f6b6457e060405160405180910390a35050565b600073ffffffffffffffffffffffffffffffffffffffff168273ffffffffffffffffffffffffffffffffffffffff160361295b57816040517f5b08ba18000000000000000000000000000000000000000000000000000000008152600401612952919061377e565b60405180910390fd5b80600560008573ffffffffffffffffffffffffffffffffffffffff1673ffffffffffffffffffffffffffffffffffffffff16815260200190815260200160002060008473ffffffffffffffffffffffffffffffffffffffff1673ffffffffffffffffffffffffffffffffffffffff16815260200190815260200160002060006101000a81548160ff0219169083151502179055508173ffffffffffffffffffffffffffffffffffffffff168373ffffffffffffffffffffffffffffffffffffffff167f17307eab39ab6107e8899845ad3d59bd9653f200f220920489ca2b5937696c3183604051612a4c919061360d565b60405180910390a3505050565b60008373ffffffffffffffffffffffffffffffffffffffff163b1115612c03578273ffffffffffffffffffffffffffffffffffffffff1663150b7a02868685856040518563ffffffff1660e01b8152600401612ab89493929190614893565b6020604051808303816000875af1925050508015612af457506040513d601f19601f82011682018060405250810190612af191906148f4565b60015b612b78573d8060008114612b24576040519150601f19603f3d011682016040523d82523d6000602084013e612b29565b606091505b506000815103612b7057836040517f64a0ae92000000000000000000000000000000000000000000000000000000008152600401612b67919061377e565b60405180910390fd5b805181602001fd5b63150b7a0260e01b7bffffffffffffffffffffffffffffffffffffffffffffffffffffffff1916817bffffffffffffffffffffffffffffffffffffffffffffffffffffffff191614612c0157836040517f64a0ae92000000000000000000000000000000000000000000000000000000008152600401612bf8919061377e565b60405180910390fd5b505b5050505050565b6060612c15826121cf565b506000600660008481526020019081526020016000208054612c369061404c565b80601f0160208091040260200160405190810160405280929190818152602001828054612c629061404c565b8015612caf5780601f10612c8457610100808354040283529160200191612caf565b820191906000526020600020905b815481529060010190602001808311612c9257829003601f168201915b505050505090506000612cc061304e565b90506000815103612cd5578192505050612d18565b600082511115612d0a578082604051602001612cf292919061495d565b60405160208183030381529060405292505050612d18565b612d1384613065565b925050505b919050565b6000634906490660e01b7bffffffffffffffffffffffffffffffffffffffffffffffffffffffff1916827bffffffffffffffffffffffffffffffffffffffffffffffffffffffff19161480612d775750612d76826130ce565b5b9050919050565b60006002600083815260200190815260200160002060009054906101000a900473ffffffffffffffffffffffffffffffffffffffff169050919050565b8080612df45750600073ffffffffffffffffffffffffffffffffffffffff168273ffffffffffffffffffffffffffffffffffffffff1614155b15612f28576000612e04846121cf565b9050600073ffffffffffffffffffffffffffffffffffffffff168373ffffffffffffffffffffffffffffffffffffffff1614158015612e6f57508273ffffffffffffffffffffffffffffffffffffffff168173ffffffffffffffffffffffffffffffffffffffff1614155b8015612e825750612e808184611cf5565b155b15612ec457826040517fa9fbf51f000000000000000000000000000000000000000000000000000000008152600401612ebb919061377e565b60405180910390fd5b8115612f2657838573ffffffffffffffffffffffffffffffffffffffff168273ffffffffffffffffffffffffffffffffffffffff167f8c5be1e5ebec7d5bd14f71427d1e84f3dd0314c0f7b2291e5b200ac8c7c3b92560405160405180910390a45b505b836004600085815260200190815260200160002060006101000a81548173ffffffffffffffffffffffffffffffffffffffff021916908373ffffffffffffffffffffffffffffffffffffffff16021790555050505050565b612f8b8383836131b0565b61303f57600073ffffffffffffffffffffffffffffffffffffffff168373ffffffffffffffffffffffffffffffffffffffff160361300057806040517f7e273289000000000000000000000000000000000000000000000000000000008152600401612ff79190613992565b60405180910390fd5b81816040517f177e802f000000000000000000000000000000000000000000000000000000008152600401613036929190613a82565b60405180910390fd5b505050565b6000612710905090565b606060405180602001604052806000815250905090565b6060613070826121cf565b50600061307b61304e565b9050600081511161309b57604051806020016040528060008152506130c6565b806130a584613271565b6040516020016130b692919061495d565b6040516020818303038152906040525b915050919050565b60007f80ac58cd000000000000000000000000000000000000000000000000000000007bffffffffffffffffffffffffffffffffffffffffffffffffffffffff1916827bffffffffffffffffffffffffffffffffffffffffffffffffffffffff1916148061319957507f5b5e139f000000000000000000000000000000000000000000000000000000007bffffffffffffffffffffffffffffffffffffffffffffffffffffffff1916827bffffffffffffffffffffffffffffffffffffffffffffffffffffffff1916145b806131a957506131a88261333f565b5b9050919050565b60008073ffffffffffffffffffffffffffffffffffffffff168373ffffffffffffffffffffffffffffffffffffffff161415801561326857508273ffffffffffffffffffffffffffffffffffffffff168473ffffffffffffffffffffffffffffffffffffffff16148061322957506132288484611cf5565b5b8061326757508273ffffffffffffffffffffffffffffffffffffffff1661324f83612257565b73ffffffffffffffffffffffffffffffffffffffff16145b5b90509392505050565b606060006001613280846133a9565b01905060008167ffffffffffffffff81111561329f5761329e61380f565b5b6040519080825280601f01601f1916602001820160405280156132d15781602001600182028036833780820191505090505b509050600082602001820190505b600115613334578080600190039150507f3031323334353637383961626364656600000000000000000000000000000000600a86061a8153600a8581613328576133276147af565b5b049450600085036132df575b819350505050919050565b60007f01ffc9a7000000000000000000000000000000000000000000000000000000007bffffffffffffffffffffffffffffffffffffffffffffffffffffffff1916827bffffffffffffffffffffffffffffffffffffffffffffffffffffffff1916149050919050565b600080600090507a184f03e93ff9f4daa797ed6e38ed64bf6a1f0100000000000000008310613407577a184f03e93ff9f4daa797ed6e38ed64bf6a1f01000000000000000083816133fd576133fc6147af565b5b0492506040810190505b6d04ee2d6d415b85acef81000000008310613444576d04ee2d6d415b85acef8100000000838161343a576134396147af565b5b0492506020810190505b662386f26fc10000831061347357662386f26fc100008381613469576134686147af565b5b0492506010810190505b6305f5e100831061349c576305f5e1008381613492576134916147af565b5b0492506008810190505b61271083106134c15761271083816134b7576134b66147af565b5b0492506004810190505b606483106134e457606483816134da576134d96147af565b5b0492506002810190505b600a83106134f3576001810190505b80915050919050565b60405180610100016040528060608152602001600073ffffffffffffffffffffffffffffffffffffffff16815260200160008152602001600081526020016000815260200160001515815260200160008152602001600081525090565b6000604051905090565b600080fd5b600080fd5b60007fffffffff0000000000000000000000000000000000000000000000000000000082169050919050565b6135a28161356d565b81146135ad57600080fd5b50565b6000813590506135bf81613599565b92915050565b6000602082840312156135db576135da613563565b5b60006135e9848285016135b0565b91505092915050565b60008115159050919050565b613607816135f2565b82525050565b600060208201905061362260008301846135fe565b92915050565b600081519050919050565b600082825260208201905092915050565b60005b83811015613662578082015181840152602081019050613647565b60008484015250505050565b6000601f19601f8301169050919050565b600061368a82613628565b6136948185613633565b93506136a4818560208601613644565b6136ad8161366e565b840191505092915050565b600060208201905081810360008301526136d2818461367f565b905092915050565b6000819050919050565b6136ed816136da565b81146136f857600080fd5b50565b60008135905061370a816136e4565b92915050565b60006020828403121561372657613725613563565b5b6000613734848285016136fb565b91505092915050565b600073ffffffffffffffffffffffffffffffffffffffff82169050919050565b60006137688261373d565b9050919050565b6137788161375d565b82525050565b6000602082019050613793600083018461376f565b92915050565b6137a28161375d565b81146137ad57600080fd5b50565b6000813590506137bf81613799565b92915050565b600080604083850312156137dc576137db613563565b5b60006137ea858286016137b0565b92505060206137fb858286016136fb565b9150509250929050565b600080fd5b600080fd5b7f4e487b7100000000000000000000000000000000000000000000000000000000600052604160045260246000fd5b6138478261366e565b810181811067ffffffffffffffff821117156138665761386561380f565b5b80604052505050565b6000613879613559565b9050613885828261383e565b919050565b600067ffffffffffffffff8211156138a5576138a461380f565b5b6138ae8261366e565b9050602081019050919050565b82818337600083830152505050565b60006138dd6138d88461388a565b61386f565b9050828152602081018484840111156138f9576138f861380a565b5b6139048482856138bb565b509392505050565b600082601f83011261392157613920613805565b5b81356139318482602086016138ca565b91505092915050565b6000602082840312156139505761394f613563565b5b600082013567ffffffffffffffff81111561396e5761396d613568565b5b61397a8482850161390c565b91505092915050565b61398c816136da565b82525050565b60006020820190506139a76000830184613983565b92915050565b60006bffffffffffffffffffffffff82169050919050565b6139ce816139ad565b82525050565b60006020820190506139e960008301846139c5565b92915050565b600080600060608486031215613a0857613a07613563565b5b6000613a16868287016137b0565b9350506020613a27868287016137b0565b9250506040613a38868287016136fb565b9150509250925092565b60008060408385031215613a5957613a58613563565b5b6000613a67858286016136fb565b9250506020613a78858286016136fb565b9150509250929050565b6000604082019050613a97600083018561376f565b613aa46020830184613983565b9392505050565b600082825260208201905092915050565b6000613ac782613628565b613ad18185613aab565b9350613ae1818560208601613644565b613aea8161366e565b840191505092915050565b613afe8161375d565b82525050565b613b0d816136da565b82525050565b613b1c816135f2565b82525050565b6000610100830160008301518482036000860152613b408282613abc565b9150506020830151613b556020860182613af5565b506040830151613b686040860182613b04565b506060830151613b7b6060860182613b04565b506080830151613b8e6080860182613b04565b5060a0830151613ba160a0860182613b13565b5060c0830151613bb460c0860182613b04565b5060e0830151613bc760e0860182613b04565b508091505092915050565b60006020820190508181036000830152613bec8184613b22565b905092915050565b6000610100820190508181036000830152613c0f818b61367f565b9050613c1e602083018a61376f565b613c2b6040830189613983565b613c386060830188613983565b613c456080830187613983565b613c5260a08301866135fe565b613c5f60c0830185613983565b613c6c60e0830184613983565b9998505050505050505050565b60008060408385031215613c9057613c8f613563565b5b6000613c9e858286016136fb565b925050602083013567ffffffffffffffff811115613cbf57613cbe613568565b5b613ccb8582860161390c565b9150509250929050565b600060208284031215613ceb57613cea613563565b5b6000613cf9848285016137b0565b91505092915050565b6000819050919050565b6000613d27613d22613d1d8461373d565b613d02565b61373d565b9050919050565b6000613d3982613d0c565b9050919050565b6000613d4b82613d2e565b9050919050565b613d5b81613d40565b82525050565b6000602082019050613d766000830184613d52565b92915050565b613d85816135f2565b8114613d9057600080fd5b50565b600081359050613da281613d7c565b92915050565b60008060408385031215613dbf57613dbe613563565b5b6000613dcd858286016137b0565b9250506020613dde85828601613d93565b9150509250929050565b600067ffffffffffffffff821115613e0357613e0261380f565b5b613e0c8261366e565b9050602081019050919050565b6000613e2c613e2784613de8565b61386f565b905082815260208101848484011115613e4857613e4761380a565b5b613e538482856138bb565b509392505050565b600082601f830112613e7057613e6f613805565b5b8135613e80848260208601613e19565b91505092915050565b60008060008060808587031215613ea357613ea2613563565b5b6000613eb1878288016137b0565b9450506020613ec2878288016137b0565b9350506040613ed3878288016136fb565b925050606085013567ffffffffffffffff811115613ef457613ef3613568565b5b613f0087828801613e5b565b91505092959194509250565b60008060408385031215613f2357613f22613563565b5b6000613f31858286016137b0565b9250506020613f42858286016137b0565b9150509250929050565b600081519050919050565b600082825260208201905092915050565b6000819050602082019050919050565b6000613f848383613b04565b60208301905092915050565b6000602082019050919050565b6000613fa882613f4c565b613fb28185613f57565b9350613fbd83613f68565b8060005b83811015613fee578151613fd58882613f78565b9750613fe083613f90565b925050600181019050613fc1565b5085935050505092915050565b600060208201905081810360008301526140158184613f9d565b905092915050565b7f4e487b7100000000000000000000000000000000000000000000000000000000600052602260045260246000fd5b6000600282049050600182168061406457607f821691505b6020821081036140775761407661401d565b5b50919050565b7f496e76616c696420555249206c656e6774680000000000000000000000000000600082015250565b60006140b3601283613633565b91506140be8261407d565b602082019050919050565b600060208201905081810360008301526140e2816140a6565b9050919050565b7f4e487b7100000000000000000000000000000000000000000000000000000000600052601160045260246000fd5b6000614123826136da565b91507fffffffffffffffffffffffffffffffffffffffffffffffffffffffffffffffff8203614155576141546140e9565b5b600182019050919050565b60008190508160005260206000209050919050565b60006020601f8301049050919050565b600082821b905092915050565b6000600883026141c27fffffffffffffffffffffffffffffffffffffffffffffffffffffffffffffffff82614185565b6141cc8683614185565b95508019841693508086168417925050509392505050565b60006141ff6141fa6141f5846136da565b613d02565b6136da565b9050919050565b6000819050919050565b614219836141e4565b61422d61422582614206565b848454614192565b825550505050565b600090565b614242614235565b61424d818484614210565b505050565b5b818110156142715761426660008261423a565b600181019050614253565b5050565b601f8211156142b65761428781614160565b61429084614175565b8101602085101561429f578190505b6142b36142ab85614175565b830182614252565b50505b505050565b600082821c905092915050565b60006142d9600019846008026142bb565b1980831691505092915050565b60006142f283836142c8565b9150826002028217905092915050565b61430b82613628565b67ffffffffffffffff8111156143245761432361380f565b5b61432e825461404c565b614339828285614275565b600060209050601f83116001811461436c576000841561435a578287015190505b61436485826142e6565b8655506143cc565b601f19841661437a86614160565b60005b828110156143a25784890151825560018201915060208501945060208101905061437d565b868310156143bf57848901516143bb601f8916826142c8565b8355505b6001600288020188555050505b505050505050565b60006060820190506143e9600083018661376f565b6143f66020830185613983565b614403604083018461376f565b949350505050565b7f546f6b656e20646f6573206e6f74206578697374000000000000000000000000600082015250565b6000614441601483613633565b915061444c8261440b565b602082019050919050565b6000602082019050818103600083015261447081614434565b9050919050565b7f4d656d6520646f6573206e6f7420657869737400000000000000000000000000600082015250565b60006144ad601383613633565b91506144b882614477565b602082019050919050565b600060208201905081810360008301526144dc816144a0565b9050919050565b7f4f726967696e616c206d656d6520646f6573206e6f7420657869737400000000600082015250565b6000614519601c83613633565b9150614524826144e3565b602082019050919050565b600060208201905081810360008301526145488161450c565b9050919050565b6000604082019050614564600083018561376f565b8181036020830152614576818461367f565b90509392505050565b7f496e76616c696420616464726573730000000000000000000000000000000000600082015250565b60006145b5600f83613633565b91506145c08261457f565b602082019050919050565b600060208201905081810360008301526145e4816145a8565b9050919050565b6000815190506145fa816136e4565b92915050565b60006020828403121561461657614615613563565b5b6000614624848285016145eb565b91505092915050565b7f416c726561647920766f746564206f6e2074686973206d656d65000000000000600082015250565b6000614663601a83613633565b915061466e8261462d565b602082019050919050565b6000602082019050818103600083015261469281614656565b9050919050565b7f416c7265616479206c696b65642074686973206d656d65000000000000000000600082015250565b60006146cf601783613633565b91506146da82614699565b602082019050919050565b600060208201905081810360008301526146fe816146c2565b9050919050565b6000614710826136da565b915061471b836136da565b9250828202614729816136da565b915082820484148315176147405761473f6140e9565b5b5092915050565b6000614752826136da565b915061475d836136da565b9250828201905080821115614775576147746140e9565b5b92915050565b6000614786826136da565b9150614791836136da565b92508282039050818111156147a9576147a86140e9565b5b92915050565b7f4e487b7100000000000000000000000000000000000000000000000000000000600052601260045260246000fd5b60006147e9826136da565b91506147f4836136da565b925082614804576148036147af565b5b828204905092915050565b7f4e487b7100000000000000000000000000000000000000000000000000000000600052603260045260246000fd5b600081519050919050565b600082825260208201905092915050565b60006148658261483e565b61486f8185614849565b935061487f818560208601613644565b6148888161366e565b840191505092915050565b60006080820190506148a8600083018761376f565b6148b5602083018661376f565b6148c26040830185613983565b81810360608301526148d4818461485a565b905095945050505050565b6000815190506148ee81613599565b92915050565b60006020828403121561490a57614909613563565b5b6000614918848285016148df565b91505092915050565b600081905092915050565b600061493782613628565b6149418185614921565b9350614951818560208601613644565b80840191505092915050565b6000614969828561492c565b9150614975828461492c565b9150819050939250505056fea2646970667358221220fd79840dfc59effdd6f757141a58c3ac5d60c16e5753a42be08dc08e9a22110e64736f6c63430008140033",
  "linkReferences": {},
  "deployedLinkReferences": {}
}