{
  "_format": "hh-sol-artifact-1",
  "contractName": "MemeForgeGasBack",
  "sourceName": "contracts/MemeForgeGasBack.sol",
  "abi": [
    {
      "inputs": [
        {
          "internalType": "address",
          "name": "_memeForgeCore",
          "type": "address"
        }
      ],
      "stateMutability": "nonpayable",
      "type": "constructor"
    },
    {
      "inputs": [
        {
          "internalType": "address",
          "name": "owner",
          "type": "address"
        }
      ],
      "name": "OwnableInvalidOwner",
      "type": "error"
    },
    {
      "inputs": [
        {
          "internalType": "address",
          "name": "account",
          "type": "address"
        }
      ],
      "name": "OwnableUnauthorizedAccount",
      "type": "error"
    },
    {
      "inputs": [],
      "name": "ReentrancyGuardReentrantCall",
      "type": "error"
    },
    {
      "anonymous": false,
      "inputs": [
        {
          "indexed": false,
          "internalType": "uint256",
          "name": "amount",
          "type": "uint256"
        },
        {
          "indexed": false,
          "internalType": "uint256",
          "name": "timestamp",
          "type": "uint256"
        }
      ],
      "name": "GasBackWithdrawn",
      "type": "event"
    },
    {
      "anonymous": false,
      "inputs": [
        {
          "indexed": true,
          "internalType": "address",
          "name": "previousOwner",
          "type": "address"
        },
        {
          "indexed": true,
          "internalType": "address",
          "name": "newOwner",
          "type": "address"
        }
      ],
      "name": "OwnershipTransferred",
      "type": "event"
    },
    {
      "anonymous": false,
      "inputs": [
        {
          "indexed": false,
          "internalType": "uint256",
          "name": "amount",
          "type": "uint256"
        },
        {
          "indexed": false,
          "internalType": "uint256",
          "name": "timestamp",
          "type": "uint256"
        }
      ],
      "name": "RewardsDistributed",
      "type": "event"
    },
    {
      "anonymous": false,
      "inputs": [
        {
          "indexed": true,
          "internalType": "address",
          "name": "user",
          "type": "address"
        },
        {
          "indexed": false,
          "internalType": "uint256",
          "name": "amount",
          "type": "uint256"
        }
      ],
      "name": "RewardsWithdrawn",
      "type": "event"
    },
    {
      "inputs": [],
      "name": "WITHDRAWAL_INTERVAL",
      "outputs": [
        {
          "internalType": "uint256",
          "name": "",
          "type": "uint256"
        }
      ],
      "stateMutability": "view",
      "type": "function"
    },
    {
      "inputs": [
        {
          "internalType": "address",
          "name": "",
          "type": "address"
        }
      ],
      "name": "creatorRewards",
      "outputs": [
        {
          "internalType": "uint256",
          "name": "",
          "type": "uint256"
        }
      ],
      "stateMutability": "view",
      "type": "function"
    },
    {
      "inputs": [],
      "name": "distributeGasBackRewards",
      "outputs": [],
      "stateMutability": "nonpayable",
      "type": "function"
    },
    {
      "inputs": [],
      "name": "gasBackContract",
      "outputs": [
        {
          "internalType": "address",
          "name": "",
          "type": "address"
        }
      ],
      "stateMutability": "view",
      "type": "function"
    },
    {
      "inputs": [],
      "name": "gasBackTokenId",
      "outputs": [
        {
          "internalType": "uint256",
          "name": "",
          "type": "uint256"
        }
      ],
      "stateMutability": "view",
      "type": "function"
    },
    {
      "inputs": [],
      "name": "lastWithdrawalTimestamp",
      "outputs": [
        {
          "internalType": "uint256",
          "name": "",
          "type": "uint256"
        }
      ],
      "stateMutability": "view",
      "type": "function"
    },
    {
      "inputs": [
        {
          "internalType": "uint256",
          "name": "",
          "type": "uint256"
        }
      ],
      "name": "likeTransactions",
      "outputs": [
        {
          "internalType": "address",
          "name": "creator",
          "type": "address"
        },
        {
          "internalType": "address",
          "name": "remixer",
          "type": "address"
        },
        {
          "internalType": "uint256",
          "name": "gasUsed",
          "type": "uint256"
        },
        {
          "internalType": "bool",
          "name": "isRemix",
          "type": "bool"
        }
      ],
      "stateMutability": "view",
      "type": "function"
    },
    {
      "inputs": [],
      "name": "memeForgeCore",
      "outputs": [
        {
          "internalType": "address",
          "name": "",
          "type": "address"
        }
      ],
      "stateMutability": "view",
      "type": "function"
    },
    {
      "inputs": [
        {
          "internalType": "uint256",
          "name": "",
          "type": "uint256"
        }
      ],
      "name": "memeTransactions",
      "outputs": [
        {
          "internalType": "address",
          "name": "creator",
          "type": "address"
        },
        {
          "internalType": "address",
          "name": "remixer",
          "type": "address"
        },
        {
          "internalType": "uint256",
          "name": "gasUsed",
          "type": "uint256"
        },
        {
          "internalType": "bool",
          "name": "isRemix",
          "type": "bool"
        }
      ],
      "stateMutability": "view",
      "type": "function"
    },
    {
      "inputs": [],
      "name": "owner",
      "outputs": [
        {
          "internalType": "address",
          "name": "",
          "type": "address"
        }
      ],
      "stateMutability": "view",
      "type": "function"
    },
    {
      "inputs": [
        {
          "internalType": "uint256",
          "name": "tokenId",
          "type": "uint256"
        },
        {
          "internalType": "address",
          "name": "creator",
          "type": "address"
        },
        {
          "internalType": "address",
          "name": "remixer",
          "type": "address"
        },
        {
          "internalType": "uint256",
          "name": "gasUsed",
          "type": "uint256"
        },
        {
          "internalType": "bool",
          "name": "isRemix",
          "type": "bool"
        },
        {
          "internalType": "enum MemeForgeGasBack.TransactionType",
          "name": "txType",
          "type": "uint8"
        }
      ],
      "name": "recordTransaction",
      "outputs": [],
      "stateMutability": "nonpayable",
      "type": "function"
    },
    {
      "inputs": [
        {
          "internalType": "address",
          "name": "",
          "type": "address"
        }
      ],
      "name": "remixerRewards",
      "outputs": [
        {
          "internalType": "uint256",
          "name": "",
          "type": "uint256"
        }
      ],
      "stateMutability": "view",
      "type": "function"
    },
    {
      "inputs": [],
      "name": "renounceOwnership",
      "outputs": [],
      "stateMutability": "nonpayable",
      "type": "function"
    },
    {
      "inputs": [
        {
          "internalType": "address",
          "name": "_gasBackContract",
          "type": "address"
        }
      ],
      "name": "setGasBackContract",
      "outputs": [],
      "stateMutability": "nonpayable",
      "type": "function"
    },
    {
      "inputs": [
        {
          "internalType": "uint256",
          "name": "_tokenId",
          "type": "uint256"
        }
      ],
      "name": "setGasBackTokenId",
      "outputs": [],
      "stateMutability": "nonpayable",
      "type": "function"
    },
    {
      "inputs": [
        {
          "internalType": "address",
          "name": "newOwner",
          "type": "address"
        }
      ],
      "name": "transferOwnership",
      "outputs": [],
      "stateMutability": "nonpayable",
      "type": "function"
    },
    {
      "inputs": [],
      "name": "undistributedGasBack",
      "outputs": [
        {
          "internalType": "uint256",
          "name": "",
          "type": "uint256"
        }
      ],
      "stateMutability": "view",
      "type": "function"
    },
    {
      "inputs": [
        {
          "internalType": "uint256",
          "name": "",
          "type": "uint256"
        }
      ],
      "name": "voteTransactions",
      "outputs": [
        {
          "internalType": "address",
          "name": "creator",
          "type": "address"
        },
        {
          "internalType": "address",
          "name": "remixer",
          "type": "address"
        },
        {
          "internalType": "uint256",
          "name": "gasUsed",
          "type": "uint256"
        },
        {
          "internalType": "bool",
          "name": "isRemix",
          "type": "bool"
        }
      ],
      "stateMutability": "view",
      "type": "function"
    },
    {
      "inputs": [
        {
          "internalType": "uint256",
          "name": "_amount",
          "type": "uint256"
        }
      ],
      "name": "withdrawGasBack",
      "outputs": [],
      "stateMutability": "nonpayable",
      "type": "function"
    },
    {
      "inputs": [],
      "name": "withdrawRewards",
      "outputs": [],
      "stateMutability": "nonpayable",
      "type": "function"
    },
    {
      "stateMutability": "payable",
      "type": "receive"
    }
  ],
  "bytecode": "0x60806040523480156200001157600080fd5b5060405162002b3238038062002b3283398181016040528101906200003791906200023c565b33600073ffffffffffffffffffffffffffffffffffffffff168173ffffffffffffffffffffffffffffffffffffffff1603620000ad5760006040517f1e4fbdf7000000000000000000000000000000000000000000000000000000008152600401620000a491906200027f565b60405180910390fd5b620000be816200010e60201b60201c565b506001808190555080600260006101000a81548173ffffffffffffffffffffffffffffffffffffffff021916908373ffffffffffffffffffffffffffffffffffffffff160217905550506200029c565b60008060009054906101000a900473ffffffffffffffffffffffffffffffffffffffff169050816000806101000a81548173ffffffffffffffffffffffffffffffffffffffff021916908373ffffffffffffffffffffffffffffffffffffffff1602179055508173ffffffffffffffffffffffffffffffffffffffff168173ffffffffffffffffffffffffffffffffffffffff167f8be0079c531659141344cd1fd0a4f28419497f9722a3daafe3b4186f6b6457e060405160405180910390a35050565b600080fd5b600073ffffffffffffffffffffffffffffffffffffffff82169050919050565b60006200020482620001d7565b9050919050565b6200021681620001f7565b81146200022257600080fd5b50565b60008151905062000236816200020b565b92915050565b600060208284031215620002555762000254620001d2565b5b6000620002658482850162000225565b91505092915050565b6200027981620001f7565b82525050565b60006020820190506200029660008301846200026e565b92915050565b61288680620002ac6000396000f3fe6080604052600436106101235760003560e01c8063715018a6116100a0578063bcbb089711610064578063bcbb0897146103e9578063c7b8981c14610426578063de658e8d1461043d578063df4befd114610454578063f2fde38b1461047f5761012a565b8063715018a614610313578063796f52101461032a5780637addeeeb1461036a5780638da5cb5b14610393578063a62c4169146103be5761012a565b80634c64c030116100e75780634c64c030146102295780634f0aeca21461025457806357d50f4d1461029457806359126991146102bf5780636a34b0cc146102e85761012a565b8063246fd0871461012f578063293371be1461015857806332bf382e1461019557806332c0a979146101d55780633a10fb6f146101fe5761012a565b3661012a57005b600080fd5b34801561013b57600080fd5b5061015660048036038101906101519190611f1e565b6104a8565b005b34801561016457600080fd5b5061017f600480360381019061017a9190611f1e565b6104f4565b60405161018c9190611f64565b60405180910390f35b3480156101a157600080fd5b506101bc60048036038101906101b79190611fab565b61050c565b6040516101cc9493929190612002565b60405180910390f35b3480156101e157600080fd5b506101fc60048036038101906101f79190611fab565b610589565b005b34801561020a57600080fd5b50610213610802565b6040516102209190612047565b60405180910390f35b34801561023557600080fd5b5061023e610828565b60405161024b9190611f64565b60405180910390f35b34801561026057600080fd5b5061027b60048036038101906102769190611fab565b61082f565b60405161028b9493929190612002565b60405180910390f35b3480156102a057600080fd5b506102a96108ac565b6040516102b69190612047565b60405180910390f35b3480156102cb57600080fd5b506102e660048036038101906102e191906120b3565b6108d2565b005b3480156102f457600080fd5b506102fd610cbb565b60405161030a9190611f64565b60405180910390f35b34801561031f57600080fd5b50610328610cc1565b005b34801561033657600080fd5b50610351600480360381019061034c9190611fab565b610cd5565b6040516103619493929190612002565b60405180910390f35b34801561037657600080fd5b50610391600480360381019061038c9190611fab565b610d52565b005b34801561039f57600080fd5b506103a8610d64565b6040516103b59190612047565b60405180910390f35b3480156103ca57600080fd5b506103d3610d8d565b6040516103e09190611f64565b60405180910390f35b3480156103f557600080fd5b50610410600480360381019061040b9190611f1e565b610d93565b60405161041d9190611f64565b60405180910390f35b34801561043257600080fd5b5061043b610dab565b005b34801561044957600080fd5b50610452611014565b005b34801561046057600080fd5b50610469611176565b6040516104769190611f64565b60405180910390f35b34801561048b57600080fd5b506104a660048036038101906104a19190611f1e565b61117c565b005b6104b0611202565b80600360006101000a81548173ffffffffffffffffffffffffffffffffffffffff021916908373ffffffffffffffffffffffffffffffffffffffff16021790555050565b60076020528060005260406000206000915090505481565b60096020528060005260406000206000915090508060000160009054906101000a900473ffffffffffffffffffffffffffffffffffffffff16908060010160009054906101000a900473ffffffffffffffffffffffffffffffffffffffff16908060020154908060030160009054906101000a900460ff16905084565b610591611202565b62278d006005546105a2919061216f565b4210156105e4576040517f08c379a00000000000000000000000000000000000000000000000000000000081526004016105db90612200565b60405180910390fd5b600073ffffffffffffffffffffffffffffffffffffffff16600360009054906101000a900473ffffffffffffffffffffffffffffffffffffffff1673ffffffffffffffffffffffffffffffffffffffff1603610675576040517f08c379a000000000000000000000000000000000000000000000000000000000815260040161066c9061226c565b60405180910390fd5b6000600454036106ba576040517f08c379a00000000000000000000000000000000000000000000000000000000081526004016106b1906122d8565b60405180910390fd5b6000600360009054906101000a900473ffffffffffffffffffffffffffffffffffffffff1673ffffffffffffffffffffffffffffffffffffffff1663e63697c860045430856040518463ffffffff1660e01b815260040161071d93929190612319565b6020604051808303816000875af115801561073c573d6000803e3d6000fd5b505050506040513d601f19601f820116820180604052508101906107609190612365565b9050600081116107a5576040517f08c379a000000000000000000000000000000000000000000000000000000000815260040161079c906123de565b60405180910390fd5b80600660008282546107b7919061216f565b92505081905550426005819055507f8ffc80d35e984c53e09d081563077e24cf5052871026cf6608859ecf50e11a0b81426040516107f69291906123fe565b60405180910390a15050565b600360009054906101000a900473ffffffffffffffffffffffffffffffffffffffff1681565b62278d0081565b600b6020528060005260406000206000915090508060000160009054906101000a900473ffffffffffffffffffffffffffffffffffffffff16908060010160009054906101000a900473ffffffffffffffffffffffffffffffffffffffff16908060020154908060030160009054906101000a900460ff16905084565b600260009054906101000a900473ffffffffffffffffffffffffffffffffffffffff1681565b600260009054906101000a900473ffffffffffffffffffffffffffffffffffffffff1673ffffffffffffffffffffffffffffffffffffffff163373ffffffffffffffffffffffffffffffffffffffff1614610962576040517f08c379a000000000000000000000000000000000000000000000000000000000815260040161095990612473565b60405180910390fd5b600060405180608001604052808773ffffffffffffffffffffffffffffffffffffffff1681526020018673ffffffffffffffffffffffffffffffffffffffff1681526020018581526020018415158152509050600060028111156109c9576109c8612493565b5b8260028111156109dc576109db612493565b5b03610ab557806009600089815260200190815260200160002060008201518160000160006101000a81548173ffffffffffffffffffffffffffffffffffffffff021916908373ffffffffffffffffffffffffffffffffffffffff16021790555060208201518160010160006101000a81548173ffffffffffffffffffffffffffffffffffffffff021916908373ffffffffffffffffffffffffffffffffffffffff1602179055506040820151816002015560608201518160030160006101000a81548160ff021916908315150217905550905050610cb2565b60016002811115610ac957610ac8612493565b5b826002811115610adc57610adb612493565b5b03610bb55780600a600089815260200190815260200160002060008201518160000160006101000a81548173ffffffffffffffffffffffffffffffffffffffff021916908373ffffffffffffffffffffffffffffffffffffffff16021790555060208201518160010160006101000a81548173ffffffffffffffffffffffffffffffffffffffff021916908373ffffffffffffffffffffffffffffffffffffffff1602179055506040820151816002015560608201518160030160006101000a81548160ff021916908315150217905550905050610cb1565b600280811115610bc857610bc7612493565b5b826002811115610bdb57610bda612493565b5b03610cb05780600b600089815260200190815260200160002060008201518160000160006101000a81548173ffffffffffffffffffffffffffffffffffffffff021916908373ffffffffffffffffffffffffffffffffffffffff16021790555060208201518160010160006101000a81548173ffffffffffffffffffffffffffffffffffffffff021916908373ffffffffffffffffffffffffffffffffffffffff1602179055506040820151816002015560608201518160030160006101000a81548160ff0219169083151502179055509050505b5b5b50505050505050565b60045481565b610cc9611202565b610cd36000611289565b565b600a6020528060005260406000206000915090508060000160009054906101000a900473ffffffffffffffffffffffffffffffffffffffff16908060010160009054906101000a900473ffffffffffffffffffffffffffffffffffffffff16908060020154908060030160009054906101000a900460ff16905084565b610d5a611202565b8060048190555050565b60008060009054906101000a900473ffffffffffffffffffffffffffffffffffffffff16905090565b60055481565b60086020528060005260406000206000915090505481565b610db361134d565b6000600860003373ffffffffffffffffffffffffffffffffffffffff1673ffffffffffffffffffffffffffffffffffffffff16815260200190815260200160002054600760003373ffffffffffffffffffffffffffffffffffffffff1673ffffffffffffffffffffffffffffffffffffffff16815260200190815260200160002054610e3f919061216f565b905060008111610e84576040517f08c379a0000000000000000000000000000000000000000000000000000000008152600401610e7b9061250e565b60405180910390fd5b6000600760003373ffffffffffffffffffffffffffffffffffffffff1673ffffffffffffffffffffffffffffffffffffffff168152602001908152602001600020819055506000600860003373ffffffffffffffffffffffffffffffffffffffff1673ffffffffffffffffffffffffffffffffffffffff1681526020019081526020016000208190555060003373ffffffffffffffffffffffffffffffffffffffff1682604051610f349061255f565b60006040518083038185875af1925050503d8060008114610f71576040519150601f19603f3d011682016040523d82523d6000602084013e610f76565b606091505b5050905080610fba576040517f08c379a0000000000000000000000000000000000000000000000000000000008152600401610fb1906125c0565b60405180910390fd5b3373ffffffffffffffffffffffffffffffffffffffff167f8a43c4352486ec339f487f64af78ca5cbf06cd47833f073d3baf3a193e503161836040516110009190611f64565b60405180910390a25050611012611393565b565b61101c611202565b6000600654905060008111611066576040517f08c379a000000000000000000000000000000000000000000000000000000000815260040161105d9061262c565b60405180910390fd5b60006006819055506110778161139c565b61108081611c3d565b6000479050600061108f610d64565b73ffffffffffffffffffffffffffffffffffffffff16826040516110b29061255f565b60006040518083038185875af1925050503d80600081146110ef576040519150601f19603f3d011682016040523d82523d6000602084013e6110f4565b606091505b5050905080611138576040517f08c379a000000000000000000000000000000000000000000000000000000000815260040161112f90612698565b60405180910390fd5b7f29e98ba00d07f171959c4ddcd2f3020debc7c52cf537a034d7e664340d098c6c83426040516111699291906123fe565b60405180910390a1505050565b60065481565b611184611202565b600073ffffffffffffffffffffffffffffffffffffffff168173ffffffffffffffffffffffffffffffffffffffff16036111f65760006040517f1e4fbdf70000000000000000000000000000000000000000000000000000000081526004016111ed9190612047565b60405180910390fd5b6111ff81611289565b50565b61120a611eb3565b73ffffffffffffffffffffffffffffffffffffffff16611228610d64565b73ffffffffffffffffffffffffffffffffffffffff16146112875761124b611eb3565b6040517f118cdaa700000000000000000000000000000000000000000000000000000000815260040161127e9190612047565b60405180910390fd5b565b60008060009054906101000a900473ffffffffffffffffffffffffffffffffffffffff169050816000806101000a81548173ffffffffffffffffffffffffffffffffffffffff021916908373ffffffffffffffffffffffffffffffffffffffff1602179055508173ffffffffffffffffffffffffffffffffffffffff168173ffffffffffffffffffffffffffffffffffffffff167f8be0079c531659141344cd1fd0a4f28419497f9722a3daafe3b4186f6b6457e060405160405180910390a35050565b600260015403611389576040517f3ee5aeb500000000000000000000000000000000000000000000000000000000815260040160405180910390fd5b6002600181905550565b60018081905550565b6000600260009054906101000a900473ffffffffffffffffffffffffffffffffffffffff16905060008173ffffffffffffffffffffffffffffffffffffffff1663caa0f92a6040518163ffffffff1660e01b8152600401602060405180830381865afa158015611410573d6000803e3d6000fd5b505050506040513d601f19601f820116820180604052508101906114349190612365565b90506000805b828110156114c157600960008281526020019081526020016000206002015482611464919061216f565b9150600a60008281526020019081526020016000206002015482611488919061216f565b9150600b600082815260200190815260200160002060020154826114ac919061216f565b915080806114b9906126b8565b91505061143a565b5060008111611505576040517f08c379a00000000000000000000000000000000000000000000000000000000081526004016114fc9061274c565b60405180910390fd5b60005b82811015611754576000600960008381526020019081526020016000206040518060800160405290816000820160009054906101000a900473ffffffffffffffffffffffffffffffffffffffff1673ffffffffffffffffffffffffffffffffffffffff1673ffffffffffffffffffffffffffffffffffffffff1681526020016001820160009054906101000a900473ffffffffffffffffffffffffffffffffffffffff1673ffffffffffffffffffffffffffffffffffffffff1673ffffffffffffffffffffffffffffffffffffffff168152602001600282015481526020016003820160009054906101000a900460ff161515151581525050905060008160400151111561174057600060648461161f919061276c565b6028836040015189611631919061276c565b61163b919061276c565b61164591906127dd565b90508060076000846000015173ffffffffffffffffffffffffffffffffffffffff1673ffffffffffffffffffffffffffffffffffffffff168152602001908152602001600020600082825461169a919061216f565b9250508190555081606001511561173e5760006064856116ba919061276c565b601484604001518a6116cc919061276c565b6116d6919061276c565b6116e091906127dd565b90508060086000856020015173ffffffffffffffffffffffffffffffffffffffff1673ffffffffffffffffffffffffffffffffffffffff1681526020019081526020016000206000828254611735919061216f565b92505081905550505b505b50808061174c906126b8565b915050611508565b5060005b828110156119a4576000600a60008381526020019081526020016000206040518060800160405290816000820160009054906101000a900473ffffffffffffffffffffffffffffffffffffffff1673ffffffffffffffffffffffffffffffffffffffff1673ffffffffffffffffffffffffffffffffffffffff1681526020016001820160009054906101000a900473ffffffffffffffffffffffffffffffffffffffff1673ffffffffffffffffffffffffffffffffffffffff1673ffffffffffffffffffffffffffffffffffffffff168152602001600282015481526020016003820160009054906101000a900460ff161515151581525050905060008160400151111561199057600060648461186f919061276c565b6028836040015189611881919061276c565b61188b919061276c565b61189591906127dd565b90508060076000846000015173ffffffffffffffffffffffffffffffffffffffff1673ffffffffffffffffffffffffffffffffffffffff16815260200190815260200160002060008282546118ea919061216f565b9250508190555081606001511561198e57600060648561190a919061276c565b600f84604001518a61191c919061276c565b611926919061276c565b61193091906127dd565b90508060086000856020015173ffffffffffffffffffffffffffffffffffffffff1673ffffffffffffffffffffffffffffffffffffffff1681526020019081526020016000206000828254611985919061216f565b92505081905550505b505b50808061199c906126b8565b915050611758565b5060005b82811015611c36576000600b60008381526020019081526020016000206040518060800160405290816000820160009054906101000a900473ffffffffffffffffffffffffffffffffffffffff1673ffffffffffffffffffffffffffffffffffffffff1673ffffffffffffffffffffffffffffffffffffffff1681526020016001820160009054906101000a900473ffffffffffffffffffffffffffffffffffffffff1673ffffffffffffffffffffffffffffffffffffffff1673ffffffffffffffffffffffffffffffffffffffff168152602001600282015481526020016003820160009054906101000a900460ff1615151515815250509050600081604001511115611c225760008160600151611af357606484611ac8919061276c565b6028836040015189611ada919061276c565b611ae4919061276c565b611aee91906127dd565b611b27565b606484611b00919061276c565b6023836040015189611b12919061276c565b611b1c919061276c565b611b2691906127dd565b5b90508060076000846000015173ffffffffffffffffffffffffffffffffffffffff1673ffffffffffffffffffffffffffffffffffffffff1681526020019081526020016000206000828254611b7c919061216f565b92505081905550816060015115611c20576000606485611b9c919061276c565b600f84604001518a611bae919061276c565b611bb8919061276c565b611bc291906127dd565b90508060086000856020015173ffffffffffffffffffffffffffffffffffffffff1673ffffffffffffffffffffffffffffffffffffffff1681526020019081526020016000206000828254611c17919061216f565b92505081905550505b505b508080611c2e906126b8565b9150506119a8565b5050505050565b6000600260009054906101000a900473ffffffffffffffffffffffffffffffffffffffff16905060008173ffffffffffffffffffffffffffffffffffffffff1663caa0f92a6040518163ffffffff1660e01b8152600401602060405180830381865afa158015611cb1573d6000803e3d6000fd5b505050506040513d601f19601f82011682018060405250810190611cd59190612365565b905060008080600090505b83811015611e025760008573ffffffffffffffffffffffffffffffffffffffff16633fb6d39e836040518263ffffffff1660e01b8152600401611d239190611f64565b602060405180830381865afa158015611d40573d6000803e3d6000fd5b505050506040513d601f19601f82011682018060405250810190611d649190612365565b905083811115611dee578093508573ffffffffffffffffffffffffffffffffffffffff166337346783836040518263ffffffff1660e01b8152600401611daa9190611f64565b602060405180830381865afa158015611dc7573d6000803e3d6000fd5b505050506040513d601f19601f82011682018060405250810190611deb9190612823565b92505b508080611dfa906126b8565b915050611ce0565b50600073ffffffffffffffffffffffffffffffffffffffff168173ffffffffffffffffffffffffffffffffffffffff1614611eac5760006064601487611e48919061276c565b611e5291906127dd565b905080600760008473ffffffffffffffffffffffffffffffffffffffff1673ffffffffffffffffffffffffffffffffffffffff1681526020019081526020016000206000828254611ea3919061216f565b92505081905550505b5050505050565b600033905090565b600080fd5b600073ffffffffffffffffffffffffffffffffffffffff82169050919050565b6000611eeb82611ec0565b9050919050565b611efb81611ee0565b8114611f0657600080fd5b50565b600081359050611f1881611ef2565b92915050565b600060208284031215611f3457611f33611ebb565b5b6000611f4284828501611f09565b91505092915050565b6000819050919050565b611f5e81611f4b565b82525050565b6000602082019050611f796000830184611f55565b92915050565b611f8881611f4b565b8114611f9357600080fd5b50565b600081359050611fa581611f7f565b92915050565b600060208284031215611fc157611fc0611ebb565b5b6000611fcf84828501611f96565b91505092915050565b611fe181611ee0565b82525050565b60008115159050919050565b611ffc81611fe7565b82525050565b60006080820190506120176000830187611fd8565b6120246020830186611fd8565b6120316040830185611f55565b61203e6060830184611ff3565b95945050505050565b600060208201905061205c6000830184611fd8565b92915050565b61206b81611fe7565b811461207657600080fd5b50565b60008135905061208881612062565b92915050565b6003811061209b57600080fd5b50565b6000813590506120ad8161208e565b92915050565b60008060008060008060c087890312156120d0576120cf611ebb565b5b60006120de89828a01611f96565b96505060206120ef89828a01611f09565b955050604061210089828a01611f09565b945050606061211189828a01611f96565b935050608061212289828a01612079565b92505060a061213389828a0161209e565b9150509295509295509295565b7f4e487b7100000000000000000000000000000000000000000000000000000000600052601160045260246000fd5b600061217a82611f4b565b915061218583611f4b565b925082820190508082111561219d5761219c612140565b5b92915050565b600082825260208201905092915050565b7f546f6f206561726c7920746f2077697468647261770000000000000000000000600082015250565b60006121ea6015836121a3565b91506121f5826121b4565b602082019050919050565b60006020820190508181036000830152612219816121dd565b9050919050565b7f4761734261636b20636f6e7472616374206e6f74207365740000000000000000600082015250565b60006122566018836121a3565b915061226182612220565b602082019050919050565b6000602082019050818103600083015261228581612249565b9050919050565b7f4761734261636b20746f6b656e204944206e6f74207365740000000000000000600082015250565b60006122c26018836121a3565b91506122cd8261228c565b602082019050919050565b600060208201905081810360008301526122f1816122b5565b9050919050565b600061230382611ec0565b9050919050565b612313816122f8565b82525050565b600060608201905061232e6000830186611f55565b61233b602083018561230a565b6123486040830184611f55565b949350505050565b60008151905061235f81611f7f565b92915050565b60006020828403121561237b5761237a611ebb565b5b600061238984828501612350565b91505092915050565b7f4e6f204554482072656365697665640000000000000000000000000000000000600082015250565b60006123c8600f836121a3565b91506123d382612392565b602082019050919050565b600060208201905081810360008301526123f7816123bb565b9050919050565b60006040820190506124136000830185611f55565b6124206020830184611f55565b9392505050565b7f4f6e6c79204d656d65466f7267652063616e207265636f726400000000000000600082015250565b600061245d6019836121a3565b915061246882612427565b602082019050919050565b6000602082019050818103600083015261248c81612450565b9050919050565b7f4e487b7100000000000000000000000000000000000000000000000000000000600052602160045260246000fd5b7f4e6f207265776172647320746f20776974686472617700000000000000000000600082015250565b60006124f86016836121a3565b9150612503826124c2565b602082019050919050565b60006020820190508181036000830152612527816124eb565b9050919050565b600081905092915050565b50565b600061254960008361252e565b915061255482612539565b600082019050919050565b600061256a8261253c565b9150819050919050565b7f4661696c656420746f2073656e64207265776172647300000000000000000000600082015250565b60006125aa6016836121a3565b91506125b582612574565b602082019050919050565b600060208201905081810360008301526125d98161259d565b9050919050565b7f4e6f207265776172647320746f20646973747269627574650000000000000000600082015250565b60006126166018836121a3565b9150612621826125e0565b602082019050919050565b6000602082019050818103600083015261264581612609565b9050919050565b7f4661696c656420746f2073656e6420746f206f776e6572000000000000000000600082015250565b60006126826017836121a3565b915061268d8261264c565b602082019050919050565b600060208201905081810360008301526126b181612675565b9050919050565b60006126c382611f4b565b91507fffffffffffffffffffffffffffffffffffffffffffffffffffffffffffffffff82036126f5576126f4612140565b5b600182019050919050565b7f4e6f20676173207573616765207265636f726465640000000000000000000000600082015250565b60006127366015836121a3565b915061274182612700565b602082019050919050565b6000602082019050818103600083015261276581612729565b9050919050565b600061277782611f4b565b915061278283611f4b565b925082820261279081611f4b565b915082820484148315176127a7576127a6612140565b5b5092915050565b7f4e487b7100000000000000000000000000000000000000000000000000000000600052601260045260246000fd5b60006127e882611f4b565b91506127f383611f4b565b925082612803576128026127ae565b5b828204905092915050565b60008151905061281d81611ef2565b92915050565b60006020828403121561283957612838611ebb565b5b60006128478482850161280e565b9150509291505056fea2646970667358221220af10e15aa1aa2e0c55373366cdadd1c58b7c7f1ef9b33b5c062897b8a74a8ee164736f6c63430008140033",
  "linkReferences": {},
  "deployedLinkReferences": {}
}