{
  "_format": "hh-sol-artifact-1",
  "contractName": "MemeForgeCore",
  "sourceName": "contracts/MemeForgeCore.sol",
  "abi": [
    {
      "inputs": [],
      "stateMutability": "nonpayable",
      "type": "constructor"
    },
    {
      "inputs": [
        {
          "internalType": "uint256",
          "name": "numerator",
          "type": "uint256"
        },
        {
          "internalType": "uint256",
          "name": "denominator",
          "type": "uint256"
        }
      ],
      "name": "ERC2981InvalidDefaultRoyalty",
      "type": "error"
    },
    {
      "inputs": [
        {
          "internalType": "address",
          "name": "receiver",
          "type": "address"
        }
      ],
      "name": "ERC2981InvalidDefaultRoyaltyReceiver",
      "type": "error"
    },
    {
      "inputs": [
        {
          "internalType": "uint256",
          "name": "tokenId",
          "type": "uint256"
        },
        {
          "internalType": "uint256",
          "name": "numerator",
          "type": "uint256"
        },
        {
          "internalType": "uint256",
          "name": "denominator",
          "type": "uint256"
        }
      ],
      "name": "ERC2981InvalidTokenRoyalty",
      "type": "error"
    },
    {
      "inputs": [
        {
          "internalType": "uint256",
          "name": "tokenId",
          "type": "uint256"
        },
        {
          "internalType": "address",
          "name": "receiver",
          "type": "address"
        }
      ],
      "name": "ERC2981InvalidTokenRoyaltyReceiver",
      "type": "error"
    },
    {
      "inputs": [
        {
          "internalType": "address",
          "name": "sender",
          "type": "address"
        },
        {
          "internalType": "uint256",
          "name": "tokenId",
          "type": "uint256"
        },
        {
          "internalType": "address",
          "name": "owner",
          "type": "address"
        }
      ],
      "name": "ERC721IncorrectOwner",
      "type": "error"
    },
    {
      "inputs": [
        {
          "internalType": "address",
          "name": "operator",
          "type": "address"
        },
        {
          "internalType": "uint256",
          "name": "tokenId",
          "type": "uint256"
        }
      ],
      "name": "ERC721InsufficientApproval",
      "type": "error"
    },
    {
      "inputs": [
        {
          "internalType": "address",
          "name": "approver",
          "type": "address"
        }
      ],
      "name": "ERC721InvalidApprover",
      "type": "error"
    },
    {
      "inputs": [
        {
          "internalType": "address",
          "name": "operator",
          "type": "address"
        }
      ],
      "name": "ERC721InvalidOperator",
      "type": "error"
    },
    {
      "inputs": [
        {
          "internalType": "address",
          "name": "owner",
          "type": "address"
        }
      ],
      "name": "ERC721InvalidOwner",
      "type": "error"
    },
    {
      "inputs": [
        {
          "internalType": "address",
          "name": "receiver",
          "type": "address"
        }
      ],
      "name": "ERC721InvalidReceiver",
      "type": "error"
    },
    {
      "inputs": [
        {
          "internalType": "address",
          "name": "sender",
          "type": "address"
        }
      ],
      "name": "ERC721InvalidSender",
      "type": "error"
    },
    {
      "inputs": [
        {
          "internalType": "uint256",
          "name": "tokenId",
          "type": "uint256"
        }
      ],
      "name": "ERC721NonexistentToken",
      "type": "error"
    },
    {
      "inputs": [
        {
          "internalType": "address",
          "name": "owner",
          "type": "address"
        }
      ],
      "name": "OwnableInvalidOwner",
      "type": "error"
    },
    {
      "inputs": [
        {
          "internalType": "address",
          "name": "account",
          "type": "address"
        }
      ],
      "name": "OwnableUnauthorizedAccount",
      "type": "error"
    },
    {
      "inputs": [],
      "name": "ReentrancyGuardReentrantCall",
      "type": "error"
    },
    {
      "anonymous": false,
      "inputs": [
        {
          "indexed": true,
          "internalType": "address",
          "name": "owner",
          "type": "address"
        },
        {
          "indexed": true,
          "internalType": "address",
          "name": "approved",
          "type": "address"
        },
        {
          "indexed": true,
          "internalType": "uint256",
          "name": "tokenId",
          "type": "uint256"
        }
      ],
      "name": "Approval",
      "type": "event"
    },
    {
      "anonymous": false,
      "inputs": [
        {
          "indexed": true,
          "internalType": "address",
          "name": "owner",
          "type": "address"
        },
        {
          "indexed": true,
          "internalType": "address",
          "name": "operator",
          "type": "address"
        },
        {
          "indexed": false,
          "internalType": "bool",
          "name": "approved",
          "type": "bool"
        }
      ],
      "name": "ApprovalForAll",
      "type": "event"
    },
    {
      "anonymous": false,
      "inputs": [
        {
          "indexed": false,
          "internalType": "uint256",
          "name": "_fromTokenId",
          "type": "uint256"
        },
        {
          "indexed": false,
          "internalType": "uint256",
          "name": "_toTokenId",
          "type": "uint256"
        }
      ],
      "name": "BatchMetadataUpdate",
      "type": "event"
    },
    {
      "anonymous": false,
      "inputs": [
        {
          "indexed": true,
          "internalType": "uint256",
          "name": "tokenId",
          "type": "uint256"
        },
        {
          "indexed": false,
          "internalType": "address",
          "name": "creator",
          "type": "address"
        }
      ],
      "name": "MemeCreated",
      "type": "event"
    },
    {
      "anonymous": false,
      "inputs": [
        {
          "indexed": true,
          "internalType": "uint256",
          "name": "tokenId",
          "type": "uint256"
        },
        {
          "indexed": false,
          "internalType": "address",
          "name": "liker",
          "type": "address"
        }
      ],
      "name": "MemeLiked",
      "type": "event"
    },
    {
      "anonymous": false,
      "inputs": [
        {
          "indexed": true,
          "internalType": "uint256",
          "name": "originalTokenId",
          "type": "uint256"
        },
        {
          "indexed": true,
          "internalType": "uint256",
          "name": "newTokenId",
          "type": "uint256"
        },
        {
          "indexed": false,
          "internalType": "address",
          "name": "remixer",
          "type": "address"
        },
        {
          "indexed": false,
          "internalType": "string",
          "name": "uri",
          "type": "string"
        }
      ],
      "name": "MemeRemixed",
      "type": "event"
    },
    {
      "anonymous": false,
      "inputs": [
        {
          "indexed": true,
          "internalType": "uint256",
          "name": "tokenId",
          "type": "uint256"
        },
        {
          "indexed": false,
          "internalType": "address",
          "name": "voter",
          "type": "address"
        }
      ],
      "name": "MemeVoted",
      "type": "event"
    },
    {
      "anonymous": false,
      "inputs": [
        {
          "indexed": false,
          "internalType": "uint256",
          "name": "_tokenId",
          "type": "uint256"
        }
      ],
      "name": "MetadataUpdate",
      "type": "event"
    },
    {
      "anonymous": false,
      "inputs": [
        {
          "indexed": true,
          "internalType": "address",
          "name": "previousOwner",
          "type": "address"
        },
        {
          "indexed": true,
          "internalType": "address",
          "name": "newOwner",
          "type": "address"
        }
      ],
      "name": "OwnershipTransferred",
      "type": "event"
    },
    {
      "anonymous": false,
      "inputs": [
        {
          "indexed": false,
          "internalType": "uint256",
          "name": "tokenId",
          "type": "uint256"
        },
        {
          "indexed": false,
          "internalType": "uint256",
          "name": "salePrice",
          "type": "uint256"
        },
        {
          "indexed": false,
          "internalType": "uint256",
          "name": "creatorAmount",
          "type": "uint256"
        },
        {
          "indexed": false,
          "internalType": "uint256",
          "name": "devAmount",
          "type": "uint256"
        },
        {
          "indexed": false,
          "internalType": "uint256",
          "name": "remixerAmount",
          "type": "uint256"
        }
      ],
      "name": "RoyaltiesPaid",
      "type": "event"
    },
    {
      "anonymous": false,
      "inputs": [
        {
          "indexed": true,
          "internalType": "address",
          "name": "from",
          "type": "address"
        },
        {
          "indexed": true,
          "internalType": "address",
          "name": "to",
          "type": "address"
        },
        {
          "indexed": true,
          "internalType": "uint256",
          "name": "tokenId",
          "type": "uint256"
        }
      ],
      "name": "Transfer",
      "type": "event"
    },
    {
      "inputs": [],
      "name": "CREATOR_FEE",
      "outputs": [
        {
          "internalType": "uint96",
          "name": "",
          "type": "uint96"
        }
      ],
      "stateMutability": "view",
      "type": "function"
    },
    {
      "inputs": [],
      "name": "DEV_FEE_BASE",
      "outputs": [
        {
          "internalType": "uint96",
          "name": "",
          "type": "uint96"
        }
      ],
      "stateMutability": "view",
      "type": "function"
    },
    {
      "inputs": [],
      "name": "DEV_FEE_NO_REMIX",
      "outputs": [
        {
          "internalType": "uint96",
          "name": "",
          "type": "uint96"
        }
      ],
      "stateMutability": "view",
      "type": "function"
    },
    {
      "inputs": [],
      "name": "REMIX_FEE",
      "outputs": [
        {
          "internalType": "uint96",
          "name": "",
          "type": "uint96"
        }
      ],
      "stateMutability": "view",
      "type": "function"
    },
    {
      "inputs": [
        {
          "internalType": "address",
          "name": "to",
          "type": "address"
        },
        {
          "internalType": "uint256",
          "name": "tokenId",
          "type": "uint256"
        }
      ],
      "name": "approve",
      "outputs": [],
      "stateMutability": "nonpayable",
      "type": "function"
    },
    {
      "inputs": [
        {
          "internalType": "address",
          "name": "owner",
          "type": "address"
        }
      ],
      "name": "balanceOf",
      "outputs": [
        {
          "internalType": "uint256",
          "name": "",
          "type": "uint256"
        }
      ],
      "stateMutability": "view",
      "type": "function"
    },
    {
      "inputs": [
        {
          "internalType": "uint256",
          "name": "tokenId",
          "type": "uint256"
        }
      ],
      "name": "calculateTrendingScore",
      "outputs": [
        {
          "internalType": "uint256",
          "name": "",
          "type": "uint256"
        }
      ],
      "stateMutability": "view",
      "type": "function"
    },
    {
      "inputs": [
        {
          "internalType": "string",
          "name": "uri",
          "type": "string"
        }
      ],
      "name": "createMeme",
      "outputs": [
        {
          "internalType": "uint256",
          "name": "",
          "type": "uint256"
        }
      ],
      "stateMutability": "nonpayable",
      "type": "function"
    },
    {
      "inputs": [],
      "name": "gasBackContract",
      "outputs": [
        {
          "internalType": "address",
          "name": "",
          "type": "address"
        }
      ],
      "stateMutability": "view",
      "type": "function"
    },
    {
      "inputs": [
        {
          "internalType": "uint256",
          "name": "tokenId",
          "type": "uint256"
        }
      ],
      "name": "getApproved",
      "outputs": [
        {
          "internalType": "address",
          "name": "",
          "type": "address"
        }
      ],
      "stateMutability": "view",
      "type": "function"
    },
    {
      "inputs": [
        {
          "internalType": "uint256",
          "name": "tokenId",
          "type": "uint256"
        }
      ],
      "name": "getMemeCreator",
      "outputs": [
        {
          "internalType": "address",
          "name": "",
          "type": "address"
        }
      ],
      "stateMutability": "view",
      "type": "function"
    },
    {
      "inputs": [
        {
          "internalType": "uint256",
          "name": "tokenId",
          "type": "uint256"
        }
      ],
      "name": "getMemeData",
      "outputs": [
        {
          "components": [
            {
              "internalType": "string",
              "name": "uri",
              "type": "string"
            },
            {
              "internalType": "address",
              "name": "creator",
              "type": "address"
            },
            {
              "internalType": "uint256",
              "name": "likes",
              "type": "uint256"
            },
            {
              "internalType": "uint256",
              "name": "remixes",
              "type": "uint256"
            },
            {
              "internalType": "uint256",
              "name": "votes",
              "type": "uint256"
            },
            {
              "internalType": "bool",
              "name": "isRemix",
              "type": "bool"
            },
            {
              "internalType": "uint256",
              "name": "originalMemeId",
              "type": "uint256"
            },
            {
              "internalType": "uint256",
              "name": "timestamp",
              "type": "uint256"
            }
          ],
          "internalType": "struct MemeForgeCore.MemeData",
          "name": "",
          "type": "tuple"
        }
      ],
      "stateMutability": "view",
      "type": "function"
    },
    {
      "inputs": [
        {
          "internalType": "uint256",
          "name": "tokenId",
          "type": "uint256"
        }
      ],
      "name": "getMemeVotes",
      "outputs": [
        {
          "internalType": "uint256",
          "name": "",
          "type": "uint256"
        }
      ],
      "stateMutability": "view",
      "type": "function"
    },
    {
      "inputs": [],
      "name": "getNextTokenId",
      "outputs": [
        {
          "internalType": "uint256",
          "name": "",
          "type": "uint256"
        }
      ],
      "stateMutability": "view",
      "type": "function"
    },
    {
      "inputs": [
        {
          "internalType": "uint256",
          "name": "tokenId",
          "type": "uint256"
        }
      ],
      "name": "getOriginalMemeId",
      "outputs": [
        {
          "internalType": "uint256",
          "name": "",
          "type": "uint256"
        }
      ],
      "stateMutability": "view",
      "type": "function"
    },
    {
      "inputs": [
        {
          "internalType": "uint256",
          "name": "limit",
          "type": "uint256"
        }
      ],
      "name": "getTrendingMemes",
      "outputs": [
        {
          "internalType": "uint256[]",
          "name": "",
          "type": "uint256[]"
        }
      ],
      "stateMutability": "view",
      "type": "function"
    },
    {
      "inputs": [
        {
          "internalType": "address",
          "name": "",
          "type": "address"
        },
        {
          "internalType": "uint256",
          "name": "",
          "type": "uint256"
        }
      ],
      "name": "hasLiked",
      "outputs": [
        {
          "internalType": "bool",
          "name": "",
          "type": "bool"
        }
      ],
      "stateMutability": "view",
      "type": "function"
    },
    {
      "inputs": [
        {
          "internalType": "address",
          "name": "",
          "type": "address"
        },
        {
          "internalType": "uint256",
          "name": "",
          "type": "uint256"
        }
      ],
      "name": "hasVoted",
      "outputs": [
        {
          "internalType": "bool",
          "name": "",
          "type": "bool"
        }
      ],
      "stateMutability": "view",
      "type": "function"
    },
    {
      "inputs": [
        {
          "internalType": "address",
          "name": "owner",
          "type": "address"
        },
        {
          "internalType": "address",
          "name": "operator",
          "type": "address"
        }
      ],
      "name": "isApprovedForAll",
      "outputs": [
        {
          "internalType": "bool",
          "name": "",
          "type": "bool"
        }
      ],
      "stateMutability": "view",
      "type": "function"
    },
    {
      "inputs": [
        {
          "internalType": "uint256",
          "name": "tokenId",
          "type": "uint256"
        }
      ],
      "name": "isRemix",
      "outputs": [
        {
          "internalType": "bool",
          "name": "",
          "type": "bool"
        }
      ],
      "stateMutability": "view",
      "type": "function"
    },
    {
      "inputs": [
        {
          "internalType": "uint256",
          "name": "tokenId",
          "type": "uint256"
        }
      ],
      "name": "likeMeme",
      "outputs": [],
      "stateMutability": "nonpayable",
      "type": "function"
    },
    {
      "inputs": [
        {
          "internalType": "uint256",
          "name": "",
          "type": "uint256"
        }
      ],
      "name": "memes",
      "outputs": [
        {
          "internalType": "string",
          "name": "uri",
          "type": "string"
        },
        {
          "internalType": "address",
          "name": "creator",
          "type": "address"
        },
        {
          "internalType": "uint256",
          "name": "likes",
          "type": "uint256"
        },
        {
          "internalType": "uint256",
          "name": "remixes",
          "type": "uint256"
        },
        {
          "internalType": "uint256",
          "name": "votes",
          "type": "uint256"
        },
        {
          "internalType": "bool",
          "name": "isRemix",
          "type": "bool"
        },
        {
          "internalType": "uint256",
          "name": "originalMemeId",
          "type": "uint256"
        },
        {
          "internalType": "uint256",
          "name": "timestamp",
          "type": "uint256"
        }
      ],
      "stateMutability": "view",
      "type": "function"
    },
    {
      "inputs": [],
      "name": "name",
      "outputs": [
        {
          "internalType": "string",
          "name": "",
          "type": "string"
        }
      ],
      "stateMutability": "view",
      "type": "function"
    },
    {
      "inputs": [],
      "name": "owner",
      "outputs": [
        {
          "internalType": "address",
          "name": "",
          "type": "address"
        }
      ],
      "stateMutability": "view",
      "type": "function"
    },
    {
      "inputs": [
        {
          "internalType": "uint256",
          "name": "tokenId",
          "type": "uint256"
        }
      ],
      "name": "ownerOf",
      "outputs": [
        {
          "internalType": "address",
          "name": "",
          "type": "address"
        }
      ],
      "stateMutability": "view",
      "type": "function"
    },
    {
      "inputs": [
        {
          "internalType": "uint256",
          "name": "tokenId",
          "type": "uint256"
        }
      ],
      "name": "receiveRoyalties",
      "outputs": [],
      "stateMutability": "payable",
      "type": "function"
    },
    {
      "inputs": [
        {
          "internalType": "uint256",
          "name": "originalTokenId",
          "type": "uint256"
        },
        {
          "internalType": "string",
          "name": "newTokenURI",
          "type": "string"
        }
      ],
      "name": "remixMeme",
      "outputs": [
        {
          "internalType": "uint256",
          "name": "",
          "type": "uint256"
        }
      ],
      "stateMutability": "nonpayable",
      "type": "function"
    },
    {
      "inputs": [],
      "name": "renounceOwnership",
      "outputs": [],
      "stateMutability": "nonpayable",
      "type": "function"
    },
    {
      "inputs": [
        {
          "internalType": "uint256",
          "name": "tokenId",
          "type": "uint256"
        },
        {
          "internalType": "uint256",
          "name": "salePrice",
          "type": "uint256"
        }
      ],
      "name": "royaltyInfo",
      "outputs": [
        {
          "internalType": "address",
          "name": "receiver",
          "type": "address"
        },
        {
          "internalType": "uint256",
          "name": "royaltyAmount",
          "type": "uint256"
        }
      ],
      "stateMutability": "view",
      "type": "function"
    },
    {
      "inputs": [
        {
          "internalType": "address",
          "name": "from",
          "type": "address"
        },
        {
          "internalType": "address",
          "name": "to",
          "type": "address"
        },
        {
          "internalType": "uint256",
          "name": "tokenId",
          "type": "uint256"
        }
      ],
      "name": "safeTransferFrom",
      "outputs": [],
      "stateMutability": "nonpayable",
      "type": "function"
    },
    {
      "inputs": [
        {
          "internalType": "address",
          "name": "from",
          "type": "address"
        },
        {
          "internalType": "address",
          "name": "to",
          "type": "address"
        },
        {
          "internalType": "uint256",
          "name": "tokenId",
          "type": "uint256"
        },
        {
          "internalType": "bytes",
          "name": "data",
          "type": "bytes"
        }
      ],
      "name": "safeTransferFrom",
      "outputs": [],
      "stateMutability": "nonpayable",
      "type": "function"
    },
    {
      "inputs": [
        {
          "internalType": "address",
          "name": "operator",
          "type": "address"
        },
        {
          "internalType": "bool",
          "name": "approved",
          "type": "bool"
        }
      ],
      "name": "setApprovalForAll",
      "outputs": [],
      "stateMutability": "nonpayable",
      "type": "function"
    },
    {
      "inputs": [
        {
          "internalType": "address",
          "name": "_gasBackContract",
          "type": "address"
        }
      ],
      "name": "setGasBackContract",
      "outputs": [],
      "stateMutability": "nonpayable",
      "type": "function"
    },
    {
      "inputs": [
        {
          "internalType": "bytes4",
          "name": "interfaceId",
          "type": "bytes4"
        }
      ],
      "name": "supportsInterface",
      "outputs": [
        {
          "internalType": "bool",
          "name": "",
          "type": "bool"
        }
      ],
      "stateMutability": "view",
      "type": "function"
    },
    {
      "inputs": [],
      "name": "symbol",
      "outputs": [
        {
          "internalType": "string",
          "name": "",
          "type": "string"
        }
      ],
      "stateMutability": "view",
      "type": "function"
    },
    {
      "inputs": [
        {
          "internalType": "uint256",
          "name": "tokenId",
          "type": "uint256"
        }
      ],
      "name": "tokenURI",
      "outputs": [
        {
          "internalType": "string",
          "name": "",
          "type": "string"
        }
      ],
      "stateMutability": "view",
      "type": "function"
    },
    {
      "inputs": [
        {
          "internalType": "address",
          "name": "from",
          "type": "address"
        },
        {
          "internalType": "address",
          "name": "to",
          "type": "address"
        },
        {
          "internalType": "uint256",
          "name": "tokenId",
          "type": "uint256"
        }
      ],
      "name": "transferFrom",
      "outputs": [],
      "stateMutability": "nonpayable",
      "type": "function"
    },
    {
      "inputs": [
        {
          "internalType": "address",
          "name": "newOwner",
          "type": "address"
        }
      ],
      "name": "transferOwnership",
      "outputs": [],
      "stateMutability": "nonpayable",
      "type": "function"
    },
    {
      "inputs": [
        {
          "internalType": "uint256",
          "name": "tokenId",
          "type": "uint256"
        }
      ],
      "name": "voteMeme",
      "outputs": [],
      "stateMutability": "nonpayable",
      "type": "function"
    }
  ],
  "bytecode": "0x60806040523480156200001157600080fd5b50336040518060400160405280600981526020017f4d656d65466f72676500000000000000000000000000000000000000000000008152506040518060400160405280600481526020017f4d454d450000000000000000000000000000000000000000000000000000000081525081600090816200009091906200047a565b508060019081620000a291906200047a565b505050600073ffffffffffffffffffffffffffffffffffffffff168173ffffffffffffffffffffffffffffffffffffffff16036200011a5760006040517f1e4fbdf7000000000000000000000000000000000000000000000000000000008152600401620001119190620005a6565b60405180910390fd5b6200012b816200013a60201b60201c565b506001600881905550620005c3565b6000600760009054906101000a900473ffffffffffffffffffffffffffffffffffffffff16905081600760006101000a81548173ffffffffffffffffffffffffffffffffffffffff021916908373ffffffffffffffffffffffffffffffffffffffff1602179055508173ffffffffffffffffffffffffffffffffffffffff168173ffffffffffffffffffffffffffffffffffffffff167f8be0079c531659141344cd1fd0a4f28419497f9722a3daafe3b4186f6b6457e060405160405180910390a35050565b600081519050919050565b7f4e487b7100000000000000000000000000000000000000000000000000000000600052604160045260246000fd5b7f4e487b7100000000000000000000000000000000000000000000000000000000600052602260045260246000fd5b600060028204905060018216806200028257607f821691505b6020821081036200029857620002976200023a565b5b50919050565b60008190508160005260206000209050919050565b60006020601f8301049050919050565b600082821b905092915050565b600060088302620003027fffffffffffffffffffffffffffffffffffffffffffffffffffffffffffffffff82620002c3565b6200030e8683620002c3565b95508019841693508086168417925050509392505050565b6000819050919050565b6000819050919050565b60006200035b620003556200034f8462000326565b62000330565b62000326565b9050919050565b6000819050919050565b62000377836200033a565b6200038f620003868262000362565b848454620002d0565b825550505050565b600090565b620003a662000397565b620003b38184846200036c565b505050565b5b81811015620003db57620003cf6000826200039c565b600181019050620003b9565b5050565b601f8211156200042a57620003f4816200029e565b620003ff84620002b3565b810160208510156200040f578190505b620004276200041e85620002b3565b830182620003b8565b50505b505050565b600082821c905092915050565b60006200044f600019846008026200042f565b1980831691505092915050565b60006200046a83836200043c565b9150826002028217905092915050565b620004858262000200565b67ffffffffffffffff811115620004a157620004a06200020b565b5b620004ad825462000269565b620004ba828285620003df565b600060209050601f831160018114620004f25760008415620004dd578287015190505b620004e985826200045c565b86555062000559565b601f19841662000502866200029e565b60005b828110156200052c5784890151825560018201915060208501945060208101905062000505565b868310156200054c578489015162000548601f8916826200043c565b8355505b6001600288020188555050505b505050505050565b600073ffffffffffffffffffffffffffffffffffffffff82169050919050565b60006200058e8262000561565b9050919050565b620005a08162000581565b82525050565b6000602082019050620005bd600083018462000595565b92915050565b61580080620005d36000396000f3fe6080604052600436106102305760003560e01c80634c6668a31161012e5780639c55a70f116100ab578063cb0cd9a51161006f578063cb0cd9a5146108e0578063e7fb60261461090b578063e985e9c514610948578063f2fde38b14610985578063f912774c146109ae57610230565b80639c55a70f146107fd578063a22cb46514610826578063b88d4fde1461084f578063c87b56dd14610878578063caa0f92a146108b557610230565b806370a08231116100f257806370a082311461072a578063715018a614610767578063867d60731461077e5780638da5cb5b146107a757806395d89b41146107d257610230565b80634c6668a31461062c5780635dd2d0a91461066957806360547602146106a65780636352211e146106c25780636c833c12146106ff57610230565b80632a55205a116101bc5780633a10fb6f116101805780633a10fb6f146105215780633fb6d39e1461054c578063400aa02f1461058957806342545825146105c657806342842e0e1461060357610230565b80632a55205a146103e85780632a7ca11f146104265780633734678314610463578063388f6064146104a057806339974e04146104e457610230565b80630cf8e514116102035780630cf8e5141461030357806316fc5cea146103405780631a7dfa9f1461036b57806323b872dd14610396578063246fd087146103bf57610230565b806301ffc9a71461023557806306fdde0314610272578063081812fc1461029d578063095ea7b3146102da575b600080fd5b34801561024157600080fd5b5061025c60048036038101906102579190614102565b6109eb565b604051610269919061414a565b60405180910390f35b34801561027e57600080fd5b506102876109fd565b60405161029491906141f5565b60405180910390f35b3480156102a957600080fd5b506102c460048036038101906102bf919061424d565b610a8f565b6040516102d191906142bb565b60405180910390f35b3480156102e657600080fd5b5061030160048036038101906102fc9190614302565b610aab565b005b34801561030f57600080fd5b5061032a60048036038101906103259190614477565b610ac1565b60405161033791906144cf565b60405180910390f35b34801561034c57600080fd5b50610355610db3565b6040516103629190614511565b60405180910390f35b34801561037757600080fd5b50610380610db8565b60405161038d9190614511565b60405180910390f35b3480156103a257600080fd5b506103bd60048036038101906103b8919061452c565b610dbe565b005b3480156103cb57600080fd5b506103e660048036038101906103e1919061457f565b610ec0565b005b3480156103f457600080fd5b5061040f600480360381019061040a91906145ac565b610f0c565b60405161041d9291906145ec565b60405180910390f35b34801561043257600080fd5b5061044d6004803603810190610448919061424d565b6110b1565b60405161045a919061473c565b60405180910390f35b34801561046f57600080fd5b5061048a6004803603810190610485919061424d565b61128b565b60405161049791906142bb565b60405180910390f35b3480156104ac57600080fd5b506104c760048036038101906104c2919061424d565b6112cb565b6040516104db98979695949392919061475e565b60405180910390f35b3480156104f057600080fd5b5061050b600480360381019061050691906147e3565b6113c8565b60405161051891906144cf565b60405180910390f35b34801561052d57600080fd5b50610536611749565b60405161054391906142bb565b60405180910390f35b34801561055857600080fd5b50610573600480360381019061056e919061424d565b61176f565b60405161058091906144cf565b60405180910390f35b34801561059557600080fd5b506105b060048036038101906105ab919061424d565b61178f565b6040516105bd919061414a565b60405180910390f35b3480156105d257600080fd5b506105ed60048036038101906105e89190614302565b6117bc565b6040516105fa919061414a565b60405180910390f35b34801561060f57600080fd5b5061062a6004803603810190610625919061452c565b6117eb565b005b34801561063857600080fd5b50610653600480360381019061064e9190614302565b61180b565b604051610660919061414a565b60405180910390f35b34801561067557600080fd5b50610690600480360381019061068b919061424d565b61183a565b60405161069d91906144cf565b60405180910390f35b6106c060048036038101906106bb919061424d565b61185a565b005b3480156106ce57600080fd5b506106e960048036038101906106e4919061424d565b611e18565b6040516106f691906142bb565b60405180910390f35b34801561070b57600080fd5b50610714611e2a565b6040516107219190614511565b60405180910390f35b34801561073657600080fd5b50610751600480360381019061074c919061457f565b611e30565b60405161075e91906144cf565b60405180910390f35b34801561077357600080fd5b5061077c611eea565b005b34801561078a57600080fd5b506107a560048036038101906107a0919061424d565b611efe565b005b3480156107b357600080fd5b506107bc6122c7565b6040516107c991906142bb565b60405180910390f35b3480156107de57600080fd5b506107e76122f1565b6040516107f491906141f5565b60405180910390f35b34801561080957600080fd5b50610824600480360381019061081f919061424d565b612383565b005b34801561083257600080fd5b5061084d6004803603810190610848919061486b565b612701565b005b34801561085b57600080fd5b506108766004803603810190610871919061494c565b612717565b005b34801561088457600080fd5b5061089f600480360381019061089a919061424d565b61273c565b6040516108ac91906141f5565b60405180910390f35b3480156108c157600080fd5b506108ca61274e565b6040516108d791906144cf565b60405180910390f35b3480156108ec57600080fd5b506108f5612758565b6040516109029190614511565b60405180910390f35b34801561091757600080fd5b50610932600480360381019061092d919061424d565b61275e565b60405161093f91906144cf565b60405180910390f35b34801561095457600080fd5b5061096f600480360381019061096a91906149cf565b61296c565b60405161097c919061414a565b60405180910390f35b34801561099157600080fd5b506109ac60048036038101906109a7919061457f565b612a00565b005b3480156109ba57600080fd5b506109d560048036038101906109d0919061424d565b612a86565b6040516109e29190614abe565b60405180910390f35b60006109f682612dcc565b9050919050565b606060008054610a0c90614b0f565b80601f0160208091040260200160405190810160405280929190818152602001828054610a3890614b0f565b8015610a855780601f10610a5a57610100808354040283529160200191610a85565b820191906000526020600020905b815481529060010190602001808311610a6857829003601f168201915b5050505050905090565b6000610a9a82612e46565b50610aa482612ece565b9050919050565b610abd8282610ab8612f0b565b612f13565b5050565b6000610acb612f25565b60008251118015610adf5750610200825111155b610b1e576040517f08c379a0000000000000000000000000000000000000000000000000000000008152600401610b1590614b8c565b60405180910390fd5b60005a90506000600b6000815480929190610b3890614bdb565b9190505590506040518061010001604052808581526020013373ffffffffffffffffffffffffffffffffffffffff1681526020016000815260200160008152602001600081526020016000151581526020016000815260200142815250600e60008381526020019081526020016000206000820151816000019081610bbd9190614dcf565b5060208201518160010160006101000a81548173ffffffffffffffffffffffffffffffffffffffff021916908373ffffffffffffffffffffffffffffffffffffffff16021790555060408201518160020155606082015181600301556080820151816004015560a08201518160050160006101000a81548160ff02191690831515021790555060c0820151816006015560e08201518160070155905050610c643382612f6b565b610c6e8185613064565b600073ffffffffffffffffffffffffffffffffffffffff16600f60009054906101000a900473ffffffffffffffffffffffffffffffffffffffff1673ffffffffffffffffffffffffffffffffffffffff1614610d6957600f60009054906101000a900473ffffffffffffffffffffffffffffffffffffffff1673ffffffffffffffffffffffffffffffffffffffff166359126991823360005a87610d129190614ea1565b6000806040518763ffffffff1660e01b8152600401610d3696959493929190614f1d565b600060405180830381600087803b158015610d5057600080fd5b505af1158015610d64573d6000803e3d6000fd5b505050505b807f4d41e2dbc81b04ba842c0120c41b265fe5d53ab5f162050fd97168c6c9d7e8f133604051610d9991906142bb565b60405180910390a28092505050610dae6130c0565b919050565b60c881565b6101f481565b600073ffffffffffffffffffffffffffffffffffffffff168273ffffffffffffffffffffffffffffffffffffffff1603610e305760006040517f64a0ae92000000000000000000000000000000000000000000000000000000008152600401610e2791906142bb565b60405180910390fd5b6000610e448383610e3f612f0b565b6130ca565b90508373ffffffffffffffffffffffffffffffffffffffff168173ffffffffffffffffffffffffffffffffffffffff1614610eba578382826040517f64283d7b000000000000000000000000000000000000000000000000000000008152600401610eb193929190614f7e565b60405180910390fd5b50505050565b610ec86132e4565b80600f60006101000a81548173ffffffffffffffffffffffffffffffffffffffff021916908373ffffffffffffffffffffffffffffffffffffffff16021790555050565b6000806000600e60008681526020019081526020016000209050600073ffffffffffffffffffffffffffffffffffffffff168160010160009054906101000a900473ffffffffffffffffffffffffffffffffffffffff1673ffffffffffffffffffffffffffffffffffffffff1603610fb9576040517f08c379a0000000000000000000000000000000000000000000000000000000008152600401610fb090615001565b60405180910390fd5b60006127106101f46bffffffffffffffffffffffff1686610fda9190615021565b610fe49190615092565b9050600080600090508360050160009054906101000a900460ff161561105e5761271061012c6bffffffffffffffffffffffff16886110239190615021565b61102d9190615092565b915061271060c86bffffffffffffffffffffffff168861104d9190615021565b6110579190615092565b905061108a565b6127106101f46bffffffffffffffffffffffff168861107d9190615021565b6110879190615092565b91505b80828461109791906150c3565b6110a191906150c3565b9450309550505050509250929050565b6110b9614039565b600073ffffffffffffffffffffffffffffffffffffffff166110da83611e18565b73ffffffffffffffffffffffffffffffffffffffff1603611130576040517f08c379a000000000000000000000000000000000000000000000000000000000815260040161112790615143565b60405180910390fd5b600e60008381526020019081526020016000206040518061010001604052908160008201805461115f90614b0f565b80601f016020809104026020016040519081016040528092919081815260200182805461118b90614b0f565b80156111d85780601f106111ad576101008083540402835291602001916111d8565b820191906000526020600020905b8154815290600101906020018083116111bb57829003601f168201915b505050505081526020016001820160009054906101000a900473ffffffffffffffffffffffffffffffffffffffff1673ffffffffffffffffffffffffffffffffffffffff1673ffffffffffffffffffffffffffffffffffffffff1681526020016002820154815260200160038201548152602001600482015481526020016005820160009054906101000a900460ff16151515158152602001600682015481526020016007820154815250509050919050565b6000600e600083815260200190815260200160002060010160009054906101000a900473ffffffffffffffffffffffffffffffffffffffff169050919050565b600e6020528060005260406000206000915090508060000180546112ee90614b0f565b80601f016020809104026020016040519081016040528092919081815260200182805461131a90614b0f565b80156113675780601f1061133c57610100808354040283529160200191611367565b820191906000526020600020905b81548152906001019060200180831161134a57829003601f168201915b5050505050908060010160009054906101000a900473ffffffffffffffffffffffffffffffffffffffff16908060020154908060030154908060040154908060050160009054906101000a900460ff16908060060154908060070154905088565b60006113d2612f25565b600073ffffffffffffffffffffffffffffffffffffffff166113f384611e18565b73ffffffffffffffffffffffffffffffffffffffff1603611449576040517f08c379a0000000000000000000000000000000000000000000000000000000008152600401611440906151af565b60405180910390fd5b60005a90506000600b600081548092919061146390614bdb565b9190505590506000600e600087815260200190815260200160002060010160009054906101000a900473ffffffffffffffffffffffffffffffffffffffff1690506040518061010001604052808681526020013373ffffffffffffffffffffffffffffffffffffffff16815260200160008152602001600081526020016000815260200160011515815260200187815260200142815250600e600084815260200190815260200160002060008201518160000190816115229190614dcf565b5060208201518160010160006101000a81548173ffffffffffffffffffffffffffffffffffffffff021916908373ffffffffffffffffffffffffffffffffffffffff16021790555060408201518160020155606082015181600301556080820151816004015560a08201518160050160006101000a81548160ff02191690831515021790555060c0820151816006015560e08201518160070155905050600e600087815260200190815260200160002060030160008154809291906115e690614bdb565b91905055506115f53383612f6b565b6115ff8286613064565b600073ffffffffffffffffffffffffffffffffffffffff16600f60009054906101000a900473ffffffffffffffffffffffffffffffffffffffff1673ffffffffffffffffffffffffffffffffffffffff16146116fa57600f60009054906101000a900473ffffffffffffffffffffffffffffffffffffffff1673ffffffffffffffffffffffffffffffffffffffff1663591269918383335a886116a29190614ea1565b600160006040518763ffffffff1660e01b81526004016116c796959493929190614f1d565b600060405180830381600087803b1580156116e157600080fd5b505af11580156116f5573d6000803e3d6000fd5b505050505b81867fbbb81ca785f2342ff0a5067b373a75b63ecfca3457baeffc28cfddfa901bea89338860405161172d9291906151cf565b60405180910390a38193505050506117436130c0565b92915050565b600f60009054906101000a900473ffffffffffffffffffffffffffffffffffffffff1681565b6000600e6000838152602001908152602001600020600401549050919050565b6000600e600083815260200190815260200160002060050160009054906101000a900460ff169050919050565b600d6020528160005260406000206020528060005260406000206000915091509054906101000a900460ff1681565b61180683838360405180602001604052806000815250612717565b505050565b600c6020528160005260406000206020528060005260406000206000915091509054906101000a900460ff1681565b6000600e6000838152602001908152602001600020600601549050919050565b6000600e60008381526020019081526020016000209050600073ffffffffffffffffffffffffffffffffffffffff168160010160009054906101000a900473ffffffffffffffffffffffffffffffffffffffff1673ffffffffffffffffffffffffffffffffffffffff1603611904576040517f08c379a00000000000000000000000000000000000000000000000000000000081526004016118fb90615001565b60405180910390fd5b600034905060006127106101f46bffffffffffffffffffffffff168361192a9190615021565b6119349190615092565b9050600080600090508460050160009054906101000a900460ff1615611c20576000600e600087600601548152602001908152602001600020905061271061012c6bffffffffffffffffffffffff168661198e9190615021565b6119989190615092565b925061271060c86bffffffffffffffffffffffff16866119b89190615021565b6119c29190615092565b915060008160010160009054906101000a900473ffffffffffffffffffffffffffffffffffffffff1673ffffffffffffffffffffffffffffffffffffffff1685604051611a0e90615230565b60006040518083038185875af1925050503d8060008114611a4b576040519150601f19603f3d011682016040523d82523d6000602084013e611a50565b606091505b5050905080611a94576040517f08c379a0000000000000000000000000000000000000000000000000000000008152600401611a8b90615291565b60405180910390fd5b6000611a9e6122c7565b73ffffffffffffffffffffffffffffffffffffffff1685604051611ac190615230565b60006040518083038185875af1925050503d8060008114611afe576040519150601f19603f3d011682016040523d82523d6000602084013e611b03565b606091505b5050905080611b47576040517f08c379a0000000000000000000000000000000000000000000000000000000008152600401611b3e906152fd565b60405180910390fd5b60008860010160009054906101000a900473ffffffffffffffffffffffffffffffffffffffff1673ffffffffffffffffffffffffffffffffffffffff1685604051611b9190615230565b60006040518083038185875af1925050503d8060008114611bce576040519150601f19603f3d011682016040523d82523d6000602084013e611bd3565b606091505b5050905080611c17576040517f08c379a0000000000000000000000000000000000000000000000000000000008152600401611c0e90615369565b60405180910390fd5b50505050611dd1565b6127106101f46bffffffffffffffffffffffff1685611c3f9190615021565b611c499190615092565b915060008560010160009054906101000a900473ffffffffffffffffffffffffffffffffffffffff1673ffffffffffffffffffffffffffffffffffffffff1684604051611c9590615230565b60006040518083038185875af1925050503d8060008114611cd2576040519150601f19603f3d011682016040523d82523d6000602084013e611cd7565b606091505b5050905080611d1b576040517f08c379a0000000000000000000000000000000000000000000000000000000008152600401611d1290615291565b60405180910390fd5b6000611d256122c7565b73ffffffffffffffffffffffffffffffffffffffff1684604051611d4890615230565b60006040518083038185875af1925050503d8060008114611d85576040519150601f19603f3d011682016040523d82523d6000602084013e611d8a565b606091505b5050905080611dce576040517f08c379a0000000000000000000000000000000000000000000000000000000008152600401611dc5906152fd565b60405180910390fd5b50505b7f506a9d00d507b035898b426834130f237272fdb2faaf32773b05832af710e4918685858585604051611e08959493929190615389565b60405180910390a1505050505050565b6000611e2382612e46565b9050919050565b6101f481565b60008073ffffffffffffffffffffffffffffffffffffffff168273ffffffffffffffffffffffffffffffffffffffff1603611ea35760006040517f89c62b64000000000000000000000000000000000000000000000000000000008152600401611e9a91906142bb565b60405180910390fd5b600360008373ffffffffffffffffffffffffffffffffffffffff1673ffffffffffffffffffffffffffffffffffffffff168152602001908152602001600020549050919050565b611ef26132e4565b611efc600061336b565b565b611f06612f25565b600073ffffffffffffffffffffffffffffffffffffffff16611f2782611e18565b73ffffffffffffffffffffffffffffffffffffffff1603611f7d576040517f08c379a0000000000000000000000000000000000000000000000000000000008152600401611f7490615143565b60405180910390fd5b6000611f8833611e30565b11611fc8576040517f08c379a0000000000000000000000000000000000000000000000000000000008152600401611fbf90615428565b60405180910390fd5b600d60003373ffffffffffffffffffffffffffffffffffffffff1673ffffffffffffffffffffffffffffffffffffffff168152602001908152602001600020600082815260200190815260200160002060009054906101000a900460ff1615612066576040517f08c379a000000000000000000000000000000000000000000000000000000000815260040161205d90615494565b60405180910390fd5b60005a90506001600d60003373ffffffffffffffffffffffffffffffffffffffff1673ffffffffffffffffffffffffffffffffffffffff168152602001908152602001600020600084815260200190815260200160002060006101000a81548160ff021916908315150217905550600e600083815260200190815260200160002060040160008154809291906120fb90614bdb565b9190505550600073ffffffffffffffffffffffffffffffffffffffff16600f60009054906101000a900473ffffffffffffffffffffffffffffffffffffffff1673ffffffffffffffffffffffffffffffffffffffff161461228357600f60009054906101000a900473ffffffffffffffffffffffffffffffffffffffff1673ffffffffffffffffffffffffffffffffffffffff16635912699183600e600086815260200190815260200160002060010160009054906101000a900473ffffffffffffffffffffffffffffffffffffffff16600e600087815260200190815260200160002060050160009054906101000a900460ff166121fb5760006121fd565b335b5a866122099190614ea1565b600e600089815260200190815260200160002060050160009054906101000a900460ff1660026040518763ffffffff1660e01b8152600401612250969594939291906154ef565b600060405180830381600087803b15801561226a57600080fd5b505af115801561227e573d6000803e3d6000fd5b505050505b817fb04229b085477d32a307704ee25d5fa10f1459f7b7250e99dafb0ee533dd223c336040516122b391906142bb565b60405180910390a2506122c46130c0565b50565b6000600760009054906101000a900473ffffffffffffffffffffffffffffffffffffffff16905090565b60606001805461230090614b0f565b80601f016020809104026020016040519081016040528092919081815260200182805461232c90614b0f565b80156123795780601f1061234e57610100808354040283529160200191612379565b820191906000526020600020905b81548152906001019060200180831161235c57829003601f168201915b5050505050905090565b61238b612f25565b600073ffffffffffffffffffffffffffffffffffffffff166123ac82611e18565b73ffffffffffffffffffffffffffffffffffffffff1603612402576040517f08c379a00000000000000000000000000000000000000000000000000000000081526004016123f990615143565b60405180910390fd5b600c60003373ffffffffffffffffffffffffffffffffffffffff1673ffffffffffffffffffffffffffffffffffffffff168152602001908152602001600020600082815260200190815260200160002060009054906101000a900460ff16156124a0576040517f08c379a00000000000000000000000000000000000000000000000000000000081526004016124979061559c565b60405180910390fd5b60005a90506001600c60003373ffffffffffffffffffffffffffffffffffffffff1673ffffffffffffffffffffffffffffffffffffffff168152602001908152602001600020600084815260200190815260200160002060006101000a81548160ff021916908315150217905550600e6000838152602001908152602001600020600201600081548092919061253590614bdb565b9190505550600073ffffffffffffffffffffffffffffffffffffffff16600f60009054906101000a900473ffffffffffffffffffffffffffffffffffffffff1673ffffffffffffffffffffffffffffffffffffffff16146126bd57600f60009054906101000a900473ffffffffffffffffffffffffffffffffffffffff1673ffffffffffffffffffffffffffffffffffffffff16635912699183600e600086815260200190815260200160002060010160009054906101000a900473ffffffffffffffffffffffffffffffffffffffff16600e600087815260200190815260200160002060050160009054906101000a900460ff16612635576000612637565b335b5a866126439190614ea1565b600e600089815260200190815260200160002060050160009054906101000a900460ff1660016040518763ffffffff1660e01b815260040161268a969594939291906155f7565b600060405180830381600087803b1580156126a457600080fd5b505af11580156126b8573d6000803e3d6000fd5b505050505b817ff8b927cfb2e75ff098dbf5a74342eb61f3048e1361979d572d4387e58579d411336040516126ed91906142bb565b60405180910390a2506126fe6130c0565b50565b61271361270c612f0b565b8383613431565b5050565b612722848484610dbe565b61273661272d612f0b565b858585856135a0565b50505050565b606061274782613751565b9050919050565b6000600b54905090565b61012c81565b600080600e60008481526020019081526020016000206040518061010001604052908160008201805461279090614b0f565b80601f01602080910402602001604051908101604052809291908181526020018280546127bc90614b0f565b80156128095780601f106127de57610100808354040283529160200191612809565b820191906000526020600020905b8154815290600101906020018083116127ec57829003601f168201915b505050505081526020016001820160009054906101000a900473ffffffffffffffffffffffffffffffffffffffff1673ffffffffffffffffffffffffffffffffffffffff1673ffffffffffffffffffffffffffffffffffffffff1681526020016002820154815260200160038201548152602001600482015481526020016005820160009054906101000a900460ff1615151515815260200160068201548152602001600782015481525050905060008160800151826060015160036128cf9190615021565b836040015160026128e09190615021565b6128ea91906150c3565b6128f491906150c3565b905060008260e00151426129089190614ea1565b905060006201518082106129415762093a8082106129395762278d008210612931576019612934565b60325b61293c565b604b5b612944565b60645b60ff169050606481846129579190615021565b6129619190615092565b945050505050919050565b6000600560008473ffffffffffffffffffffffffffffffffffffffff1673ffffffffffffffffffffffffffffffffffffffff16815260200190815260200160002060008373ffffffffffffffffffffffffffffffffffffffff1673ffffffffffffffffffffffffffffffffffffffff16815260200190815260200160002060009054906101000a900460ff16905092915050565b612a086132e4565b600073ffffffffffffffffffffffffffffffffffffffff168173ffffffffffffffffffffffffffffffffffffffff1603612a7a5760006040517f1e4fbdf7000000000000000000000000000000000000000000000000000000008152600401612a7191906142bb565b60405180910390fd5b612a838161336b565b50565b60606000600b54905080831115612a9b578092505b60008167ffffffffffffffff811115612ab757612ab661434c565b5b604051908082528060200260200182016040528015612ae55781602001602082028036833780820191505090505b50905060008267ffffffffffffffff811115612b0457612b0361434c565b5b604051908082528060200260200182016040528015612b325781602001602082028036833780820191505090505b50905060005b83811015612b9b5780838281518110612b5457612b53615658565b5b602002602001018181525050612b698161275e565b828281518110612b7c57612b7b615658565b5b6020026020010181815250508080612b9390614bdb565b915050612b38565b5060005b85811015612d19576000600182612bb691906150c3565b90505b84811015612d0557828281518110612bd457612bd3615658565b5b6020026020010151838281518110612bef57612bee615658565b5b60200260200101511115612cf2576000838381518110612c1257612c11615658565b5b60200260200101519050838281518110612c2f57612c2e615658565b5b6020026020010151848481518110612c4a57612c49615658565b5b60200260200101818152505080848381518110612c6a57612c69615658565b5b6020026020010181815250506000858481518110612c8b57612c8a615658565b5b60200260200101519050858381518110612ca857612ca7615658565b5b6020026020010151868581518110612cc357612cc2615658565b5b60200260200101818152505080868481518110612ce357612ce2615658565b5b60200260200101818152505050505b8080612cfd90614bdb565b915050612bb9565b508080612d1190614bdb565b915050612b9f565b5060008567ffffffffffffffff811115612d3657612d3561434c565b5b604051908082528060200260200182016040528015612d645781602001602082028036833780820191505090505b50905060005b86811015612dbf57838181518110612d8557612d84615658565b5b6020026020010151828281518110612da057612d9f615658565b5b6020026020010181815250508080612db790614bdb565b915050612d6a565b5080945050505050919050565b60007f2a55205a000000000000000000000000000000000000000000000000000000007bffffffffffffffffffffffffffffffffffffffffffffffffffffffff1916827bffffffffffffffffffffffffffffffffffffffffffffffffffffffff19161480612e3f5750612e3e82613864565b5b9050919050565b600080612e52836138c5565b9050600073ffffffffffffffffffffffffffffffffffffffff168173ffffffffffffffffffffffffffffffffffffffff1603612ec557826040517f7e273289000000000000000000000000000000000000000000000000000000008152600401612ebc91906144cf565b60405180910390fd5b80915050919050565b60006004600083815260200190815260200160002060009054906101000a900473ffffffffffffffffffffffffffffffffffffffff169050919050565b600033905090565b612f208383836001613902565b505050565b600260085403612f61576040517f3ee5aeb500000000000000000000000000000000000000000000000000000000815260040160405180910390fd5b6002600881905550565b600073ffffffffffffffffffffffffffffffffffffffff168273ffffffffffffffffffffffffffffffffffffffff1603612fdd5760006040517f64a0ae92000000000000000000000000000000000000000000000000000000008152600401612fd491906142bb565b60405180910390fd5b6000612feb838360006130ca565b9050600073ffffffffffffffffffffffffffffffffffffffff168173ffffffffffffffffffffffffffffffffffffffff161461305f5760006040517f73c6ac6e00000000000000000000000000000000000000000000000000000000815260040161305691906142bb565b60405180910390fd5b505050565b806006600084815260200190815260200160002090816130849190614dcf565b507ff8e1a15aba9398e019f0b49df1a4fde98ee17ae345cb5f6b5e2c27f5033e8ce7826040516130b491906144cf565b60405180910390a15050565b6001600881905550565b6000806130d6846138c5565b9050600073ffffffffffffffffffffffffffffffffffffffff168373ffffffffffffffffffffffffffffffffffffffff161461311857613117818486613ac7565b5b600073ffffffffffffffffffffffffffffffffffffffff168173ffffffffffffffffffffffffffffffffffffffff16146131a95761315a600085600080613902565b6001600360008373ffffffffffffffffffffffffffffffffffffffff1673ffffffffffffffffffffffffffffffffffffffff168152602001908152602001600020600082825403925050819055505b600073ffffffffffffffffffffffffffffffffffffffff168573ffffffffffffffffffffffffffffffffffffffff161461322c576001600360008773ffffffffffffffffffffffffffffffffffffffff1673ffffffffffffffffffffffffffffffffffffffff168152602001908152602001600020600082825401925050819055505b846002600086815260200190815260200160002060006101000a81548173ffffffffffffffffffffffffffffffffffffffff021916908373ffffffffffffffffffffffffffffffffffffffff160217905550838573ffffffffffffffffffffffffffffffffffffffff168273ffffffffffffffffffffffffffffffffffffffff167fddf252ad1be2c89b69c2b068fc378daa952ba7f163c4a11628f55a4df523b3ef60405160405180910390a4809150509392505050565b6132ec612f0b565b73ffffffffffffffffffffffffffffffffffffffff1661330a6122c7565b73ffffffffffffffffffffffffffffffffffffffff16146133695761332d612f0b565b6040517f118cdaa700000000000000000000000000000000000000000000000000000000815260040161336091906142bb565b60405180910390fd5b565b6000600760009054906101000a900473ffffffffffffffffffffffffffffffffffffffff16905081600760006101000a81548173ffffffffffffffffffffffffffffffffffffffff021916908373ffffffffffffffffffffffffffffffffffffffff1602179055508173ffffffffffffffffffffffffffffffffffffffff168173ffffffffffffffffffffffffffffffffffffffff167f8be0079c531659141344cd1fd0a4f28419497f9722a3daafe3b4186f6b6457e060405160405180910390a35050565b600073ffffffffffffffffffffffffffffffffffffffff168273ffffffffffffffffffffffffffffffffffffffff16036134a257816040517f5b08ba1800000000000000000000000000000000000000000000000000000000815260040161349991906142bb565b60405180910390fd5b80600560008573ffffffffffffffffffffffffffffffffffffffff1673ffffffffffffffffffffffffffffffffffffffff16815260200190815260200160002060008473ffffffffffffffffffffffffffffffffffffffff1673ffffffffffffffffffffffffffffffffffffffff16815260200190815260200160002060006101000a81548160ff0219169083151502179055508173ffffffffffffffffffffffffffffffffffffffff168373ffffffffffffffffffffffffffffffffffffffff167f17307eab39ab6107e8899845ad3d59bd9653f200f220920489ca2b5937696c3183604051613593919061414a565b60405180910390a3505050565b60008373ffffffffffffffffffffffffffffffffffffffff163b111561374a578273ffffffffffffffffffffffffffffffffffffffff1663150b7a02868685856040518563ffffffff1660e01b81526004016135ff94939291906156dc565b6020604051808303816000875af192505050801561363b57506040513d601f19601f82011682018060405250810190613638919061573d565b60015b6136bf573d806000811461366b576040519150601f19603f3d011682016040523d82523d6000602084013e613670565b606091505b5060008151036136b757836040517f64a0ae920000000000000000000000000000000000000000000000000000000081526004016136ae91906142bb565b60405180910390fd5b805181602001fd5b63150b7a0260e01b7bffffffffffffffffffffffffffffffffffffffffffffffffffffffff1916817bffffffffffffffffffffffffffffffffffffffffffffffffffffffff19161461374857836040517f64a0ae9200000000000000000000000000000000000000000000000000000000815260040161373f91906142bb565b60405180910390fd5b505b5050505050565b606061375c82612e46565b50600060066000848152602001908152602001600020805461377d90614b0f565b80601f01602080910402602001604051908101604052809291908181526020018280546137a990614b0f565b80156137f65780601f106137cb576101008083540402835291602001916137f6565b820191906000526020600020905b8154815290600101906020018083116137d957829003601f168201915b505050505090506000613807613b8b565b9050600081510361381c57819250505061385f565b6000825111156138515780826040516020016138399291906157a6565b6040516020818303038152906040529250505061385f565b61385a84613ba2565b925050505b919050565b6000634906490660e01b7bffffffffffffffffffffffffffffffffffffffffffffffffffffffff1916827bffffffffffffffffffffffffffffffffffffffffffffffffffffffff191614806138be57506138bd82613c0b565b5b9050919050565b60006002600083815260200190815260200160002060009054906101000a900473ffffffffffffffffffffffffffffffffffffffff169050919050565b808061393b5750600073ffffffffffffffffffffffffffffffffffffffff168273ffffffffffffffffffffffffffffffffffffffff1614155b15613a6f57600061394b84612e46565b9050600073ffffffffffffffffffffffffffffffffffffffff168373ffffffffffffffffffffffffffffffffffffffff16141580156139b657508273ffffffffffffffffffffffffffffffffffffffff168173ffffffffffffffffffffffffffffffffffffffff1614155b80156139c957506139c7818461296c565b155b15613a0b57826040517fa9fbf51f000000000000000000000000000000000000000000000000000000008152600401613a0291906142bb565b60405180910390fd5b8115613a6d57838573ffffffffffffffffffffffffffffffffffffffff168273ffffffffffffffffffffffffffffffffffffffff167f8c5be1e5ebec7d5bd14f71427d1e84f3dd0314c0f7b2291e5b200ac8c7c3b92560405160405180910390a45b505b836004600085815260200190815260200160002060006101000a81548173ffffffffffffffffffffffffffffffffffffffff021916908373ffffffffffffffffffffffffffffffffffffffff16021790555050505050565b613ad2838383613ced565b613b8657600073ffffffffffffffffffffffffffffffffffffffff168373ffffffffffffffffffffffffffffffffffffffff1603613b4757806040517f7e273289000000000000000000000000000000000000000000000000000000008152600401613b3e91906144cf565b60405180910390fd5b81816040517f177e802f000000000000000000000000000000000000000000000000000000008152600401613b7d9291906145ec565b60405180910390fd5b505050565b606060405180602001604052806000815250905090565b6060613bad82612e46565b506000613bb8613b8b565b90506000815111613bd85760405180602001604052806000815250613c03565b80613be284613dae565b604051602001613bf39291906157a6565b6040516020818303038152906040525b915050919050565b60007f80ac58cd000000000000000000000000000000000000000000000000000000007bffffffffffffffffffffffffffffffffffffffffffffffffffffffff1916827bffffffffffffffffffffffffffffffffffffffffffffffffffffffff19161480613cd657507f5b5e139f000000000000000000000000000000000000000000000000000000007bffffffffffffffffffffffffffffffffffffffffffffffffffffffff1916827bffffffffffffffffffffffffffffffffffffffffffffffffffffffff1916145b80613ce65750613ce582613e7c565b5b9050919050565b60008073ffffffffffffffffffffffffffffffffffffffff168373ffffffffffffffffffffffffffffffffffffffff1614158015613da557508273ffffffffffffffffffffffffffffffffffffffff168473ffffffffffffffffffffffffffffffffffffffff161480613d665750613d65848461296c565b5b80613da457508273ffffffffffffffffffffffffffffffffffffffff16613d8c83612ece565b73ffffffffffffffffffffffffffffffffffffffff16145b5b90509392505050565b606060006001613dbd84613ee6565b01905060008167ffffffffffffffff811115613ddc57613ddb61434c565b5b6040519080825280601f01601f191660200182016040528015613e0e5781602001600182028036833780820191505090505b509050600082602001820190505b600115613e71578080600190039150507f3031323334353637383961626364656600000000000000000000000000000000600a86061a8153600a8581613e6557613e64615063565b5b04945060008503613e1c575b819350505050919050565b60007f01ffc9a7000000000000000000000000000000000000000000000000000000007bffffffffffffffffffffffffffffffffffffffffffffffffffffffff1916827bffffffffffffffffffffffffffffffffffffffffffffffffffffffff1916149050919050565b600080600090507a184f03e93ff9f4daa797ed6e38ed64bf6a1f0100000000000000008310613f44577a184f03e93ff9f4daa797ed6e38ed64bf6a1f0100000000000000008381613f3a57613f39615063565b5b0492506040810190505b6d04ee2d6d415b85acef81000000008310613f81576d04ee2d6d415b85acef81000000008381613f7757613f76615063565b5b0492506020810190505b662386f26fc100008310613fb057662386f26fc100008381613fa657613fa5615063565b5b0492506010810190505b6305f5e1008310613fd9576305f5e1008381613fcf57613fce615063565b5b0492506008810190505b6127108310613ffe576127108381613ff457613ff3615063565b5b0492506004810190505b60648310614021576064838161401757614016615063565b5b0492506002810190505b600a8310614030576001810190505b80915050919050565b60405180610100016040528060608152602001600073ffffffffffffffffffffffffffffffffffffffff16815260200160008152602001600081526020016000815260200160001515815260200160008152602001600081525090565b6000604051905090565b600080fd5b600080fd5b60007fffffffff0000000000000000000000000000000000000000000000000000000082169050919050565b6140df816140aa565b81146140ea57600080fd5b50565b6000813590506140fc816140d6565b92915050565b600060208284031215614118576141176140a0565b5b6000614126848285016140ed565b91505092915050565b60008115159050919050565b6141448161412f565b82525050565b600060208201905061415f600083018461413b565b92915050565b600081519050919050565b600082825260208201905092915050565b60005b8381101561419f578082015181840152602081019050614184565b60008484015250505050565b6000601f19601f8301169050919050565b60006141c782614165565b6141d18185614170565b93506141e1818560208601614181565b6141ea816141ab565b840191505092915050565b6000602082019050818103600083015261420f81846141bc565b905092915050565b6000819050919050565b61422a81614217565b811461423557600080fd5b50565b60008135905061424781614221565b92915050565b600060208284031215614263576142626140a0565b5b600061427184828501614238565b91505092915050565b600073ffffffffffffffffffffffffffffffffffffffff82169050919050565b60006142a58261427a565b9050919050565b6142b58161429a565b82525050565b60006020820190506142d060008301846142ac565b92915050565b6142df8161429a565b81146142ea57600080fd5b50565b6000813590506142fc816142d6565b92915050565b60008060408385031215614319576143186140a0565b5b6000614327858286016142ed565b925050602061433885828601614238565b9150509250929050565b600080fd5b600080fd5b7f4e487b7100000000000000000000000000000000000000000000000000000000600052604160045260246000fd5b614384826141ab565b810181811067ffffffffffffffff821117156143a3576143a261434c565b5b80604052505050565b60006143b6614096565b90506143c2828261437b565b919050565b600067ffffffffffffffff8211156143e2576143e161434c565b5b6143eb826141ab565b9050602081019050919050565b82818337600083830152505050565b600061441a614415846143c7565b6143ac565b90508281526020810184848401111561443657614435614347565b5b6144418482856143f8565b509392505050565b600082601f83011261445e5761445d614342565b5b813561446e848260208601614407565b91505092915050565b60006020828403121561448d5761448c6140a0565b5b600082013567ffffffffffffffff8111156144ab576144aa6140a5565b5b6144b784828501614449565b91505092915050565b6144c981614217565b82525050565b60006020820190506144e460008301846144c0565b92915050565b60006bffffffffffffffffffffffff82169050919050565b61450b816144ea565b82525050565b60006020820190506145266000830184614502565b92915050565b600080600060608486031215614545576145446140a0565b5b6000614553868287016142ed565b9350506020614564868287016142ed565b925050604061457586828701614238565b9150509250925092565b600060208284031215614595576145946140a0565b5b60006145a3848285016142ed565b91505092915050565b600080604083850312156145c3576145c26140a0565b5b60006145d185828601614238565b92505060206145e285828601614238565b9150509250929050565b600060408201905061460160008301856142ac565b61460e60208301846144c0565b9392505050565b600082825260208201905092915050565b600061463182614165565b61463b8185614615565b935061464b818560208601614181565b614654816141ab565b840191505092915050565b6146688161429a565b82525050565b61467781614217565b82525050565b6146868161412f565b82525050565b60006101008301600083015184820360008601526146aa8282614626565b91505060208301516146bf602086018261465f565b5060408301516146d2604086018261466e565b5060608301516146e5606086018261466e565b5060808301516146f8608086018261466e565b5060a083015161470b60a086018261467d565b5060c083015161471e60c086018261466e565b5060e083015161473160e086018261466e565b508091505092915050565b60006020820190508181036000830152614756818461468c565b905092915050565b6000610100820190508181036000830152614779818b6141bc565b9050614788602083018a6142ac565b61479560408301896144c0565b6147a260608301886144c0565b6147af60808301876144c0565b6147bc60a083018661413b565b6147c960c08301856144c0565b6147d660e08301846144c0565b9998505050505050505050565b600080604083850312156147fa576147f96140a0565b5b600061480885828601614238565b925050602083013567ffffffffffffffff811115614829576148286140a5565b5b61483585828601614449565b9150509250929050565b6148488161412f565b811461485357600080fd5b50565b6000813590506148658161483f565b92915050565b60008060408385031215614882576148816140a0565b5b6000614890858286016142ed565b92505060206148a185828601614856565b9150509250929050565b600067ffffffffffffffff8211156148c6576148c561434c565b5b6148cf826141ab565b9050602081019050919050565b60006148ef6148ea846148ab565b6143ac565b90508281526020810184848401111561490b5761490a614347565b5b6149168482856143f8565b509392505050565b600082601f83011261493357614932614342565b5b81356149438482602086016148dc565b91505092915050565b60008060008060808587031215614966576149656140a0565b5b6000614974878288016142ed565b9450506020614985878288016142ed565b935050604061499687828801614238565b925050606085013567ffffffffffffffff8111156149b7576149b66140a5565b5b6149c38782880161491e565b91505092959194509250565b600080604083850312156149e6576149e56140a0565b5b60006149f4858286016142ed565b9250506020614a05858286016142ed565b9150509250929050565b600081519050919050565b600082825260208201905092915050565b6000819050602082019050919050565b6000614a47838361466e565b60208301905092915050565b6000602082019050919050565b6000614a6b82614a0f565b614a758185614a1a565b9350614a8083614a2b565b8060005b83811015614ab1578151614a988882614a3b565b9750614aa383614a53565b925050600181019050614a84565b5085935050505092915050565b60006020820190508181036000830152614ad88184614a60565b905092915050565b7f4e487b7100000000000000000000000000000000000000000000000000000000600052602260045260246000fd5b60006002820490506001821680614b2757607f821691505b602082108103614b3a57614b39614ae0565b5b50919050565b7f496e76616c696420555249206c656e6774680000000000000000000000000000600082015250565b6000614b76601283614170565b9150614b8182614b40565b602082019050919050565b60006020820190508181036000830152614ba581614b69565b9050919050565b7f4e487b7100000000000000000000000000000000000000000000000000000000600052601160045260246000fd5b6000614be682614217565b91507fffffffffffffffffffffffffffffffffffffffffffffffffffffffffffffffff8203614c1857614c17614bac565b5b600182019050919050565b60008190508160005260206000209050919050565b60006020601f8301049050919050565b600082821b905092915050565b600060088302614c857fffffffffffffffffffffffffffffffffffffffffffffffffffffffffffffffff82614c48565b614c8f8683614c48565b95508019841693508086168417925050509392505050565b6000819050919050565b6000614ccc614cc7614cc284614217565b614ca7565b614217565b9050919050565b6000819050919050565b614ce683614cb1565b614cfa614cf282614cd3565b848454614c55565b825550505050565b600090565b614d0f614d02565b614d1a818484614cdd565b505050565b5b81811015614d3e57614d33600082614d07565b600181019050614d20565b5050565b601f821115614d8357614d5481614c23565b614d5d84614c38565b81016020851015614d6c578190505b614d80614d7885614c38565b830182614d1f565b50505b505050565b600082821c905092915050565b6000614da660001984600802614d88565b1980831691505092915050565b6000614dbf8383614d95565b9150826002028217905092915050565b614dd882614165565b67ffffffffffffffff811115614df157614df061434c565b5b614dfb8254614b0f565b614e06828285614d42565b600060209050601f831160018114614e395760008415614e27578287015190505b614e318582614db3565b865550614e99565b601f198416614e4786614c23565b60005b82811015614e6f57848901518255600182019150602085019450602081019050614e4a565b86831015614e8c5784890151614e88601f891682614d95565b8355505b6001600288020188555050505b505050505050565b6000614eac82614217565b9150614eb783614217565b9250828203905081811115614ecf57614ece614bac565b5b92915050565b6000819050919050565b600060ff82169050919050565b6000614f07614f02614efd84614ed5565b614ca7565b614edf565b9050919050565b614f1781614eec565b82525050565b600060c082019050614f3260008301896144c0565b614f3f60208301886142ac565b614f4c60408301876142ac565b614f5960608301866144c0565b614f66608083018561413b565b614f7360a0830184614f0e565b979650505050505050565b6000606082019050614f9360008301866142ac565b614fa060208301856144c0565b614fad60408301846142ac565b949350505050565b7f546f6b656e20646f6573206e6f74206578697374000000000000000000000000600082015250565b6000614feb601483614170565b9150614ff682614fb5565b602082019050919050565b6000602082019050818103600083015261501a81614fde565b9050919050565b600061502c82614217565b915061503783614217565b925082820261504581614217565b9150828204841483151761505c5761505b614bac565b5b5092915050565b7f4e487b7100000000000000000000000000000000000000000000000000000000600052601260045260246000fd5b600061509d82614217565b91506150a883614217565b9250826150b8576150b7615063565b5b828204905092915050565b60006150ce82614217565b91506150d983614217565b92508282019050808211156150f1576150f0614bac565b5b92915050565b7f4d656d6520646f6573206e6f7420657869737400000000000000000000000000600082015250565b600061512d601383614170565b9150615138826150f7565b602082019050919050565b6000602082019050818103600083015261515c81615120565b9050919050565b7f4f726967696e616c206d656d6520646f6573206e6f7420657869737400000000600082015250565b6000615199601c83614170565b91506151a482615163565b602082019050919050565b600060208201905081810360008301526151c88161518c565b9050919050565b60006040820190506151e460008301856142ac565b81810360208301526151f681846141bc565b90509392505050565b600081905092915050565b50565b600061521a6000836151ff565b91506152258261520a565b600082019050919050565b600061523b8261520d565b9150819050919050565b7f4661696c656420746f2073656e642063726561746f7220726f79616c74696573600082015250565b600061527b602083614170565b915061528682615245565b602082019050919050565b600060208201905081810360008301526152aa8161526e565b9050919050565b7f4661696c656420746f2073656e642064657620726f79616c7469657300000000600082015250565b60006152e7601c83614170565b91506152f2826152b1565b602082019050919050565b60006020820190508181036000830152615316816152da565b9050919050565b7f4661696c656420746f2073656e642072656d6978657220726f79616c74696573600082015250565b6000615353602083614170565b915061535e8261531d565b602082019050919050565b6000602082019050818103600083015261538281615346565b9050919050565b600060a08201905061539e60008301886144c0565b6153ab60208301876144c0565b6153b860408301866144c0565b6153c560608301856144c0565b6153d260808301846144c0565b9695505050505050565b7f4d75737420686f6c642061204d656d65204e465420746f20766f746500000000600082015250565b6000615412601c83614170565b915061541d826153dc565b602082019050919050565b6000602082019050818103600083015261544181615405565b9050919050565b7f416c726561647920766f746564206f6e2074686973206d656d65000000000000600082015250565b600061547e601a83614170565b915061548982615448565b602082019050919050565b600060208201905081810360008301526154ad81615471565b9050919050565b6000819050919050565b60006154d96154d46154cf846154b4565b614ca7565b614edf565b9050919050565b6154e9816154be565b82525050565b600060c08201905061550460008301896144c0565b61551160208301886142ac565b61551e60408301876142ac565b61552b60608301866144c0565b615538608083018561413b565b61554560a08301846154e0565b979650505050505050565b7f416c7265616479206c696b65642074686973206d656d65000000000000000000600082015250565b6000615586601783614170565b915061559182615550565b602082019050919050565b600060208201905081810360008301526155b581615579565b9050919050565b6000819050919050565b60006155e16155dc6155d7846155bc565b614ca7565b614edf565b9050919050565b6155f1816155c6565b82525050565b600060c08201905061560c60008301896144c0565b61561960208301886142ac565b61562660408301876142ac565b61563360608301866144c0565b615640608083018561413b565b61564d60a08301846155e8565b979650505050505050565b7f4e487b7100000000000000000000000000000000000000000000000000000000600052603260045260246000fd5b600081519050919050565b600082825260208201905092915050565b60006156ae82615687565b6156b88185615692565b93506156c8818560208601614181565b6156d1816141ab565b840191505092915050565b60006080820190506156f160008301876142ac565b6156fe60208301866142ac565b61570b60408301856144c0565b818103606083015261571d81846156a3565b905095945050505050565b600081519050615737816140d6565b92915050565b600060208284031215615753576157526140a0565b5b600061576184828501615728565b91505092915050565b600081905092915050565b600061578082614165565b61578a818561576a565b935061579a818560208601614181565b80840191505092915050565b60006157b28285615775565b91506157be8284615775565b9150819050939250505056fea264697066735822122084c9223c907151096476d9ab61a0a5e8957837fd1e3977c85a4fcc8df3ccd52664736f6c63430008140033",
  "linkReferences": {},
  "deployedLinkReferences": {}
}